S014000050726F796563746F546573742E737265631B
S11300000C9480000C949D000C949D000C94130897
S11300100C949D000C949D000C949D000C949D00E8
S11300200C949D000C949D000C949D000C94510E16
S11300300C9449100C949D000C949D000C949D000C
S11300400C949D000C949D000C949D000C949D00B8
S11300500C949D000C949D000C949D000C949D00A8
S11300600C949D000C949D0031095B096009AD0955
S1130070E1095B0AC80A260BA30B4E0C4A0D076361
S11300804236B79BD8A71A39685618AEBAAB558C06
S11300901D3CB7CC5763BD6DEDFD753EF61772314F
S11300A0BF000000803F08000000BE922449123EB9
S11300B0ABAAAA2ABECDCCCC4C3E00000080BEAB7D
S11300C0AAAAAA3E00000000BF000000803F000072
S11300D0000000084178D3BB4387D1133D190E3C7F
S11300E0C3BD4282AD2B3E68EC8276BED98FE1A9B6
S11300F03E4C80EFFFBE01C4FF7F3F0000000000C4
S113010011241FBECFEFD8E0DEBFCDBF12E0A0E0C8
S1130110B1E0EEE6F2E302C005900D92AC30B10717
S1130120D9F722E0ACE0B2E001C01D92A137B207DA
S1130130E1F70E94BF080C9435190C940000CF938A
S1130140C82F0E94BB060E94C3068EE40E94C80604
S11301500E94C3068C2F0E94C8060E94C306CF913A
S11301600C94BF06CF93C0911402C82B8C2F0E940D
S11301709F008C2F84600E949F008AE08A95F1F78B
S113018000C08C2F8B7F0E949F008FE39FE101971B
S1130190F1F700C00000CF910895CF93C82F1092BB
S11301A0150210921402807F0E94B2008C2F829557
S11301B0807FCF910C94B200CF93C82F81E090E060
S11301C090931502809314028C2F807F0E94B200BA
S11301D08C2F8295807FCF910C94B200CF93DF93C4
S11301E0EC018991882319F00E94DC00FACFDF9199
S11301F0CF91089580E00E949F002FEF80E792E066
S1130200215080409040E1F700C000001092150298
S11302101092140280E30E94B2008FED9EE20197D7
S1130220F1F700C0000080E30E94B20080E30E9466
S1130230B20080E20E94B20088E20E94CD008FEDFD
S11302409EE20197F1F700C0000088E00E94CD0013
S11302508FED9EE20197F1F700C0000081E00E945B
S1130260CD008FED9EE20197F1F700C0000086E01B
S11302700E94CD008FED9EE20197F1F700C00000CF
S11302808CE00E94CD008FED9EE20197F1F700C053
S1130290000008959B0121503109FC01E60FF71F6E
S11302A0DC01AD01481B590B421753073CF44C9138
S11302B052915D93408321503109F3CF0895EF9219
S11302C0FF920F931F93CF93DF938B019A01FB014E
S11302D04AE0E42EF12CEF01C01BD10B009739F05A
S11302E0B7010E947E15805D8193CB01F4CFF801A4
S11302F0EC0FFD1F80E3C217D3071CF421968193F2
S1130300FACFBE01C8010E944A01F801EC0FFD1F9B
S11303101082CE01DF91CF911F910F91FF90EF904A
S113032008952F923F924F925F926F927F928F9295
S11303309F92AF92BF92CF92DF92EF92FF920F9370
S11303401F93CF93DF934B015C01EA0189010E9463
S11303508F126B017C0140E050E0BE01C6010E9497
S11303605F011C010115110509F445C0FE01E80FE8
S1130370F91F8EE28083B801012E000C880B990BC3
S11303800E94C7129B01AC0160E070E080E291E43E
S11303900E94E9132B013C01B601DD0C880B990B7B
S11303A00E94C7129B01AC01C501B4010E94AB11AC
S11303B02FEF221A320AC20DD31DA30192010E940B
S11303C07C130E948F12DC01CB01A801BE01DF91D6
S11303D0CF911F910F91FF90EF90DF90CF90BF903E
S11303E0AF909F908F907F906F905F904F903F90D1
S11303F02F900C945F01DF91CF911F910F91FF908B
S1130400EF90DF90CF90BF90AF909F908F907F90B0
S11304106F905F904F903F902F900895CF93DF930C
S1130420D82F0E94BB060E94C3068EEE0E94C80607
S11304300E94C3068D2F0E94C8060E94C3060E9414
S1130440BB060E94C3068FEE0E94C8060E94C30624
S113045080E00E94CE060E94C3060E94D606C82FE2
S11304600E94C3060E94BF060E94BB060E94C306E8
S11304708EEE0E94C8060E94C30681E08D0F0E9482
S1130480C8060E94C3060E94BB060E94C3068FEEE4
S11304900E94C8060E94C30680E00E94CE060E9405
S11304A0C3060E94D606D82F0E94C3060E94BF0628
S11304B08C2F90E0982F88278D0F911DDF91CF917D
S11304C00895CF93DF93D82FC62F0E94BB060E94B6
S11304D0C3068EEE0E94C8060E94C3068D2F0E949A
S11304E0C8060E94C3068C2F0E94C8060E94C30639
S11304F0DF91CF910C94BF060F931F93CF93DF939B
S1130500D82F0E94BB060E94C3068EEE0E94C80626
S11305100E94C30686EF0E94C8060E94C3060E947A
S1130520BB060E94C3068FEE0E94C8060E94C30643
S113053080E00E94CE060E94C3060E94D606C82F01
S11305400E94C3060E94BB060E94C3068EEE0E9450
S1130550C8060E94C30687EF0E94C8060E94C3060D
S11305600E94BB060E94C3068FEE0E94C8060E942A
S1130570C30680E00E94CE060E94C3060E94D606EF
S1130580082F0E94C3060E94BB060E94C3068EEE7B
S11305900E94C8060E94C30688EF0E94C8060E94F3
S11305A0C3060E94BB060E94C3068FEE0E94C806C3
S11305B00E94C30680E00E94CE060E94C3060E94E9
S11305C0D606182F0E94C3060E94BF068C2F90E007
S11305D0A0E0B0E0DC0199278827202F30E0322FFB
S11305E02227820F931FA11DB11D810F911DA11DF3
S11305F0B11D28E030E02D1B3109BC01CD0104C040
S113060095958795779567952A95D2F7DF91CF9140
S11306101F910F9108958AEA0E940E029093190285
S1130620809318028FEC97E00197F1F700C0000067
S11306308CEA0E940E0290932302809322028FEC94
S113064097E00197F1F700C000008EEA0E940E02C5
S113065090932502809324028FEC97E00197F1F7A1
S113066000C0000080EB0E940E0290931F02809352
S11306701E028FEC97E00197F1F700C0000082EBB7
S11306800E940E0290931D0280931C028FEC97E04F
S11306900197F1F700C0000084EB0E940E029093D2
S11306A01B0280931A028FEC97E00197F1F700C0C8
S11306B0000086EB0E940E02909329028093280288
S11306C08FEC97E00197F1F700C0000088EB0E94DF
S11306D00E0290932702809326028FEC97E00197F5
S11306E0F1F700C000008AEB0E940E0290932102F1
S11306F0809320028FEC97E00197F1F700C000008F
S11307008CEB0E940E0290932B0280932A028FECB2
S113071097E00197F1F700C000008EEB0E940E02F3
S113072090931702809316028FEC97E00197F1F7EC
S113073000C0000008956EE284EF0E94610287E128
S113074097E40197F1F700C0000086EF0E940E02C3
S1130750BC0180E090E008954F925F926F927F9287
S11307608F929F92AF92BF92CF92DF92EF92FF92BD
S11307700F931F93CF93DF9300D000D01F92CDB778
S1130780DEB78D830E949B036B017C016D816295B2
S1130790660F660F607C6C5C84EF0E9461022D81A1
S11307A0211105C08FE496E40197F1F71AC09D81E9
S11307B0913029F4AFE2B5E71197F1F712C0BD818A
S11307C0B23029F48FEE92ED0197F1F70AC09D81C2
S11307D0933049F4AFEBBEE321E0A150B040204098
S11307E0E1F700C000008D810E947C022B013C01D6
S11307F080911A0290911B02A7019601281B390BC4
S113080041095109A0911C02B0911D020E94D91501
S113081020E030E840E050E00E94B41549015A015C
S113082080912A0260E070E0782F770F770F770FBE
S1130830072E000C880B990B209116023091170299
S11308408901330F220B330BA9019801280D391D9F
S11308504A1D5B1D0E94B415820E931EA41EB51E74
S113086080EA881A8FE0980AA108B108A5019401CA
S1130870C501B4010E946E159B01AC016CE0559555
S11308804795379527956A95D1F7A0912602B0919F
S113089027020E94E415C12CE8E0DE2EE12CF12CA5
S11308A0A70196010E94B41529833A834B835C8384
S11308B0A0912202B0912302A50194010E94E415A3
S11308C0A70196010E94B415C980DA80EB80FC80F0
S11308D0C20ED31EE41EF51EA0911E02B0911F028B
S11308E0A701960130584F4F5F4F0E94D9154B0115
S11308F05C01FFE0B694A79497948794FA95D1F796
S11309006091180270911902660F771F660F771FA6
S1130910CB01770FAA0BBB0B8C0D9D1DAE1DBF1D0C
S11309200D8004C0880F991FAA1FBB1F0A94D2F719
S1130930BC01CD016E5F7F4F8F4F9F4F24E030E0AD
S113094040E050E00E94B415D301C201821B930B16
S1130950A40BB50B9C01AD0180E593ECA0E0B0E0E5
S1130960BC01CD010D8004C0959587957795679559
S11309700A94D2F70E946E1597FD0BC0660F771F7D
S1130980881F991FA50194010E94921549015A01DB
S11309900AC0A50194010E94921549015A01880CCC
S11309A0991CAA1CBB1CC501B40120E031E040E045
S11309B050E00E94B415CA01B9010E946E159B0152
S11309C0AC01AEEDBBE00E94D9156B017C01A3E440
S11309D0B3EEA50194010E94E71520E030E041E068
S11309E050E00E94B4156701FF24D7FCF094EF2C6B
S11309F0DA01C9018C0D9D1DAE1DBF1DBC01CD01C9
S1130A006153714F8F4F9F4F20E130E040E050E041
S1130A100E94B415C501B401620F731F841F951F92
S1130A200F900F900F900F900F90DF91CF911F9127
S1130A300F91FF90EF90DF90CF90BF90AF909F9079
S1130A408F907F906F905F904F9008950E94C7128F
S1130A5020E033E743ED57E40E941D1221E03EED10
S1130A6042E45EE30E94E9139B01AC0160E070E0A4
S1130A7080E89FE30E94AB1120E03AE24DE257E4A4
S1130A800E947C1308952FEF87EA91E6215080405D
S1130A909040E1F700C0000010922C020895AF923C
S1130AA0BF92CF92DF92EF92FF920F931F93CF9357
S1130AB0DF9300D000D01F92CDB7DEB7FE01319690
S1130AC025E0DF011D922A95E9F710922C02419846
S1130AD0399ABFEF29EF30E0B15020403040E1F7C0
S1130AE000C00000419A39982FE1319B09C04AE0C7
S1130AF04A95F1F700C02150C1F724E020932C025D
S1130B0020912C02211118C023E3319909C05AE025
S1130B105A95F1F700C02150C1F724E020932C022C
S1130B2023E3319B09C0AAE0AA95F1F700C0215044
S1130B30C1F724E020932C0220912C02211141C002
S1130B4030E0C12CD12C7601C39444E0A42E27E0DC
S1130B5044E231990AC0BAE0BA95F1F700C04150B5
S1130B60C1F7A0922C022FEF35E040912C024111E5
S1130B7022C04AEB4A95F1F700C0319B11C08F01A6
S1130B80030F111DD801BC90B701A601022E04C0A9
S1130B90440F551F661F771F0A94D2F74B294C93B5
S1130BA043E3319B08C0BAE0BA95F1F700C0415065
S1130BB0C1F7A0922C02215027FFCACF3F5F3530E6
S1130BC030F220912C02211116C039812A81230F81
S1130BD03B81230F3C81230F3D81231721F083E0C8
S1130BE080932C0208C0DC01CE01059621912D933F
S1130BF0E817F907D9F70F900F900F900F900F9007
S1130C00DF91CF911F910F91FF90EF90DF90CF90E4
S1130C10BF90AF9008958F929F92AF92BF92CF9260
S1130C20DF92EF92FF920F931F93CF93DF9300D045
S1130C3000D0CDB7DEB78C017B0119821A821B82EA
S1130C401C82CE0101960E944F0580912C028111D5
S1130C5072C08C816B817C817627672776279B8184
S1130C6097FF0FC09F77682F70E0792B072E000C39
S1130C70880B990B0E94C71220E030E040E251EC4F
S1130C800AC0072E000C880B990B0E94C71220E0A3
S1130C9030E040E251E40E941D12F8016083718348
S1130CA08283938369817A81762767277627072E43
S1130CB0000C880B990B0E94C71220E030E040E240
S1130CC051E40E941D124B015C01F70160837183A2
S1130CD082839383F801C080D180E280F38020E096
S1130CE030E040E252ECC701B6010E94181287FDC1
S1130CF00AC020E030E040EA52E4C701B6010E9495
S1130D007713181614F482E014C020E030E0A9012F
S1130D10C501B4010E94181287FD0AC020E030E02A
S1130D2048EC52E4C501B4010E94771318161CF470
S1130D3081E080932C020F900F900F900F90DF9121
S1130D40CF911F910F91FF90EF90DF90CF90BF90C4
S1130D50AF909F908F9008958CE08093B800E9EB5A
S1130D60F0E080818C7F80838FEF8093BB0084E0F0
S1130D708093BC00089584EA8093BC00089584E9BC
S1130D808093BC0008958091BC0087FFFCCF089538
S1130D908093BB0084E88093BC000895882311F0FD
S1130DA084EC01C084E88093BC0008958091BB006A
S1130DB00895CF93DF93EC010E94BB060E94C30603
S1130DC080ED0E94C8060E94C30680E00E94C80607
S1130DD00E94C3060E94BF060E94BB060E94C3066F
S1130DE081ED0E94C8060E94C30681E00E94CE06DF
S1130DF00E94C3060E94D606888381E00E94CE0624
S1130E000E94C3060E94D606898381E00E94CE0612
S1130E100E94C3060E94D6068A8381E00E94CE0601
S1130E200E94C3060E94D6068B8381E00E94CE06F0
S1130E300E94C3060E94D6068C8381E00E94CE06DF
S1130E400E94C3060E94D6068D8380E00E94CE06CF
S1130E500E94C3060E94D6068E830E94C306DF91B9
S1130E60CF910C94BF06ECE7F0E08081806480832E
S1130E70EEE7F0E0808181608083EAE7F0E0808142
S1130E8087688083808180648083089580917A005C
S1130E90806480937A0080917A0086FDFCCF8091F3
S1130EA0780090917900089584B1887F84B985B1E0
S1130EB0876085B9EBE6F0E0808187608083E8E6AF
S1130EC0F0E080818160808308958F929F92AF9239
S1130ED0BF92CF92DF92EF92FF9220E030E048EC95
S1130EE052E460914E0270914F02809150029091B1
S1130EF051020E941D1220E030E040E05EE30E94B7
S1130F00E9134B015C01C0904902D0904A02E09081
S1130F104B02F0904C0226E636E646E65FE3C70154
S1130F20B6010E947C1320E030E040EE52E40E94BF
S1130F30AC11A50194010E947C134B015C012DECC2
S1130F403CEC4CEC5DE3C701B6010E947C139B01B1
S1130F50AC01C501B4010E94AC1120E030E04CEDBD
S1130F6052E40E94AB11FF90EF90DF90CF90BF90BE
S1130F70AF909F908F9008950097C1F480916B007B
S1130F808E7F80936B002FEF89EF90E0215080409B
S1130F909040E1F700C00000189904C080916B00F4
S1130FA0816034C080916B00816037C081309105CD
S1130FB0C1F480916B008D7F80936B002FEF89EFDC
S1130FC090E0215080409040E1F700C00000199962
S1130FD004C080916B00826019C080916B008260B4
S1130FE01CC00297F9F480916B008B7F80936B0097
S1130FF02FEF89EF90E0215080409040E1F700C04E
S113100000001A9907C080916B00846080936B0084
S113101081E006C080916B00846080936B0080E067
S113102090E0089508951F920F920FB60F92112425
S11310302F933F934F935F936F937F938F939F93DC
S1131040AF93BF93EF93FF9318990FC080E090E0A4
S11310500E94BC07892B21F081E080934D0202C0DD
S113106010924D02109265021DC019990EC081E0C4
S113107090E00E94BC07892B99F310924D021092C4
S1131080650281E0809366020FC01A990DC082E068
S113109090E00E94BC07892B19F310924D0281E065
S11310A08093650210926602FF91EF91BF91AF9118
S11310B09F918F917F916F915F914F913F912F916C
S11310C00F900FBE0F901F901895E1E8F0E080811B
S11310D08C60808381E19AE790938B0080938A00EF
S11310E083E294EF9093890080938800EFE6F0E028
S11310F08081866080830895CF93DF930E94BB062E
S11311000E94C30680E90E94C8060E94C30680E0CC
S11311100E94C8060E94C3060E94BB060E94C30622
S113112081E90E94C8060E94C30681E00E94CE069F
S11311300E94C3060E94D606D82F0E94C30680E0F0
S11311400E94CE060E94C3060E94D606C82F0E94A3
S1131150C3060E94BF061092BC008C2F90E09D2B0A
S113116034E0959587953A95E1F797FD0F9624E03D
S1131170959587952A95E1F7DF91CF910895CF93BF
S1131180DF93CDB7DEB7C454D1090FB6F894DEBFF0
S11311900FBECDBF0E9454070E94AC060E94FA0005
S11311A00E9433070E940B030E94430585E0E8E098
S11311B0F1E0DE01A05CBF4F01900D928A95E1F74A
S11311C021964FAD219722965FAD229723966FAD5E
S11311D0239724967FAD249725968FAD25970E945B
S11311E041118EE592E00E94D90678948DE091E059
S11311F00E94EE0080EC0E94CD0088E191E00E9404
S1131200EE002FEF8BE792E9215080409040E1F708
S113121000C0000081E00E94CD0088E291E00E94BD
S1131220EE0080EC0E94CD0086E391E00E94EE0087
S11312300E94650810E083E2E82E84EFF82E9CE912
S1131240A92E91E0B92E6E012AE1C20ED11C812F84
S113125090E0FC018B309105E0F7EC5CFF4F0C94BF
S1131260D31580914D02882391F381E00E94CD0033
S11312708EE391E00E94EE008FEF97EA21E6815021
S113128090402040E1F700C0000081E00E94CD00C2
S113129089E491E00E94EE0080EC0E94CD008AE592
S11312A091E00E94EE0010924D021092660210929C
S11312B0650211E0CCCF80914D02882341F249C4EC
S11312C08091660281114BC380916502882319F0D5
S11312D0109213027DC080910C02882309F4B7CFC9
S11312E06091490270914A0280914B0290914C02A4
S11312F06093520270935302809354029093550268
S113130021E030E0AE01465C5F4F0E94910181E034
S11313100E94CD0086E991E00E94EE00CE01CA96BB
S11313200E94EE008FED0E94DC0082E791E00E94B3
S1131330EE004AE0BE01605F7F4F80912D029091E4
S11313402E020E94161680EC0E94CD0084E791E0E4
S11313500E94EE00CE01409695C3809166028823D8
S113136019F010921102F5C380916502882319F0D7
S113137010921102A6C080910C02882309F467CF51
S113138060914E0270914F028091500290915102EF
S113139060935602709357028093580290935902B7
S11313A021E030E0AE014C5C5F4F0E94910181E08E
S11313B00E94CD008DE891E00E94EE00CE01C4961B
S11313C067C480916602882309F441C01092120216
S11313D010928900109288006EE472E089E492E031
S11313E00E940B0660914E0270914F028091500250
S11313F09091510260935602709357028093580261
S11314009093590221E030E0AE014C5C5F4F0E94A2
S1131410910181E00E94CD008DE891E00E94EE00F0
S1131420CE01C4960E94EE0084E891E00E94EE0092
S1131430F0928900E092880081E08093110210927A
S11314404D02109266021092650213E000CF809163
S11314506502882319F010921202A1C080910C0237
S1131460882309F4F4CE80916C028F9380916B02EF
S11314708F9380916A028F93809169028F93BF92B8
S1131480AF92DF92CF920E943B1681E00E94CD0082
S113149080EA91E00E94EE00C6010E94EE0089EA13
S11314A091E00E94EE0010920C020FB6F894DEBF99
S11314B00FBECDBFCCCE809166028823E9F1109295
S11314C01002109289001092880081E00E94AC03FF
S11314D06093690270936A0280936B0290936C022A
S11314E09F938F937F936F93BF92AF92DF92CF922C
S11314F00E943B1681E00E94CD0080EA91E00E94A8
S1131500EE00C6010E94EE0089EA91E00E94EE001E
S1131510F0928900E092880081E080931202109298
S11315204D0210926602109265020FB6F894DEBF67
S11315300FBECDBF14E08BCE80916502882319F0D5
S1131540109210028AC080910C02882309F47FCE85
S11315506091450270914602809147029091480241
S113156021E030E0AE014F5F5F4F0E94910181E0C6
S11315700E94CD008CEA91E00E94EE00CE0101961B
S11315800E94EE0080EC0E94CD0085EB91E084C3C4
S113159080916602882309F443C010920F021092CE
S11315A089001092880081E00E94AC036093690274
S11315B070936A0280936B0290936C020E942605DA
S11315C060934502709346028093470290934802C9
S11315D021E030E0AE014F5F5F4F0E94910181E056
S11315E00E94CD008CEA91E00E94EE00CE010196AB
S11315F00E94EE0080EC0E94CD0085EB91E00E94F9
S1131600EE00F0928900E092880081E0809310025D
S113161010924D02109266021092650215E017CEE8
S113162080916502882319F010920F0293C0809173
S11316300C02882309F40BCE81E00E94CD0085EDD5
S113164091E00E94EE0086E392E026C38091660258
S1131650882309F440C010920E021092890010925F
S113166088000E94460790933502809334028C329E
S113167021E092071CF469EB71E00FC0843F21E084
S113168092071CF460EC71E008C0803293401CF4B3
S113169066EC71E002C06BEC71E086E392E00E94BC
S11316A00F1681E00E94CD0085ED91E00E94EE00CE
S11316B086E392E00E94EE00F0928900E0928800B6
S11316C081E080930F0210924D02109266021092F4
S11316D0650216E0BCCD80916502882361F010920A
S11316E00E02109289001092880081E00E94CD00C1
S11316F087EE91E01EC180910C02882309F4A7CDE6
S113170020914E0230914F0240915002509151026B
S11317106091490270914A0280914B0290914C026F
S11317200E94650721E030E0AE01425D5F4F0E94F8
S1131730910181E00E94CD008DED91E00E94EE00C8
S1131740CE018E969FC180916602882309F446C01B
S113175010920D0210928900109288006EE472E0DB
S113176089E492E00E940B0620914E0230914F02D0
S113177040915002509151026091490270914A0285
S113178080914B0290914C020E94650721E030E069
S1131790AE01425D5F4F0E94910181E00E94CD0045
S11317A08DED91E00E94EE00CE018E960E94EE0037
S11317B08FED0E94DC0082E791E00E94EE00F0923F
S11317C08900E092880081E080930E0210924D021D
S11317D0109266021092650217E039CD809165027D
S11317E0882309F450C010920D02109289001092BF
S11317F0880060915A0270915B0280915C02909122
S11318005D0221E030E0AE01465C5F4F0E94910131
S11318106091040170910501809106019091070186
S113182021E030E0AE01485D5F4F0E94910181E00C
S11318300E94CD0082EF91E00E94EE00CE01CA9694
S11318400E94EE008FED0E94DC0082E791E00E948E
S1131850EE0080EC0E94CD0089EF91E00E94EE0042
S1131860CE0188960E94EE008FED0E94DC0082E794
S113187091E00E94EE00F0928900E092880081E0FD
S11318808093130259C180910C02882309F4DFCCA0
S113189081E00E94CD0080E092E0FEC1809166026A
S11318A0882309F457C010921302109289001092F1
S11318B0880060915A0270915B0280915C02909161
S11318C05D0221E030E0AE01465C5F4F0E94910171
S11318D060910401709105018091060190910701C6
S11318E021E030E0AE01485D5F4F0E94910181E04C
S11318F00E94CD0082EF91E00E94EE00CE01CA96D4
S11319000E94EE008FED0E94DC0082E791E00E94CD
S1131910EE0080EC0E94CD0089EF91E00E94EE0081
S1131920CE0188960E94EE008FED0E94DC0082E7D3
S113193091E00E94EE00F0928900E092880081E03C
S113194080930D0210924D0210926602109265026D
S113195018E07DCC80916502882309F455C010926B
S11319608900109288006EE472E089E492E00E949B
S11319700B0660912F027091300280913102909198
S1131980320221E030E0AE014C5C5F4F0E949101D5
S11319906091000170910101809102019091030115
S11319A021E030E0AE014E5D5F4F0E94910181E085
S11319B00E94CD008DE791E00E94EE00CE01C49616
S11319C00E94EE0084E891E00E94EE0080EC0E9408
S11319D0CD0086E891E00E94EE00CE0182960E943E
S11319E0EE0084E891E00E94EE00F0928900E0921B
S11319F0880081E08093130210924D0210926602D7
S1131A00109265021AE023CC80910C02882309F419
S1131A101ECC60915A0270915B0280915C0290919D
S1131A205D0221E030E0AE01465C5F4F0E9491010F
S1131A306091040170910501809106019091070164
S1131A4021E030E0AE01485D5F4F0E94910181E0EA
S1131A500E94CD0082EF91E00E94EE00CE01CA9672
S1131A600E94EE008FED0E94DC0082E791E00E946C
S1131A70EE0080EC0E94CD0089EF91E00E94EE0020
S1131A80CE0188960E94EE008FED0E94DC0082E772
S1131A9091E002C180916602882309F455C081E077
S1131AA080931302109289001092880060915A0268
S1131AB070915B0280915C0290915D0221E030E0C4
S1131AC0AE01465C5F4F0E949101609104017091E8
S1131AD00501809106019091070121E030E0AE01FB
S1131AE0485D5F4F0E94910181E00E94CD0082EF2A
S1131AF091E00E94EE00CE01CA960E94EE008FEDA6
S1131B000E94DC0082E791E00E94EE0080EC0E94DB
S1131B10CD0089EF91E00E94EE00CE0188960E94EC
S1131B20EE008FED0E94DC0082E791E00E94EE005F
S1131B30F0928900E092880010924D0210926602A1
S1131B401092650219E083CB80916502882309F421
S1131B5064C010928900109288006EE472E089E4F7
S1131B6092E00E940B060E947C0890932E028093C0
S1131B702D026091490270914A0280914B0290912A
S1131B804C026093520270935302809354029093D8
S1131B90550221E030E0AE01465C5F4F0E949101A6
S1131BA04AE0BE01605F7F4F80912D0290912E022A
S1131BB00E94161681E00E94CD0089E691E00E9401
S1131BC0EE00CE01CA960E94EE008FED0E94DC006A
S1131BD082E791E00E94EE0080EC0E94CD0084E751
S1131BE091E00E94EE00CE0140960E94EE008FED3F
S1131BF00E94DC0082E791E00E94EE00F0928900EE
S1131C00E092880081E08093130210924D021092BA
S1131C1066021092650212E01ACB80910C028823AE
S1131C2009F415CB60912F0270913002809131023A
S1131C309091320221E030E0AE014C5C5F4F0E9493
S1131C4091016091000170910101809102019091D4
S1131C50030121E030E0AE014E5D5F4F0E9491012F
S1131C6081E00E94CD008DE791E00E94EE00CE015C
S1131C70C4960E94EE0084E891E00E94EE0080EC9D
S1131C800E94CD0086E891E00E94EE00CE0182968B
S1131C900E94EE0084E891E00E94EE0010920C0293
S1131CA0D6CA1F920F920FB60F9211244F925F92D1
S1131CB06F927F928F929F92AF92BF92CF92DF9258
S1131CC0EF92FF920F931F932F933F934F935F9342
S1131CD06F937F938F939F93AF93BF93EF93FF93F0
S1131CE0CF93DF93CDB7DEB72897DEBFCDBF6EE4C9
S1131CF072E089E492E00E940B060E947C089093B3
S1131D002E0280932D0281E00E94AC03609369024D
S1131D1070936A0280936B0290936C020E94260572
S1131D206093450270934602809347029093480261
S1131D300E9446078C019093350280933402C09030
S1131D404E02D0904F02E0905002F09051028090E9
S1131D50490290904A02A0904B02B0904C02A70115
S1131D609601C501B4010E94650769837A838B8358
S1131D709C830C3281E018071CF469EB71E00FC0FE
S1131D80043F91E019071CF460EC71E008C00032D4
S1131D9013401CF466EC71E002C06BEC71E086E366
S1131DA092E00E940F168092520290925302A092E7
S1131DB05402B0925502C0925602D0925702E09259
S1131DC05802F092590220E030E040E251E4609180
S1131DD045027091460280914702909148020E9408
S1131DE07C136B017C0120E030E04AE754E40E945C
S1131DF01D120E948F124B015C0120E030E048EC80
S1131E0052E4C701B6010E941D122B013C011AE0E5
S1131E10189DB001199D700D1124072E000C880B1C
S1131E20990B0E94C7129B01AC01C301B2010E942D
S1131E30AB110E948F126D837E838F83988720E07D
S1131E4030E040E251E4C701B6010E941D122B01AB
S1131E503C0104E6089DB001099D700D1124072E74
S1131E60000C880B990B0E94C7129B01AC01C301A3
S1131E70B2010E94AB112B013C018D819E81189F00
S1131E80B001199F700D1124072E000C880B990BBB
S1131E900E94C7129B01AC01C301B2010E94AB11A5
S1131EA00E948F122B013C01CE010596909368028B
S1131EB08093670281E080930C02882D0E94A41114
S1131EC08D810E94A411842D0E94A41188EE93E0B8
S1131ED0889DB001899D700D989D700D1124072E69
S1131EE0000C880B990B0E94C7129B01AC01C7011F
S1131EF0B6010E94AB116B017C018D819E81089F0C
S1131F00B001099F700D1124072E000C880B990B4A
S1131F100E94C7129B01AC01C701B6010E94AB111C
S1131F206B017C01149DB001159D700D1124072EC9
S1131F30000C880B990B0E94C7129B01AC01C701CE
S1131F40B6010E94AB110E948F12862F0E94A41129
S1131F5028960FB6F894DEBF0FBECDBFDF91CF91A8
S1131F60FF91EF91BF91AF919F918F917F916F916D
S1131F705F914F913F912F911F910F91FF90EF909F
S1131F80DF90CF90BF90AF909F908F907F906F9095
S1131F905F904F900F900FBE0F901F901895CF92A7
S1131FA0DF92EF92FF92FC01C080D180E280F38047
S1131FB0672BB9F020912F02309130024091310209
S1131FC050913202C701B6010E9477131816FCF42F
S1131FD0C0922F02D0923002E0923102F09232028B
S1131FE016C020915A0230915B0240915C025091DC
S1131FF05D02C701B6010E947713181644F4C0921B
S11320005A02D0925B02E0925C02F0925D02FF9071
S1132010EF90DF90CF900895CF92DF92EF92FF92EE
S1132020FC01C080D180E280F380672BB9F020915D
S11320300001309101014091020150910301C70157
S1132040B6010E94181287FF1FC0C0920001D092EF
S11320500101E0920201F092030116C020910401F3
S1132060309105014091060150910701C701B60165
S11320700E94181287FF08C0C0920401D092050183
S1132080E0920601F0920701FF90EF90DF90CF906D
S113209008951F920F920FB60F921124CF92DF92E0
S11320A0EF92FF922F933F934F935F936F937F939E
S11320B08F939F93AF93BF93EF93FF93209113025A
S11320C08091110290910E02822B19F4992309F444
S11320D074C06EE472E089E492E00E940B06809181
S11320E0490290914A02A0914B02B0914C02809314
S11320F0520290935302A0935402B09355028091DC
S11321004E0290914F02A0915002B09151028093DF
S1132110560290935702A0935802B093590260E07C
S113212070E082E592E00E94CF0FC0905602D090FA
S11321305702E0905802F090590220912F023091FA
S113214030024091310250913202C701B6010E941F
S11321507713181644F4C0922F02D0923002E09202
S11321603102F092320260E070E082E592E00E9477
S11321700C10C0905602D0905702E0905802F09094
S113218059022091000130910101409102015091C6
S11321900301C701B6010E94181287FF08C0C0924C
S11321A00001D0920101E0920201F09203010E9429
S11321B07C0890932E0280932D0280911202882332
S11321C059F081E00E94AC036093690270936A0243
S11321D080936B0290936C02809110028823A9F083
S11321E081E00E94AC036093690270936A02809359
S11321F06B0290936C020E942605609345027093D3
S11322004602809347029093480280910F028823EC
S113221001F10E94460790933502809334028C3278
S113222021E092071CF469EB71E00FC0843F21E0C8
S113223092071CF460EC71E008C0803293401CF4F7
S113224066EC71E002C06BEC71E086E392E00E9400
S11322500F1681E080930C02FF91EF91BF91AF9133
S11322609F918F917F916F915F914F913F912F91AA
S1132270FF90EF90DF90CF900F900FBE0F901F90C4
S113228018951F93CF93DF9300D000D01F92CDB742
S1132290DEB749835A83162F6B837C838D83298110
S11322A03A8140E050E060E472E48FE090E00E9404
S11322B09215215031093093700220936F0288E007
S11322C090E09093C5008093C40088E18093C1009E
S11322D0812F90E0193010F0029701C005972091EA
S11322E06D0230916E02822B932B90936E02809339
S11322F06D022091C200880F991F822B8093C20027
S11323002091C2009D81892F90E0019743E0880FBE
S1132310991F4A95E1F7822B8093C2008C81853402
S113232021F08F3439F480E303C08091C2008062CD
S11323308093C20080E00F900F900F900F900F9049
S1132340DF91CF911F9108959091C00095FFFCCF2C
S11323508093C60008955058BB27AA270E94C31132
S11323600C943D130E942F1338F00E94361320F072
S113237039F49F3F19F426F40C942C130EF4E095D1
S1132380E7FB0C942613E92F0E944E1358F3BA1757
S1132390620773078407950720F079F4A6F50C9477
S11323A070130EF4E0950B2EBA2FA02D0B01B9017A
S11323B090010C01CA01A0011124FF27591B99F0B7
S11323C0593F50F4503E68F11A16F040A22F232FC3
S11323D0342F4427585FF3CF469537952795A79513
S11323E0F0405395C9F77EF41F16BA0B620B730BBA
S11323F0840BBAF09150A1F0FF0FBB1F661F771F2B
S1132400881FC2F70EC0BA0F621F731F841F48F4DF
S1132410879577956795B795F7959E3F08F0B0CF68
S11324209395880F08F09927EE0F9795879508954F
S11324300E94021308F481E008950E9431120C9462
S11324403D130E94361358F00E942F1340F029F4D4
S11324505F3F29F00C94261351110C9471130C94C2
S11324602C130E944E1368F39923B1F3552391F36F
S1132470951B550BBB27AA2762177307840738F0EF
S11324809F5F5F4F220F331F441FAA1FA9F335D04C
S11324900E2E3AF0E0E832D091505040E695001C00
S11324A0CAF72BD0FE2F29D0660F771F881FBB1FBA
S11324B0261737074807AB07B0E809F0BB0B802D98
S11324C0BF01FF2793585F4F3AF09E3F510578F0C4
S11324D00C9426130C9471135F3FE4F3983ED4F3E9
S11324E0869577956795B795F7959F5FC9F7880F98
S11324F0911D9695879597F90895E1E0660F771FEA
S1132500881FBB1F621773078407BA0720F0621B7A
S1132510730B840BBA0BEE1F88F7E09508950E94A5
S113252096126894B1110C94711308950E94561375
S113253088F09F5798F0B92F9927B751B0F0E1F080
S1132540660F771F881F991F1AF0BA95C9F714C030
S1132550B13091F00E947013B1E008950C9470139F
S1132560672F782F8827B85F39F0B93FCCF3869569
S113257077956795B395D9F73EF4909580957095C6
S113258061957F4F8F4F9F4F0895E89409C097FB43
S11325903EF490958095709561957F4F8F4F9F4F36
S11325A09923A9F0F92F96E9BB279395F69587957A
S11325B077956795B795F111F8CFFAF4BB0F11F43D
S11325C060FF1BC06F5F7F4F8F4F9F4F16C08823E4
S11325D011F096E911C0772321F09EE8872F762F1A
S11325E005C0662371F096E8862F70E060E02AF05B
S11325F09A95660F771F881FDAF7880F9695879547
S113260097F90895990F0008550FAA0BE0E8FEEF1B
S113261016161706E807F907C0F012161306E407A2
S1132620F50798F0621B730B840B950B39F40A269B
S113263061F0232B242B252B21F408950A2609F479
S1132640A140A6958FEF811D811D089597F99F677D
S113265080E870E060E008959FEF80EC0895002426
S11326600A941616170618060906089500240A94F3
S113267012161306140605060895092E0394000C79
S113268011F4882352F0BB0F40F4BF2B11F460FF08
S113269004C06F5F7F4F8F4F9F4F089557FD905831
S11326A0440F551F59F05F3F71F04795880F97FB12
S11326B0991F61F09F3F79F08795089512161306CC
S11326C01406551FF2CF4695F1DF08C016161706FB
S11326D01806991FF1CF8695710561050894089530
S11326E0E894BB2766277727CB0197F908950E94C2
S11326F0021308F48FEF08950E948F130C943D1376
S11327000E942F1338F00E94361320F0952311F005
S11327100C9426130C942C1311240C9471130E9402
S11327204E1370F3959FC1F3950F50E0551F629FB0
S1132730F001729FBB27F00DB11D639FAA27F00D16
S1132740B11DAA1F649F6627B00DA11D661F829F3D
S11327502227B00DA11D621F739FB00DA11D621F22
S1132760839FA00D611D221F749F3327A00D611D3F
S1132770231F849F600D211D822F762F6A2F112421
S11327809F5750409AF0F1F088234AF0EE0FFF1F54
S1132790BB1F661F771F881F91505040A9F79E3FAB
S11327A0510580F00C9426130C9471135F3FE4F3ED
S11327B0983ED4F3869577956795B795F795E79501
S11327C09F5FC1F7FE2B880F911D9695879597F90A
S11327D00895FA01EE0FFF1F309621053105A1F18E
S11327E06115710561F48038BFE39B0749F1689472
S11327F09038810561F08038BFEF9B0741F0992341
S11328004AF5FF3FE1053105210519F1E8940894E3
S1132810E795D901AA2329F4AB2FBE2FF85FD0F393
S113282010C0FF5F70F4A695E0F7F73950F019F087
S1132830FF3A38F49F779F930DD00F9007FC905880
S1132840089546F00C942C1360E070E080E89FE358
S113285008954FE79F775F934F933F932F930E9481
S1132860E4142F913F914F915F910E947C130C943B
S1132870411429F416F00C9426130C9470130C9440
S11328802C130E945613A8F39638A0F707F80F925A
S1132890E8942BE33AEA48EB5FE70E9492130F9225
S11328A00F920F924DB75EB70F920E942C15EEE770
S11328B0F0E00E9473144F915F91EF91FF91E595C1
S11328C0EE1FFF1F49F0FE57E0684427EE0F441F38
S11328D0FA95E1F74195550B0E94A6140F9007FE57
S11328E00C949A140895DF93CF931F930F93FF9240
S11328F0EF92DF927B018C01689406C0DA2EEF011F
S11329000E948F13FE01E894A5912591359145917C
S11329105591A6F3EF010E94C311FE019701A8018E
S1132920DA9469F7DF90EF90FF900F911F91CF91A8
S1132930DF9108959B01AC0160E070E080E89FE3C3
S11329400C941D120C9426130C9460150E945613BB
S1132950D8F39923C9F3940F511DA3F39150504018
S113296094F059F0882332F0660F771F881F915036
S11329705040C1F79E3F51052CF7880F911D969545
S1132980879597F908955F3FACF0983E9CF0BB277C
S1132990869577956795B79508F4B1609395C1F7D7
S11329A0BB0F58F711F460FFE8CF6F5F7F4F8F4F75
S11329B09F4FE3CF0C94711316F00C9460150C9494
S11329C02C1368940C9426130E945613A8F399238D
S11329D0C1F3AEF3DF93CF931F930F93FF92C92FED
S11329E0DD2788232AF02197660F771F881FDAF7DF
S11329F020E030E040E85FEB9FE3883920F0803E40
S1132A0038F021968F770E94AC11E6EAF0E004C01A
S1132A100E94AC11E3EDF0E00E9473148B01BE013F
S1132A20EC01FB2E6F5771097595771F880B990B75
S1132A300E94C71228E132E741E35FE30E948F134B
S1132A40AF2D9801AE01FF900F911F91CF91DF91AF
S1132A500E94C3110C943D13FA01DC01AA0FBB1FA1
S1132A609B01AC01BF5728F4222733274427507811
S1132A7020C0B75190F4AB2F002446953795279585
S1132A80011CA395D2F3002071F0220F331F441FC1
S1132A90B395DAF30ED00C94AB1161307105A0E854
S1132AA08A07B94630F49B01AC016627772788274B
S1132AB09078309621F020833183428353830895A4
S1132AC09F3F31F0915020F4879577956795B7959E
S1132AD0880F911D9695879597F90895DB018F933B
S1132AE09F930E94D915BF91AF91A29F800D911D14
S1132AF0A39F900DB29F900D1124089597FB072E6C
S1132B0016F4009407D077FD09D00E94EC1507FC59
S1132B1005D03EF4909581959F4F089570956195E9
S1132B207F4F0895A1E21A2EAA1BBB1BFD010DC005
S1132B30AA1FBB1FEE1FFF1FA217B307E407F50769
S1132B4020F0A21BB30BE40BF50B661F771F881F45
S1132B50991F1A9469F760957095809590959B01DB
S1132B60AC01BD01CF010895052E97FB1EF400941E
S1132B700E94CB1557FD07D00E94921507FC03D085
S1132B804EF40C94CB1550954095309521953F4FBC
S1132B904F4F5F4F089590958095709561957F4F45
S1132BA08F4F9F4F0895EE0FFF1F0590F491E02D76
S1132BB009940E940016A59F900DB49F900DA49FA8
S1132BC0800D911D11240895B7FF0C94D9150E940E
S1132BD0D915821B930B0895AA1BBB1B51E107C097
S1132BE0AA1FBB1FA617B70710F0A61BB70B881F99
S1132BF0991F5A95A9F780959095BC01CD01089528
S1132C00A29FB001B39FC001A39F700D811D112429
S1132C10911DB29F700D811D1124911D0895FB011A
S1132C20DC0101900D920020E1F70895BB274A30A2
S1132C3031F4992322F4BDE2909581959F4F0C9431
S1132C402216BB27FB015527AA27880F991FAA1F05
S1132C50A41710F0A41B83955051B9F7A05DAA33B3
S1132C6008F0A95DA193009779F7B111B19311927E
S1132C70CB010C945418AEE0B0E0E1E4F6E10C941E
S1132C800C190D891E8986E08C831A8309838FEFC2
S1132C909FE79E838D83AE01475E5F4F6F89788D7A
S1132CA0CE0101960E945D16EF81F885E00FF11FB9
S1132CB010822E96E4E00C942819ABE0B0E0E3E631
S1132CC0F6E10C94FE186C017B018A01FC01178269
S1132CD01682838181FFCCC1CE0101963C01F601AD
S1132CE09381F70193FD859193FF81917F0188235F
S1132CF009F4BAC1853239F493FD859193FF81912A
S1132D007F01853229F4B60190E00E946418E7CF70
S1132D10912C212C312CFFE1F315D8F08B3279F072
S1132D2038F4803279F08332A1F4232D20611DC060
S1132D308D3261F0803369F4232D216016C0832D18
S1132D408260382EE32DE4603E2E2AC0F32DF86015
S1132D501DC037FC2DC020ED280F2A3040F08E32E4
S1132D60B9F436FC81C1232D2064322E19C036FEFD
S1132D7006C08AE0989E200D1124922E11C0EAE02C
S1132D802E9E200D1124222EF32DF0623F2E08C01A
S1132D908C3621F4832D8068382E02C0883641F4A5
S1132DA0F70193FD859193FF81917F018111B3CF49
S1132DB0982F9F7D9554933028F40C5F1F4F9FE309
S1132DC099830DC0833631F0833771F0833509F070
S1132DD059C021C0F801808189830E5F1F4F882468
S1132DE08394912C530113C02801F2E04F0E511C1F
S1132DF0F801A080B18036FE03C0692D70E002C0E6
S1132E006FEF7FEFC5010E9449184C018201F32D39
S1132E10FF773F2E16C0280122E0420E511CF80114
S1132E20A080B18036FE03C0692D70E002C06FEF50
S1132E307FEFC5010E943E184C01F32DF0683F2E30
S1132E40820133FC1BC0822D90E088169906B0F4F1
S1132E50B60180E290E00E9464182A94F4CFF50150
S1132E6037FC859137FE81915F01B60190E00E94A5
S1132E70641821102A9421E0821A91088114910483
S1132E8071F7E8C0843611F0893641F5F80137FE50
S1132E9007C060817181828193810C5F1F4F08C0DC
S1132EA060817181072E000C880B990B0E5F1F4FF8
S1132EB0F32DFF763F2E97FF09C09095809570956E
S1132EC061957F4F8F4F9F4FF0683F2E2AE030E08F
S1132ED0A3010E94A018882E861845C0853731F4B6
S1132EE0232D2F7EB22E2AE030E025C0932D997F2A
S1132EF0B92E8F36C1F018F4883579F0B5C0803713
S1132F0019F0883721F0B0C0E92FE061BE2EB4FE7D
S1132F100DC0FB2DF460BF2E09C034FE0AC0292F5A
S1132F202660B22E06C028E030E005C020E130E083
S1132F3002C020E132E0F801B7FE07C06081718170
S1132F40828193810C5F1F4F06C06081718180E094
S1132F5090E00E5F1F4FA3010E94A018882E8618D0
S1132F60FB2DFF773F2E36FE0DC0232D2E7FA22E84
S1132F70891458F434FE0BC032FC09C0832D8E7EB4
S1132F80A82E05C0B82CA32C03C0B82C01C0B92CA2
S1132F90A4FE0FC0FE01E80DF11D8081803321F4F1
S1132FA09A2D997EA92E09C0A2FE06C0B394B394AB
S1132FB004C08A2D867809F0B394A3FC11C0A0FE46
S1132FC006C0B21488F4280C922C9B180EC0B214BC
S1132FD060F4B60180E290E00E946418B394F7CFE5
S1132FE0B21418F42B1802C0982C212CA4FE10C083
S1132FF0B60180E390E00E946418A2FE17C0A1FC11
S113300003C088E790E002C088E590E0B6010CC0F8
S11330108A2D867859F0A1FE02C08BE201C080E2BD
S1133020A7FC8DE2B60190E00E946418891438F47C
S1133030B60180E390E00E9464189A94F7CF8A94D2
S1133040F301E80DF11D8081B60190E00E9464183F
S11330508110F5CF222009F442CEB60180E290E03F
S11330600E9464182A94F6CFF6018681978102C0E3
S11330708FEF9FEF2B96E2E10C941A19FC01059057
S1133080615070400110D8F7809590958E0F9F1F66
S11330900895FC016150704001900110D8F78095AB
S11330A090958E0F9F1F0895DC01FC01672F71918D
S11330B07723E1F7329704C07C916D93708362911A
S11330C0AE17BF07C8F308950F931F93CF93DF93F1
S11330D0FB01238121FD03C08FEF9FEF2CC022FF52
S11330E016C046815781248135814217530744F421
S11330F0A081B1819D012F5F3F4F318320838C9349
S1133100268137812F5F3F4F3783268314C08B017D
S1133110EC01FB010084F185E02D0995892BE1F692
S1133120D80116968D919C911797019617969C93AA
S11331308E931697CE01DF91CF911F910F91089531
S1133140FA01AA27283051F1203181F1E8946F93D4
S11331506E7F6E5F7F4F8F4F9F4FAF4FB1E03ED07A
S1133160B4E03CD0670F781F891F9A1FA11D680F18
S1133170791F8A1F911DA11D6A0F711D811D911D4B
S1133180A11D20D009F468943F912AE0269F1124C0
S11331903019305D3193DEF6CF010895462F477024
S11331A0405D4193B3E00FD0C9F7F6CF462F4F707F
S11331B0405D4A3318F0495D31FD4052419302D0DD
S11331C0A9F7EACFB4E0A695979587957795679583
S11331D0BA95C9F700976105710508959B01AC0183
S11331E00A2E06945795479537952795BA95C9F7AA
S11331F0620F731F841F951FA01D08952F923F9285
S11332004F925F926F927F928F929F92AF92BF92F2
S1133210CF92DF92EF92FF920F931F93CF93DF939E
S1133220CDB7DEB7CA1BDB0B0FB6F894DEBF0FBEFB
S1133230CDBF09942A88398848885F846E847D8448
S11332408C849B84AA84B984C884DF80EE80FD804A
S11332500C811B81AA81B981CE0FD11D0FB6F894C0
S1113260DEBF0FBECDBFED010895F894FFCF81
S113326E0000C8420000484200E1084E0142696570
S113327E6E76656E69646F0053697374656D612053
S113328E436C696D61212100417072657465206221
S113329E6F746F6E3A004163657074617200436FB0
S11332AE6E74726F6C65733A00497A7175696572E2
S11332BE64613A2042746E2031004465726563681D
S11332CE613A2042746E203300546D702E4578742A
S11332DE3A004300546D702E496E743A00482E4DD8
S11332EE61783A002500482E4D696E3A0048756D96
S11332FE656461643A0054656D703A00256C64002F
S113330E50726573696F6E3A00506100416C746956
S113331E7475643A00736E6D00467565727465005B
S113332E4D65646961004C6576650044657370652E
S113333E6A61646F004C6C757669613A0050746F03
S113334E526F63696F3A0050726564696363696FA3
S113335E6E00542E4D61783A00542E4D696E3A002B
S10F336E50726564696363696F6E3A0015
S9030000FC
