S014000050726F796563746F546573742E737265631B
S11300000C9480000C949D000C949D000C94130897
S11300100C949D000C949D000C949D000C949D00E8
S11300200C949D000C949D000C949D000C94510E16
S11300300C9444140C949D000C949D000C949D000D
S11300400C949D000C949D000C949D000C949D00B8
S11300500C949D000C949D000C949D000C949D00A8
S11300600C949D000C949D0031095B096009AD0955
S1130070E1095B0AC80A260BA30B4E0C4A0D076361
S11300804236B79BD8A71A39685618AEBAAB558C06
S11300901D3CB7CC5763BD6DEDFD753EF61772314F
S11300A0BF000000803F08000000BE922449123EB9
S11300B0ABAAAA2ABECDCCCC4C3E00000080BEAB7D
S11300C0AAAAAA3E00000000BF000000803F000072
S11300D0000000084178D3BB4387D1133D190E3C7F
S11300E0C3BD4282AD2B3E68EC8276BED98FE1A9B6
S11300F03E4C80EFFFBE01C4FF7F3F0000000000C4
S113010011241FBECFEFD8E0DEBFCDBF12E0A0E0C8
S1130110B1E0E4E6FAE302C005900D92A031B10724
S1130120D9F722E0A0E1B2E001C01D92AB37B207DB
S1130130E1F70E94BF080C94301D0C940000CF938B
S1130140C82F0E94BB060E94C3068EE70E94C80601
S11301500E94C3068C2F0E94C8060E94C306CF913A
S11301600C94BF06CF93C0911802C82B8C2F0E9409
S11301709F008C2F84600E949F008AE08A95F1F78B
S113018000C08C2F8B7F0E949F008FE39FE101971B
S1130190F1F700C00000CF910895CF93C82F1092BB
S11301A0190210921802807F0E94B2008C2F82954F
S11301B0807FCF910C94B200CF93C82F81E090E060
S11301C090931902809318028C2F807F0E94B200B2
S11301D08C2F8295807FCF910C94B200CF93DF93C4
S11301E0EC018991882319F00E94DC00FACFDF9199
S11301F0CF91089580E00E949F002FEF80E792E066
S1130200215080409040E1F700C000001092190294
S11302101092180280E30E94B2008FED9EE20197D3
S1130220F1F700C0000080E30E94B20080E30E9466
S1130230B20080E20E94B20088E20E94CD008FEDFD
S11302409EE20197F1F700C0000088E00E94CD0013
S11302508FED9EE20197F1F700C0000081E00E945B
S1130260CD008FED9EE20197F1F700C0000086E01B
S11302700E94CD008FED9EE20197F1F700C00000CF
S11302808CE00E94CD008FED9EE20197F1F700C053
S1130290000008959B0121503109FC01E60FF71F6E
S11302A0DC01AD01481B590B421753073CF44C9138
S11302B052915D93408321503109F3CF0895EF9219
S11302C0FF920F931F93CF93DF938B019A01FB014E
S11302D04AE0E42EF12CEF01C01BD10B009739F05A
S11302E0B7010E947919805D8193CB01F4CFF801A5
S11302F0EC0FFD1F80E3C217D3071CF421968193F2
S1130300FACFBE01C8010E944A01F801EC0FFD1F9B
S11303101082CE01DF91CF911F910F91FF90EF904A
S113032008952F923F924F925F926F927F928F9295
S11303309F92AF92BF92CF92DF92EF92FF920F9370
S11303401F93CF93DF934B015C01EA0189010E9463
S11303508A166B017C0140E050E0BE01C6010E9498
S11303605F011C010115110509F445C0FE01E80FE8
S1130370F91F8EE28083B801012E000C880B990BC3
S11303800E94C2169B01AC0160E070E080E291E43F
S11303900E94E4172B013C01B601DD0C880B990B7C
S11303A00E94C2169B01AC01C501B4010E94A615AE
S11303B02FEF221A320AC20DD31DA30192010E940B
S11303C077170E948A16DC01CB01A801BE01DF91D8
S11303D0CF911F910F91FF90EF90DF90CF90BF903E
S11303E0AF909F908F907F906F905F904F903F90D1
S11303F02F900C945F01DF91CF911F910F91FF908B
S1130400EF90DF90CF90BF90AF909F908F907F90B0
S11304106F905F904F903F902F900895CF93DF930C
S1130420D82F0E94BB060E94C3068EEE0E94C80607
S11304300E94C3068D2F0E94C8060E94C3060E9414
S1130440BB060E94C3068FEE0E94C8060E94C30624
S113045080E00E94CE060E94C3060E94D606C82FE2
S11304600E94C3060E94BF060E94BB060E94C306E8
S11304708EEE0E94C8060E94C30681E08D0F0E9482
S1130480C8060E94C3060E94BB060E94C3068FEEE4
S11304900E94C8060E94C30680E00E94CE060E9405
S11304A0C3060E94D606D82F0E94C3060E94BF0628
S11304B08C2F90E0982F88278D0F911DDF91CF917D
S11304C00895CF93DF93D82FC62F0E94BB060E94B6
S11304D0C3068EEE0E94C8060E94C3068D2F0E949A
S11304E0C8060E94C3068C2F0E94C8060E94C30639
S11304F0DF91CF910C94BF060F931F93CF93DF939B
S1130500D82F0E94BB060E94C3068EEE0E94C80626
S11305100E94C30686EF0E94C8060E94C3060E947A
S1130520BB060E94C3068FEE0E94C8060E94C30643
S113053080E00E94CE060E94C3060E94D606C82F01
S11305400E94C3060E94BB060E94C3068EEE0E9450
S1130550C8060E94C30687EF0E94C8060E94C3060D
S11305600E94BB060E94C3068FEE0E94C8060E942A
S1130570C30680E00E94CE060E94C3060E94D606EF
S1130580082F0E94C3060E94BB060E94C3068EEE7B
S11305900E94C8060E94C30688EF0E94C8060E94F3
S11305A0C3060E94BB060E94C3068FEE0E94C806C3
S11305B00E94C30680E00E94CE060E94C3060E94E9
S11305C0D606182F0E94C3060E94BF068C2F90E007
S11305D0A0E0B0E0DC0199278827202F30E0322FFB
S11305E02227820F931FA11DB11D810F911DA11DF3
S11305F0B11D28E030E02D1B3109BC01CD0104C040
S113060095958795779567952A95D2F7DF91CF9140
S11306101F910F9108958AEA0E940E0290931D0281
S113062080931C028FEC97E00197F1F700C0000063
S11306308CEA0E940E0290932702809326028FEC8C
S113064097E00197F1F700C000008EEA0E940E02C5
S113065090932902809328028FEC97E00197F1F799
S113066000C0000080EB0E940E029093230280934E
S113067022028FEC97E00197F1F700C0000082EBB3
S11306800E940E0290932102809320028FEC97E047
S11306900197F1F700C0000084EB0E940E029093D2
S11306A01F0280931E028FEC97E00197F1F700C0C0
S11306B0000086EB0E940E0290932D0280932C0280
S11306C08FEC97E00197F1F700C0000088EB0E94DF
S11306D00E0290932B0280932A028FEC97E00197ED
S11306E0F1F700C000008AEB0E940E0290932502ED
S11306F0809324028FEC97E00197F1F700C000008B
S11307008CEB0E940E0290932F0280932E028FECAA
S113071097E00197F1F700C000008EEB0E940E02F3
S113072090931B0280931A028FEC97E00197F1F7E4
S113073000C0000008956EE284EF0E94610287E128
S113074097E40197F1F700C0000086EF0E940E02C3
S1130750BC0180E090E008954F925F926F927F9287
S11307608F929F92AF92BF92CF92DF92EF92FF92BD
S11307700F931F93CF93DF9300D000D01F92CDB778
S1130780DEB78D830E949B036B017C016D816295B2
S1130790660F660F607C6C5C84EF0E9461022D81A1
S11307A0211105C08FE496E40197F1F71AC09D81E9
S11307B0913029F4AFE2B5E71197F1F712C0BD818A
S11307C0B23029F48FEE92ED0197F1F70AC09D81C2
S11307D0933049F4AFEBBEE321E0A150B040204098
S11307E0E1F700C000008D810E947C022B013C01D6
S11307F080911E0290911F02A7019601281B390BBC
S113080041095109A0912002B09121020E94D419FA
S113081020E030E840E050E00E94AF1949015A015D
S113082080912E0260E070E0782F770F770F770FBA
S1130830072E000C880B990B20911A0230911B0291
S11308408901330F220B330BA9019801280D391D9F
S11308504A1D5B1D0E94AF19820E931EA41EB51E75
S113086080EA881A8FE0980AA108B108A5019401CA
S1130870C501B4010E9469199B01AC016CE0559556
S11308804795379527956A95D1F7A0912A02B0919B
S11308902B020E94DF19C12CE8E0DE2EE12CF12CA2
S11308A0A70196010E94AF1929833A834B835C8385
S11308B0A0912602B0912702A50194010E94DF199C
S11308C0A70196010E94AF19C980DA80EB80FC80F1
S11308D0C20ED31EE41EF51EA0912202B091230283
S11308E0A701960130584F4F5F4F0E94D4194B0116
S11308F05C01FFE0B694A79497948794FA95D1F796
S113090060911C0270911D02660F771F660F771F9E
S1130910CB01770FAA0BBB0B8C0D9D1DAE1DBF1D0C
S11309200D8004C0880F991FAA1FBB1F0A94D2F719
S1130930BC01CD016E5F7F4F8F4F9F4F24E030E0AD
S113094040E050E00E94AF19D301C201821B930B17
S1130950A40BB50B9C01AD0180E593ECA0E0B0E0E5
S1130960BC01CD010D8004C0959587957795679559
S11309700A94D2F70E94691997FD0BC0660F771F7E
S1130980881F991FA50194010E948D1949015A01DC
S11309900AC0A50194010E948D1949015A01880CCD
S11309A0991CAA1CBB1CC501B40120E031E040E045
S11309B050E00E94AF19CA01B9010E9469199B0154
S11309C0AC01AEEDBBE00E94D4196B017C01A3E441
S11309D0B3EEA50194010E94E21920E030E041E069
S11309E050E00E94AF196701FF24D7FCF094EF2C6C
S11309F0DA01C9018C0D9D1DAE1DBF1DBC01CD01C9
S1130A006153714F8F4F9F4F20E130E040E050E041
S1130A100E94AF19C501B401620F731F841F951F93
S1130A200F900F900F900F900F90DF91CF911F9127
S1130A300F91FF90EF90DF90CF90BF90AF909F9079
S1130A408F907F906F905F904F9008950E94C21690
S1130A5020E033E743ED57E40E94181621E03EED11
S1130A6042E45EE30E94E4179B01AC0160E070E0A5
S1130A7080E89FE30E94A61520E03AE24DE257E4A5
S1130A800E94771708952FEF87EA91E6215080405E
S1130A909040E1F700C00000109230020895AF9238
S1130AA0BF92CF92DF92EF92FF920F931F93CF9357
S1130AB0DF9300D000D01F92CDB7DEB7FE01319690
S1130AC025E0DF011D922A95E9F710923002419842
S1130AD0399ABFEF29EF30E0B15020403040E1F7C0
S1130AE000C00000419A39982FE1319B09C04AE0C7
S1130AF04A95F1F700C02150C1F724E02093300259
S1130B0020913002211118C023E3319909C05AE021
S1130B105A95F1F700C02150C1F724E02093300228
S1130B2023E3319B09C0AAE0AA95F1F700C0215044
S1130B30C1F724E02093300220913002211141C0FA
S1130B4030E0C12CD12C7601C39444E0A42E27E0DC
S1130B5044E231990AC0BAE0BA95F1F700C04150B5
S1130B60C1F7A09230022FEF35E0409130024111DD
S1130B7022C04AEB4A95F1F700C0319B11C08F01A6
S1130B80030F111DD801BC90B701A601022E04C0A9
S1130B90440F551F661F771F0A94D2F74B294C93B5
S1130BA043E3319B08C0BAE0BA95F1F700C0415065
S1130BB0C1F7A0923002215027FFCACF3F5F3530E2
S1130BC030F220913002211116C039812A81230F7D
S1130BD03B81230F3C81230F3D81231721F083E0C8
S1130BE08093300208C0DC01CE01059621912D933B
S1130BF0E817F907D9F70F900F900F900F900F9007
S1130C00DF91CF911F910F91FF90EF90DF90CF90E4
S1130C10BF90AF9008958F929F92AF92BF92CF9260
S1130C20DF92EF92FF920F931F93CF93DF9300D045
S1130C3000D0CDB7DEB78C017B0119821A821B82EA
S1130C401C82CE0101960E944F05809130028111D1
S1130C5072C08C816B817C817627672776279B8184
S1130C6097FF0FC09F77682F70E0792B072E000C39
S1130C70880B990B0E94C21620E030E040E251EC50
S1130C800AC0072E000C880B990B0E94C21620E0A4
S1130C9030E040E251E40E941816F8016083718349
S1130CA08283938369817A81762767277627072E43
S1130CB0000C880B990B0E94C21620E030E040E241
S1130CC051E40E9418164B015C01F70160837183A3
S1130CD082839383F801C080D180E280F38020E096
S1130CE030E040E252ECC701B6010E94131687FDC2
S1130CF00AC020E030E040EA52E4C701B6010E9495
S1130D007217181614F482E014C020E030E0A90130
S1130D10C501B4010E94131687FD0AC020E030E02B
S1130D2048EC52E4C501B4010E94721718161CF471
S1130D3081E0809330020F900F900F900F90DF911D
S1130D40CF911F910F91FF90EF90DF90CF90BF90C4
S1130D50AF909F908F9008958CE08093B800E9EB5A
S1130D60F0E080818C7F80838FEF8093BB0084E0F0
S1130D708093BC00089584EA8093BC00089584E9BC
S1130D808093BC0008958091BC0087FFFCCF089538
S1130D908093BB0084E88093BC000895882311F0FD
S1130DA084EC01C084E88093BC0008958091BB006A
S1130DB00895CF93DF93EC010E94BB060E94C30603
S1130DC080ED0E94C8060E94C30680E00E94C80607
S1130DD00E94C3060E94BF060E94BB060E94C3066F
S1130DE081ED0E94C8060E94C30681E00E94CE06DF
S1130DF00E94C3060E94D606888381E00E94CE0624
S1130E000E94C3060E94D606898381E00E94CE0612
S1130E100E94C3060E94D6068A8381E00E94CE0601
S1130E200E94C3060E94D6068B8381E00E94CE06F0
S1130E300E94C3060E94D6068C8381E00E94CE06DF
S1130E400E94C3060E94D6068D8380E00E94CE06CF
S1130E500E94C3060E94D6068E830E94C306DF91B9
S1130E60CF910C94BF06ECE7F0E08081806480832E
S1130E70EEE7F0E0808181608083EAE7F0E0808142
S1130E8087688083808180648083089580917A005C
S1130E90806480937A0080917A0086FDFCCF8091F3
S1130EA0780090917900089584B1887F84B985B1E0
S1130EB0876085B9EBE6F0E0808187608083E8E6AF
S1130EC0F0E080818160808308958F929F92AF9239
S1130ED0BF92CF92DF92EF92FF9220E030E048EC95
S1130EE052E4609157027091580280915902909196
S1130EF05A020E94181620E030E040E05EE30E94AF
S1130F00E4174B015C01C0905202D0905302E09070
S1130F105402F090550226E636E646E65FE3C70142
S1130F20B6010E94771720E030E040EE52E40E94C0
S1130F30A715A50194010E9477174B015C012DECC4
S1130F403CEC4CEC5DE3C701B6010E9477179B01B2
S1130F50AC01C501B4010E94A71520E030E04CEDBE
S1130F6052E40E94A615FF90EF90DF90CF90BF90BF
S1130F70AF909F908F9008950097C1F480916B007B
S1130F808E7F80936B002FEF89EF90E0215080409B
S1130F909040E1F700C00000189904C080916B00F4
S1130FA0816034C080916B00816037C081309105CD
S1130FB0C1F480916B008D7F80936B002FEF89EFDC
S1130FC090E0215080409040E1F700C00000199962
S1130FD004C080916B00826019C080916B008260B4
S1130FE01CC00297F9F480916B008B7F80936B0097
S1130FF02FEF89EF90E0215080409040E1F700C04E
S113100000001A9907C080916B00846080936B0084
S113101081E006C080916B00846080936B0080E067
S113102090E0089508951F920F920FB60F92112425
S11310302F933F934F935F936F937F938F939F93DC
S1131040AF93BF93EF93FF9318990FC080E090E0A4
S11310500E94BC07892B21F081E08093560202C0D4
S113106010925602109270021DC019990EC081E0B0
S113107090E00E94BC07892B99F3109256021092BB
S1131080700281E0809371020FC01A990DC082E052
S113109090E00E94BC07892B19F31092560281E05C
S11310A08093700210927102FF91EF91BF91AF9102
S11310B09F918F917F916F915F914F913F912F916C
S11310C00F900FBE0F901F901895E1E8F0E080811B
S11310D08C60808381E19AE790938B0080938A00EF
S11310E083E294EF9093890080938800EFE6F0E028
S11310F08081866080830895CF93DF930E94BB062E
S11311000E94C30680E90E94C8060E94C30680E0CC
S11311100E94C8060E94C3060E94BB060E94C30622
S113112081E90E94C8060E94C30681E00E94CE069F
S11311300E94C3060E94D606D82F0E94C30680E0F0
S11311400E94CE060E94C3060E94D606C82F0E94A3
S1131150C3060E94BF061092BC008C2F90E09D2B0A
S113116034E0959587953A95E1F797FD0F9624E03D
S1131170959587952A95E1F7DF91CF910895CF93BF
S1131180DF93CDB7DEB7C454D1090FB6F894DEBFF0
S11311900FBECDBF85E0E8E0F1E0DE01A05CBF4F0B
S11311A001900D928A95E1F721964FAD21972296F1
S11311B05FAD229723966FAD239724967FAD249736
S11311C025968FAD25970E943C150E9454070E94D6
S11311D0AC060E94FA000E9433070E940B030E948F
S11311E0430589E692E00E94D90678948DE091E067
S11311F00E94EE0080EC0E94CD008BE191E00E9401
S1131200EE002FEF81E19AE7215080409040E1F712
S113121000C0000081E00E94CD008CE291E00E94B9
S1131220EE0080EC0E94CD0089E391E00E94EE0084
S11312300E94650810E083E2E82E84EFF82E9FE90F
S1131240A92E91E0B92E6E012AE1C20ED11C812F84
S113125090E0FC018B309105E0F7EC5CFF4F0C94BF
S1131260CE1980915602882391F381E00E94CD002B
S113127081E491E00E94EE008FEF97EA21E681502D
S113128090402040E1F700C0000081E00E94CD00C2
S11312908CE491E00E94EE0080EC0E94CD008DE58C
S11312A091E00E94EE001092560210927102109288
S11312B0700211E0CCCF80915602882341F249C4D8
S11312C08091710281114BC380917002882319F0BF
S11312D0109217027DC080911002882309F4B7CFC1
S11312E06091520270915302809154029091550280
S11312F060935B0270935C0280935D0290935E0244
S113130021E030E0AE01465C5F4F0E94910181E034
S11313100E94CD0089E991E00E94EE00CE01CA96B8
S11313200E94EE008FED0E94DC0085E791E00E94B0
S1131330EE004AE0BE01605F7F4F809135029091DC
S113134036020E94111A80EC0E94CD0087E791E0DA
S11313500E94EE00CE01409695C3809171028823CD
S113136019F010921502F5C380917002882319F0C8
S113137010921502A6C080911002882309F467CF49
S113138060915702709158028091590290915A02CB
S1131390609360027093610280936202909363028F
S11313A021E030E0AE014C5C5F4F0E94910181E08E
S11313B00E94CD0080E991E00E94EE00CE01C49627
S11313C067C480917102882309F441C01092160207
S11313D0109289001092880067E572E082E592E03D
S11313E00E940B0660915702709158028091590235
S11313F090915A026093600270936102809362023A
S11314009093630221E030E0AE014C5C5F4F0E9498
S1131410910181E00E94CD0080E991E00E94EE00FC
S1131420CE01C4960E94EE0087E891E00E94EE008F
S1131430F0928900E092880081E080931502109276
S11314405602109271021092700213E000CF809144
S11314507002882319F010921602A1C08091100224
S1131460882309F4F4CE809175028F9380917402DD
S11314708F93809173028F93809172028F93BF92A6
S1131480AF92DF92CF920E94361A81E00E94CD0083
S113149083EA91E00E94EE00C6010E94EE008CEA0D
S11314A091E00E94EE00109210020FB6F894DEBF95
S11314B00FBECDBFCCCE809171028823E9F110928A
S11314C01402109289001092880081E00E94AC03FB
S11314D06093720270937302809374029093750206
S11314E09F938F937F936F93BF92AF92DF92CF922C
S11314F00E94361A81E00E94CD0083EA91E00E94A6
S1131500EE00C6010E94EE008CEA91E00E94EE001B
S1131510F0928900E092880081E080931602109294
S1131520560210927102109270020FB6F894DEBF48
S11315300FBECDBF14E08BCE80917002882319F0CA
S1131540109214028AC080911002882309F47FCE7D
S113155060914E0270914F0280915002909151021D
S113156021E030E0AE014F5F5F4F0E94910181E0C6
S11315700E94CD008FEA91E00E94EE00CE01019618
S11315800E94EE0080EC0E94CD0088EB91E084C3C1
S113159080917102882309F443C0109213021092BF
S11315A089001092880081E00E94AC03609372026B
S11315B07093730280937402909375020E942605BF
S11315C060934E0270934F028093500290935102A5
S11315D021E030E0AE014F5F5F4F0E94910181E056
S11315E00E94CD008FEA91E00E94EE00CE010196A8
S11315F00E94EE0080EC0E94CD0088EB91E00E94F6
S1131600EE00F0928900E092880081E08093140259
S113161010925602109271021092700215E017CEC9
S113162080917002882319F01092130293C0809164
S11316301002882309F40BCE81E00E94CD0088EDCE
S113164091E00E94EE008EE392E026C38091710245
S1131650882309F440C0109212021092890010925B
S113166088000E94460790933D0280933C028C328E
S113167021E092071CF46CEB71E00FC0843F21E081
S113168092071CF463EC71E008C0803293401CF4B0
S113169069EC71E002C06EEC71E08EE392E00E94AE
S11316A00A1A81E00E94CD0088ED91E00E94EE00CC
S11316B08EE392E00E94EE00F0928900E0928800AE
S11316C081E08093130210925602109271021092DC
S11316D0700216E0BCCD80917002882361F01092F4
S11316E01202109289001092880081E00E94CD00BD
S11316F08AEE91E01EC180911002882309F4A7CDDF
S113170020915702309158024091590250915A0247
S1131710609152027091530280915402909155024B
S11317200E94650721E030E0AE01425D5F4F0E94F8
S1131730910181E00E94CD0080EE91E00E94EE00D4
S1131740CE018E969FC180917102882309F446C010
S113175010921102109289001092880067E572E0DD
S113176082E592E00E940B062091570230915802C4
S11317704091590250915A02609152027091530261
S113178080915402909155020E94650721E030E057
S1131790AE01425D5F4F0E94910181E00E94CD0045
S11317A080EE91E00E94EE00CE018E960E94EE0043
S11317B08FED0E94DC0085E791E00E94EE00F0923C
S11317C08900E092880081E0809312021092560210
S11317D0109271021092700217E039CD809170025C
S11317E0882309F450C010921102109289001092BB
S11317F08800609165027091660280916702909101
S1131800680221E030E0AE01465C5F4F0E94910126
S11318106091040170910501809106019091070186
S113182021E030E0AE01485D5F4F0E94910181E00C
S11318300E94CD0085EF91E00E94EE00CE01CA9691
S11318400E94EE008FED0E94DC0085E791E00E948B
S1131850EE0080EC0E94CD008CEF91E00E94EE003F
S1131860CE0188960E94EE008FED0E94DC0085E791
S113187091E00E94EE00F0928900E092880081E0FD
S11318808093170259C180911002882309F4DFCC98
S113189081E00E94CD0083E092E0FEC1809171025C
S11318A0882309F457C010921702109289001092ED
S11318B08800609165027091660280916702909140
S11318C0680221E030E0AE01465C5F4F0E94910166
S11318D060910401709105018091060190910701C6
S11318E021E030E0AE01485D5F4F0E94910181E04C
S11318F00E94CD0085EF91E00E94EE00CE01CA96D1
S11319000E94EE008FED0E94DC0085E791E00E94CA
S1131910EE0080EC0E94CD008CEF91E00E94EE007E
S1131920CE0188960E94EE008FED0E94DC0085E7D0
S113193091E00E94EE00F0928900E092880081E03C
S1131940809311021092560210927102109270024A
S113195018E07DCC80917002882309F455C0109260
S113196089001092880067E572E082E592E00E94A7
S11319700B06609137027091380280913902909180
S11319803A0221E030E0AE014C5C5F4F0E949101CD
S11319906091000170910101809102019091030115
S11319A021E030E0AE014E5D5F4F0E94910181E085
S11319B00E94CD0080E891E00E94EE00CE01C49622
S11319C00E94EE0087E891E00E94EE0080EC0E9405
S11319D0CD0089E891E00E94EE00CE0182960E943B
S11319E0EE0087E891E00E94EE00F0928900E09218
S11319F0880081E0809317021092560210927102BF
S1131A00109270021AE023CC80911002882309F40A
S1131A101ECC60916502709166028091670290917C
S1131A20680221E030E0AE01465C5F4F0E94910104
S1131A306091040170910501809106019091070164
S1131A4021E030E0AE01485D5F4F0E94910181E0EA
S1131A500E94CD0085EF91E00E94EE00CE01CA966F
S1131A600E94EE008FED0E94DC0085E791E00E9469
S1131A70EE0080EC0E94CD008CEF91E00E94EE001D
S1131A80CE0188960E94EE008FED0E94DC0085E76F
S1131A9091E002C180917102882309F455C081E06C
S1131AA08093170210928900109288006091650259
S1131AB070916602809167029091680221E030E0A3
S1131AC0AE01465C5F4F0E949101609104017091E8
S1131AD00501809106019091070121E030E0AE01FB
S1131AE0485D5F4F0E94910181E00E94CD0085EF27
S1131AF091E00E94EE00CE01CA960E94EE008FEDA6
S1131B000E94DC0085E791E00E94EE0080EC0E94D8
S1131B10CD008CEF91E00E94EE00CE0188960E94E9
S1131B20EE008FED0E94DC0085E791E00E94EE005C
S1131B30F0928900E092880010925602109271028D
S1131B401092700219E083CB80917002882309F40B
S1131B5064C0109289001092880067E572E082E503
S1131B6092E00E940B060E947C08909336028093B8
S1131B703502609152027091530280915402909107
S1131B80550260935B0270935C0280935D029093B4
S1131B905E0221E030E0AE01465C5F4F0E9491019D
S1131BA04AE0BE01605F7F4F80913502909136021A
S1131BB00E94111A81E00E94CD008CE691E00E94FF
S1131BC0EE00CE01CA960E94EE008FED0E94DC006A
S1131BD085E791E00E94EE0080EC0E94CD0087E74B
S1131BE091E00E94EE00CE0140960E94EE008FED3F
S1131BF00E94DC0085E791E00E94EE00F0928900EB
S1131C00E092880081E080931702109256021092AD
S1131C1071021092700212E01ACB80911002882394
S1131C2009F415CB60913702709138028091390222
S1131C3090913A0221E030E0AE014C5C5F4F0E948B
S1131C4091016091000170910101809102019091D4
S1131C50030121E030E0AE014E5D5F4F0E9491012F
S1131C6081E00E94CD0080E891E00E94EE00CE0168
S1131C70C4960E94EE0087E891E00E94EE0080EC9A
S1131C800E94CD0089E891E00E94EE00CE01829688
S1131C900E94EE0087E891E00E94EE00109210028C
S1131CA0D6CA1F920F920FB60F9211242F923F9211
S1131CB04F925F926F927F928F929F92AF92BF9258
S1131CC0CF92DF92EF92FF920F931F932F933F9344
S1131CD04F935F936F937F938F939F93AF93BF9330
S1131CE0EF93FF93CF93DF9300D0CDB7DEB767E5D3
S1131CF072E082E592E00E940B060E947C089093B9
S1131D0036028093350281E00E94AC036093720234
S1131D107093730280937402909375020E94260557
S1131D2060934E0270934F0280935002909351023D
S1131D300E9446079A83898390933D0280933C02D4
S1131D4040905702509058026090590270905A0285
S1131D50C0905202D0905302E0905402F090550289
S1131D60A3019201C701B6010E9465074B015C0102
S1131D7029813A812C3231401CF46CEB71E012C0A1
S1131D8089819A81843F91401CF463EC71E00AC01C
S1131D9029813A81203233401CF469EC71E002C09D
S1131DA06EEC71E08EE392E00E940A1AC0925B022C
S1131DB0D0925C02E0925D02F0925E024092600278
S1131DC050926102609262027092630220E030E0FD
S1131DD048EC52E4C701B6010E9477176B017C01FD
S1131DE060933102709332028093330290933402F1
S1131DF020E030E04AE754E40E9418160E9491164D
S1131E00762E6093760220E030E048EC52E4C7017D
S1131E10B6010E9418161B012C015AE0759EB001F0
S1131E201124072E000C880B990B0E94C2169B01EB
S1131E30AC01C201B1010E94A6150E949116062FA1
S1131E406093640220E030E040E251E4C701B6014F
S1131E500E9418161B012C0184E6789EB0011124FF
S1131E60072E000C880B990B0E94C2169B01AC0133
S1131E70C201B1010E94A6151B012C019AE0099F21
S1131E80B0011124072E000C880B990B0E94C21676
S1131E909B01AC01C201B1010E94A6150E949116DA
S1131EA0162F60934D0228EE33E0729EB001739EAC
S1131EB0700D1124072E000C880B990B0E94C2167A
S1131EC09B01AC01C701B6010E94A6156B017C0100
S1131ED034E6039FB0011124072E000C880B990BE4
S1131EE00E94C2169B01AC01C701B6010E94A6154F
S1131EF06B017C014AE0149FB0011124072E000CF1
S1131F00880B990B0E94C2169B01AC01C701B60154
S1131F100E94A6150E94911660935F028FEF0E94A3
S1131F209F15809176020E949F15809164020E9401
S1131F309F1580914D020E949F1580915F020E941F
S1131F409F1520E030E048EC52E460915702709114
S1131F5058028091590290915A020E9477176B019E
S1131F607C01609331027093320280933302909328
S1131F70340220E030E04AE754E40E9418160E943C
S1131F809116162F6093760220E030E048EC52E47C
S1131F90C701B6010E9418162B013C015AE0159F97
S1131FA0B0011124072E000C880B990B0E94C21655
S1131FB09B01AC01C301B2010E94A6150E949116B7
S1131FC0062F6093640220E030E040E251E4C70150
S1131FD0B6010E9418162B013C0184E6189FB0013B
S1131FE01124072E000C880B990B0E94C2169B012A
S1131FF0AC01C301B2010E94A6152B013C019AE079
S1132000099FB0011124072E000C880B990B0E9424
S1132010C2169B01AC01C301B2010E94A6150E9425
S11320209116762E60934D0228EE33E0129FB00194
S1132030139F700D1124072E000C880B990B0E941E
S1132040C2169B01AC01C701B6010E94A6156B0123
S11320507C0134E6039FB0011124072E000C880B89
S1132060990B0E94C2169B01AC01C701B6010E94E4
S1132070A6156B017C014AE0749EB0011124072E61
S1132080000C880B990B0E94C2169B01AC01C7017E
S1132090B6010E94A6150E94911660935F02812FDB
S11320A00E949F15809164020E949F1580914D02A9
S11320B00E949F1580915F020E949F15C09072023A
S11320C0D0907302E0907402F0907502C701B601DB
S11320D020EA36E841E050E00E94AF19122F209325
S11320E07602C701B60120E137E240E050E00E94E9
S11320F0AF19622E5AE0159F601811246092640291
S1132100C701B60128EE33E040E050E00E94AF1969
S1132110422E64E6619F401811248AE0689E4018AC
S1132120112440924D02C701B60124E630E040E09C
S113213050E00E94AF19222E98E1199F200C11241F
S113214004E6609E201811242AE0429E20181124DF
S113215020925F02712C312C512CC701B6012AE068
S113216030E040E050E00E94AF19A12FB0E060EFF2
S113217078EDA69FC001A79F900DB69F900D1124E6
S1132180280F391FE8E1FCEF6E9EC0016F9E900D91
S11321907E9E900D1124280F391F0CE9A20104031F
S11321A0C001059F900D1124280F391F06EFA101CE
S11321B00403C001059F900D1124A901480F591F64
S11321C05A83498320E639E7A29FC001A39F900D5B
S11321D0B29F900D11248C0D9D1D669E6001679E1B
S11321E0D00C769ED00C11248C0D9D1D4E9E60014A
S11321F04F9ED00C5E9ED00C1124C80ED91E6CE9E3
S1132200A10164039001659F300D1124C601820F62
S1132210931F29813A8102036001039FD00C11248A
S1132220C80ED91E812F0E949F15809164020E94BE
S11322309F1580914D020E949F1580915F020E941C
S11322409F1589810E949F158C2D0E949F1520E067
S113225030E040E251E460914E0270914F0280916F
S11322605002909151020E9477176B017C01609398
S1132270310270933202809333029093340220E04F
S113228030E04AE754E40E9418160E949116162F73
S11322906093760220E030E048EC52E4C701B601D6
S11322A00E9418162B013C013AE0139FB00111243F
S11322B0072E000C880B990B0E94C2169B01AC01DF
S11322C0C301B2010E94A6150E949116362E609396
S11322D0640220E030E040E251E4C701B6010E940C
S11322E018162B013C0144E6149FB0011124072E5B
S11322F0000C880B990B0E94C2169B01AC01C30110
S1132300B2010E94A6152B013C015AE0359EB00192
S11323101124072E000C880B990B0E94C2169B01F6
S1132320AC01C301B2010E94A6150E949116762E3B
S113233060934D0288EE93E0189FB001199F700DD1
S11323401124072E000C880B990B0E94C2169B01C6
S1132350AC01C701B6010E94A6156B017C0194E68D
S1132360399EB0011124072E000C880B990B0E9492
S1132370C2169B01AC01C701B6010E94A6156B01F0
S11323807C012AE0729EB0011124072E000C880BF8
S1132390990B0E94C2169B01AC01C701B6010E94B1
S11323A0A6150E94911660935F02812F0E949F15CB
S11323B0809164020E949F1580914D020E949F1596
S11323C080915F020E949F1520913C02E0913D02A2
S11323D0822F9E2F68EE73E00E947919362F609346
S11323E07602822F9E2F64E670E00E947919462FB0
S11323F0039F400D112440936402822F9E2F6AE0B4
S113240070E00E947919862F5CE9539F800D112496
S1132410409F800D112480934D0268E1369F200D6A
S11324201124459F200D1124809F200D11242093F9
S11324305F02832F0E949F15809164020E949F1562
S113244080914D020E949F1580915F020E949F150A
S113245020E030E048EC52E4C501B4010E94771753
S11324606B017C01609331027093320280933302DA
S11324709093340220E030E04AE754E40E941816B6
S11324800E949116062F6093760220E030E048EC1B
S113249052E4C701B6010E9418164B015C018AE0A0
S11324A0089FB0011124072E000C880B990B0E9481
S11324B0C2169B01AC01C501B4010E94A6150E947D
S11324C09116162F6093640220E030E040E251E45C
S11324D0C701B6010E9418164B015C0194E6099FDE
S11324E0B0011124072E000C880B990B0E94C21610
S11324F09B01AC01C501B4010E94A6154B015C010E
S11325002AE0129FB0011124072E000C880B990BAE
S11325100E94C2169B01AC01C501B4010E94A6151C
S11325200E949116B62E60934D0248EE53E0049F2C
S1132530B001059F700D1124072E000C880B990B18
S11325400E94C2169B01AC01C701B6010E94A615E8
S11325506B017C0154E6159FB0011124072E000C79
S1132560880B990B0E94C2169B01AC01C701B601EE
S11325700E94A6156B017C018AE0B89EB00111246B
S1132580072E000C880B990B0E94C2169B01AC010C
S1132590C701B6010E94A6150E94911660935F02BE
S11325A0802F0E949F15809164020E949F15809144
S11325B04D020E949F1580915F020E949F15809199
S11325C03B020E949F15809135029091360204E6E9
S11325D0089FB001099F700D1124072E000C880B71
S11325E0990B0E94C2164B015C01609331027093F7
S11325F03202809333029093340220E030E04AE7C1
S113260054E40E9418160E949116F62E60937602E6
S113261020E030E048EC52E4C501B4010E941816F1
S11326202B013C012AE0F29EB0011124072E000C7C
S1132630880B990B0E94C2169B01AC01C301B20125
S11326400E94A6150E949116162F6093640220E042
S113265030E040E251E4C501B4010E9418162B0198
S11326603C0134E6F39EB0011124072E000C880BC4
S1132670990B0E94C2169B01AC01C301B2010E94D6
S1132680A6152B013C014AE0149FB0011124072E2A
S1132690000C880B990B0E94C2169B01AC01C3016C
S11326A0B2010E94A6150E949116062F60934D0256
S11326B088EE93E0F89EB001F99E700D1124072E68
S11326C0000C880B990B0E94C2169B01AC01C5013A
S11326D0B4010E94A6154B015C0194E6199FB00158
S11326E01124072E000C880B990B0E94C2169B0123
S11326F0AC01C501B4010E94A6154B015C012AE09E
S1132700029FB0011124072E000C880B990B0E9424
S1132710C2169B01AC01C501B4010E94A6150E941A
S1132720911660935F028F2D0E949F158091640221
S11327300E949F1580914D020E949F1580915F0217
S11327400E949F1581E0809310020F900F90DF91FB
S1132750CF91FF91EF91BF91AF919F918F917F9115
S11327606F915F914F913F912F911F910F91FF9026
S1132770EF90DF90CF90BF90AF909F908F907F901D
S11327806F905F904F903F902F900F900FBE0F90DF
S11327901F901895CF92DF92EF92FF92FC01C080B8
S11327A0D180E280F380672BB9F020913702309119
S11327B038024091390250913A02C701B6010E9491
S11327C072171816FCF4C0923702D0923802E092C5
S11327D03902F0923A0216C02091650230916602E5
S11327E04091670250916802C701B6010E947217B6
S11327F0181644F4C0926502D0926602E092670211
S1132800F0926802FF90EF90DF90CF900895CF92FE
S1132810DF92EF92FF92FC01C080D180E280F380CE
S1132820672BB9F020910001309101014091020120
S113283050910301C701B6010E94131687FF1FC000
S1132840C0920001D0920101E0920201F0920301D2
S113285016C0209104013091050140910601509168
S11328600701C701B6010E94131687FF08C0C09272
S11328700401D0920501E0920601F0920701FF9055
S1132880EF90DF90CF9008951F920F920FB60F92A2
S11328901124CF92DF92EF92FF922F933F934F93A5
S11328A05F936F937F938F939F93AF93BF93EF93B4
S11328B0FF93209117028091150290911202822BAE
S11328C019F4992309F474C067E572E082E592E093
S11328D00E940B068091520290915302A0915402DF
S11328E0B091550280935B0290935C02A0935D02C9
S11328F0B0935E028091570290915802A0915902C0
S1132900B0915A028093600290936102A093620294
S1132910B093630260E070E08BE592E00E94CA131A
S1132920C0906002D0906102E0906202F090630275
S113293020913702309138024091390250913A0285
S1132940C701B6010E947217181644F4C0923702E8
S1132950D0923802E0923902F0923A0260E070E0DC
S11329608BE592E00E940714C0906002D09061024F
S1132970E0906202F0906302209100013091010125
S11329804091020150910301C701B6010E94131640
S113299087FF08C0C0920001D0920101E0920201B9
S11329A0F09203010E947C089093360280933502D2
S11329B080911602882359F081E00E94AC03609351
S11329C072027093730280937402909375028091E3
S11329D014028823A9F081E00E94AC036093720280
S11329E07093730280937402909375020E9426057B
S11329F060934E0270934F02809350029093510261
S1132A0080911302882301F10E94460790933D02AE
S1132A1080933C028C3221E092071CF46CEB71E051
S1132A200FC0843F21E092071CF463EC71E008C0FE
S1132A30803293401CF469EC71E002C06EEC71E0EA
S1132A408EE392E00E940A1A81E080931002FF91C3
S1132A50EF91BF91AF919F918F917F916F915F9112
S1132A604F913F912F91FF90EF90DF90CF900F9077
S1132A700FBE0F901F9018951F93CF93DF9300D034
S1132A8000D01F92CDB7DEB749835A83162F6B83CC
S1132A907C838D8329813A8140E050E060E472E4D4
S1132AA08FE090E00E948D192150310930937A0211
S1132AB02093790288E090E09093C5008093C4004D
S1132AC088E18093C100812F90E0193010F00297C3
S1132AD001C005972091770230917802822B932BC5
S1132AE090937802809377022091C200880F991FF7
S1132AF0822B8093C2002091C2009D81892F90E097
S1132B00019743E0880F991F4A95E1F7822B809340
S1132B10C2008C81853421F08F3439F480E303C002
S1132B208091C20080628093C20080E00F900F9079
S1132B300F900F900F90DF91CF911F910895909176
S1132B40C00095FFFCCF8093C60008955058BB2762
S1132B50AA270E94BE150C9438170E942A1738F031
S1132B600E94311720F039F49F3F19F426F40C9495
S1132B7027170EF4E095E7FB0C942117E92F0E9428
S1132B80491758F3BA17620773078407950720F0AB
S1132B9079F4A6F50C946B170EF4E0950B2EBA2F6E
S1132BA0A02D0B01B90190010C01CA01A00111244F
S1132BB0FF27591B99F0593F50F4503E68F11A16FB
S1132BC0F040A22F232F342F4427585FF3CF46958C
S1132BD037952795A795F0405395C9F77EF41F16AE
S1132BE0BA0B620B730B840BBAF09150A1F0FF0F78
S1132BF0BB1F661F771F881FC2F70EC0BA0F621F64
S1132C00731F841F48F4879577956795B795F79553
S1132C109E3F08F0B0CF9395880F08F09927EE0FE8
S1132C209795879508950E94FD1608F481E008950C
S1132C300E942C160C9438170E94311758F00E94E9
S1132C402A1740F029F45F3F29F00C942117511101
S1132C500C946C170C9427170E94491768F3992356
S1132C60B1F3552391F3951B550BBB27AA27621784
S1132C707307840738F09F5F5F4F220F331F441F91
S1132C80AA1FA9F335D00E2E3AF0E0E832D09150C5
S1132C905040E695001CCAF72BD0FE2F29D0660FB2
S1132CA0771F881FBB1F261737074807AB07B0E8F5
S1132CB009F0BB0B802DBF01FF2793585F4F3AF0FB
S1132CC09E3F510578F00C9421170C946C175F3FCC
S1132CD0E4F3983ED4F3869577956795B795F79581
S1132CE09F5FC9F7880F911D9695879597F9089569
S1132CF0E1E0660F771F881FBB1F62177307840705
S1132D00BA0720F0621B730B840BBA0BEE1F88F713
S1132D10E09508950E9491166894B1110C946C1773
S1132D2008950E94511788F09F5798F0B92F99275A
S1132D30B751B0F0E1F0660F771F881F991F1AF0A2
S1132D40BA95C9F714C0B13091F00E946B17B1E085
S1132D5008950C946B17672F782F8827B85F39F084
S1132D60B93FCCF3869577956795B395D9F73EF43B
S1132D7090958095709561957F4F8F4F9F4F0895E3
S1132D80E89409C097FB3EF4909580957095619501
S1132D907F4F8F4F9F4F9923A9F0F92F96E9BB27B7
S1132DA09395F695879577956795B795F111F8CF33
S1132DB0FAF4BB0F11F460FF1BC06F5F7F4F8F4F9E
S1132DC09F4F16C0882311F096E911C0772321F094
S1132DD09EE8872F762F05C0662371F096E8862F2C
S1132DE070E060E02AF09A95660F771F881FDAF783
S1132DF0880F9695879597F90895990F0008550FB0
S1132E00AA0BE0E8FEEF16161706E807F907C0F06C
S1132E1012161306E407F50798F0621B730B840B74
S1132E20950B39F40A2661F0232B242B252B21F44E
S1132E3008950A2609F4A140A6958FEF811D811DEE
S1132E40089597F99F6780E870E060E008959FEF28
S1132E5080EC089500240A9416161706180609062D
S1132E60089500240A9412161306140605060895FC
S1132E70092E0394000C11F4882352F0BB0F40F484
S1132E80BF2B11F460FF04C06F5F7F4F8F4F9F4FC4
S1132E90089557FD9058440F551F59F05F3F71F046
S1132EA04795880F97FB991F61F09F3F79F08795AD
S1132EB00895121613061406551FF2CF4695F1DF36
S1132EC008C0161617061806991FF1CF86957105C6
S1132ED0610508940895E894BB2766277727CB01FA
S1132EE097F908950E94FD1608F48FEF08950E9443
S1132EF08A170C9438170E942A1738F00E94311749
S1132F0020F0952311F00C9421170C942717112409
S1132F100C946C170E94491770F3959FC1F3950F99
S1132F2050E0551F629FF001729FBB27F00DB11D49
S1132F30639FAA27F00DB11DAA1F649F6627B00DD9
S1132F40A11D661F829F2227B00DA11D621F739FC2
S1132F50B00DA11D621F839FA00D611D221F749FD0
S1132F603327A00D611D231F849F600D211D822F17
S1132F70762F6A2F11249F5750409AF0F1F088233E
S1132F804AF0EE0FFF1FBB1F661F771F881F91506B
S1132F905040A9F79E3F510580F00C9421170C94E2
S1132FA06C175F3FE4F3983ED4F386957795679565
S1132FB0B795F795E7959F5FC1F7FE2B880F911D95
S1132FC09695879597F90895FA01EE0FFF1F3096AD
S1132FD021053105A1F16115710561F48038BFE364
S1132FE09B0749F168949038810561F08038BFEF00
S1132FF09B0741F099234AF5FF3FE105310521057F
S113300019F1E8940894E795D901AA2329F4AB2F80
S1133010BE2FF85FD0F310C0FF5F70F4A695E0F701
S1133020F73950F019F0FF3A38F49F779F930DD099
S11330300F9007FC9058089546F00C94271760E011
S113304070E080E89FE308954FE79F775F934F9385
S11330503F932F930E94DF182F913F914F915F91DF
S11330600E9477170C943C1829F416F00C9421173D
S11330700C946B170C9427170E945117A8F39638D9
S1133080A0F707F80F92E8942BE33AEA48EB5FE7DE
S11330900E948D170F920F920F924DB75EB70F9249
S11330A00E942719EEE7F0E00E946E184F915F919D
S11330B0EF91FF91E595EE1FFF1F49F0FE57E06881
S11330C04427EE0F441FFA95E1F74195550B0E94F2
S11330D0A1180F9007FE0C9495180895DF93CF93D1
S11330E01F930F93FF92EF92DF927B018C01689400
S11330F006C0DA2EEF010E948A17FE01E894A5911A
S11331002591359145915591A6F3EF010E94BE1585
S1133110FE019701A801DA9469F7DF90EF90FF9020
S11331200F911F91CF91DF9108959B01AC0160E055
S113313070E080E89FE30C9418160C9421170C940B
S11331405B190E945117D8F39923C9F3940F511DA9
S1133150A3F39150504094F059F0882332F0660F55
S1133160771F881F91505040C1F79E3F51052CF79F
S1133170880F911D9695879597F908955F3FACF058
S1133180983E9CF0BB27869577956795B79508F48C
S1133190B1609395C1F7BB0F58F711F460FFE8CF06
S11331A06F5F7F4F8F4F9F4FE3CF0C946C1716F0D8
S11331B00C945B190C94271768940C9421170E94A3
S11331C05117A8F39923C1F3AEF3DF93CF931F9361
S11331D00F93FF92C92FDD2788232AF02197660FCA
S11331E0771F881FDAF720E030E040E85FEB9FE3C9
S11331F0883920F0803E38F021968F770E94A715F9
S1133200E6EAF0E004C00E94A715E3EDF0E00E94B6
S11332106E188B01BE01EC01FB2E6F577109759579
S1133220771F880B990B0E94C21628E132E741E30D
S11332305FE30E948A17AF2D9801AE01FF900F91B2
S11332401F91CF91DF910E94BE150C943817FA019B
S1133250DC01AA0FBB1F9B01AC01BF5728F4222736
S113326033274427507820C0B75190F4AB2F002463
S1133270469537952795011CA395D2F3002071F04C
S1133280220F331F441FB395DAF30ED00C94A61506
S113329061307105A0E88A07B94630F49B01AC019E
S11332A06627772788279078309621F0208331830A
S11332B04283538308959F3F31F0915020F48795C2
S11332C077956795B795880F911D9695879597F98A
S11332D00895DB018F939F930E94D419BF91AF91FE
S11332E0A29F800D911DA39F900DB29F900D11245C
S11332F0089597FB072E16F4009407D077FD09D0A4
S11333000E94E71907FC05D03EF4909581959F4FE4
S11333100895709561957F4F0895A1E21A2EAA1B16
S1133320BB1BFD010DC0AA1FBB1FEE1FFF1FA21771
S1133330B307E407F50720F0A21BB30BE40BF50B6E
S1133340661F771F881F991F1A9469F760957095F7
S1133350809590959B01AC01BD01CF010895052E88
S113336097FB1EF400940E94C61957FD07D00E94D3
S11333708D1907FC03D04EF40C94C6195095409552
S1133380309521953F4F4F4F5F4F0895909580950D
S1133390709561957F4F8F4F9F4F0895EE0FFF1FDC
S11333A00590F491E02D09940E94FB19A59F900DBE
S11333B0B49F900DA49F800D911D11240895B7FF13
S11333C00C94D4190E94D419821B930B0895AA1B40
S11333D0BB1B51E107C0AA1FBB1FA617B70710F0FC
S11333E0A61BB70B881F991F5A95A9F7809590952E
S11333F0BC01CD010895A29FB001B39FC001A39F5A
S1133400700D811D1124911DB29F700D811D112419
S1133410911D0895FB01DC0101900D920020E1F75C
S11334200895BB274A3031F4992322F4BDE29095E4
S113343081959F4F0C941D1ABB27FB015527AA2782
S1133440880F991FAA1FA41710F0A41B839550512D
S1133450B9F7A05DAA3308F0A95DA193009779F7A5
S1133460B111B1931192CB010C944F1CAEE0B0E0BA
S1133470ECE3FAE10C94071D0D891E8986E08C8328
S11334801A8309838FEF9FE79E838D83AE01475E86
S11334905F4F6F89788DCE0101960E94581AEF8193
S11334A0F885E00FF11F10822E96E4E00C94231DA2
S11334B0ABE0B0E0EEE5FAE10C94F91C6C017B01A1
S11334C08A01FC0117821682838181FFCCC1CE015F
S11334D001963C01F6019381F70193FD859193FFD9
S11334E081917F01882309F4BAC1853239F493FDAF
S11334F0859193FF81917F01853229F4B60190E093
S11335000E945F1CE7CF912C212C312CFFE1F31595
S1133510D8F08B3279F038F4803279F08332A1F428
S1133520232D20611DC08D3261F0803369F4232D79
S1133530216016C0832D8260382EE32DE4603E2E78
S11335402AC0F32DF8601DC037FC2DC020ED280FD4
S11335502A3040F08E32B9F436FC81C1232D206428
S1133560322E19C036FE06C08AE0989E200D112422
S1133570922E11C0EAE02E9E200D1124222EF32D4E
S1133580F0623F2E08C08C3621F4832D8068382EDB
S113359002C0883641F4F70193FD859193FF819130
S11335A07F018111B3CF982F9F7D9554933028F4D8
S11335B00C5F1F4F9FE399830DC0833631F083372F
S11335C071F0833509F059C021C0F80180818983E5
S11335D00E5F1F4F88248394912C530113C028013C
S11335E0F2E04F0E511CF801A080B18036FE03C0FA
S11335F0692D70E002C06FEF7FEFC5010E94441C8B
S11336004C018201F32DFF773F2E16C0280122E0E2
S1133610420E511CF801A080B18036FE03C0692D12
S113362070E002C06FEF7FEFC5010E94391C4C01AE
S1133630F32DF0683F2E820133FC1BC0822D90E0F5
S113364088169906B0F4B60180E290E00E945F1CEF
S11336502A94F4CFF50137FC859137FE81915F01FF
S1133660B60190E00E945F1C21102A9421E0821A86
S113367091088114910471F7E8C0843611F08936F9
S113368041F5F80137FE07C0608171818281938121
S11336900C5F1F4F08C060817181072E000C880BDE
S11336A0990B0E5F1F4FF32DFF763F2E97FF09C036
S11336B090958095709561957F4F8F4F9F4FF068DF
S11336C03F2E2AE030E0A3010E949B1C882E86181E
S11336D045C0853731F4232D2F7EB22E2AE030E009
S11336E025C0932D997FB92E8F36C1F018F48835F3
S11336F079F0B5C0803719F0883721F0B0C0E92FD0
S1133700E061BE2EB4FE0DC0FB2DF460BF2E09C0D7
S113371034FE0AC0292F2660B22E06C028E030E00D
S113372005C020E130E002C020E132E0F801B7FE3C
S113373007C060817181828193810C5F1F4F06C035
S11337406081718180E090E00E5F1F4FA3010E94B1
S11337509B1C882E8618FB2DFF773F2E36FE0DC04E
S1133760232D2E7FA22E891458F434FE0BC032FC74
S113377009C0832D8E7EA82E05C0B82CA32C03C0AF
S1133780B82C01C0B92CA4FE0FC0FE01E80DF11D38
S11337908081803321F49A2D997EA92E09C0A2FE3E
S11337A006C0B394B39404C08A2D867809F0B39408
S11337B0A3FC11C0A0FE06C0B21488F4280C922CFD
S11337C09B180EC0B21460F4B60180E290E00E942F
S11337D05F1CB394F7CFB21418F42B1802C0982CC2
S11337E0212CA4FE10C0B60180E390E00E945F1C6F
S11337F0A2FE17C0A1FC03C088E790E002C088E5E0
S113380090E0B6010CC08A2D867859F0A1FE02C062
S11338108BE201C080E2A7FC8DE2B60190E00E9439
S11338205F1C891438F4B60180E390E00E945F1CA9
S11338309A94F7CF8A94F301E80DF11D8081B601C3
S113384090E00E945F1C8110F5CF222009F442CE43
S1133850B60180E290E00E945F1C2A94F6CFF60144
S11338608681978102C08FEF9FEF2B96E2E10C9443
S1133870151DFC010590615070400110D8F780952A
S113388090958E0F9F1F0895FC0161507040019028
S11338900110D8F7809590958E0F9F1F0895DC0135
S11338A0FC01672F71917723E1F7329704C07C9173
S11338B06D9370836291AE17BF07C8F308950F9399
S11338C01F93CF93DF93FB01238121FD03C08FEF6F
S11338D09FEF2CC022FF16C0468157812481358179
S11338E04217530744F4A081B1819D012F5F3F4FDC
S11338F0318320838C93268137812F5F3F4F378319
S1133900268314C08B01EC01FB010084F185E02DBA
S11339100995892BE1F6D80116968D919C911797FC
S1133920019617969C938E931697CE01DF91CF91B3
S11339301F910F910895FA01AA27283051F12031DF
S113394081F1E8946F936E7F6E5F7F4F8F4F9F4F2F
S1133950AF4FB1E03ED0B4E03CD0670F781F891F71
S11339609A1FA11D680F791F8A1F911DA11D6A0F3F
S1133970711D811D911DA11D20D009F468943F91F2
S11339802AE0269F11243019305D3193DEF6CF01F1
S11339900895462F4770405D4193B3E00FD0C9F7B7
S11339A0F6CF462F4F70405D4A3318F0495D31FD24
S11339B04052419302D0A9F7EACFB4E0A695979577
S11339C0879577956795BA95C9F70097610571054D
S11339D008959B01AC010A2E069457954795379597
S11339E02795BA95C9F7620F731F841F951FA01DF1
S11339F008952F923F924F925F926F927F928F928F
S1133A009F92AF92BF92CF92DF92EF92FF920F9369
S1133A101F93CF93DF93CDB7DEB7CA1BDB0B0FB673
S1133A20F894DEBF0FBECDBF09942A883988488830
S1133A305F846E847D848C849B84AA84B984C884C6
S1133A40DF80EE80FD800C811B81AA81B981CE0FBD
S1133A50D11D0FB6F894DEBF0FBECDBFED010895A2
S1073A60F894FFCF04
S1133A640000C8420000484200E1084E0142696572
S1133A746E76656E69646F20616C00536973746556
S1133A846D6120646520436C696D610041707265E9
S1133A94746520626F746F6E004163657074617243
S1133AA400436F6E74726F6C65733A00497A717572
S1133AB469657264613A2042746E2032004465720E
S1133AC4656368613A2042746E203300546D702E2D
S1133AD44578743A004300546D702E496E743A006C
S1133AE4482E4D61783A002500482E4D696E3A00FF
S1133AF448756D656461643A0054656D703A0025D7
S1133B046C640050726573696F6E3A0050610041D1
S1133B146C74697475643A00736E6D0046756572ED
S1133B247465004D65646961004C6576650044659F
S1133B347370656A61646F004C6C757669613A00F0
S1133B4450746F526F63696F3A00507265646963AD
S1133B5463696F6E00542E4D61783A00542E4D699A
S1133B646E3A0050726564696363696F6E3A00006B
S9030000FC
