:100000000C947E000C949B000C949B000C941308A1
:100010000C949B000C949B000C949B000C949B00F4
:100020000C949B000C949B000C949B000C94EB0C88
:100030000C94640C0C949B000C949B000C949B00FF
:100040000C949B000C949B000C949B000C949B00C4
:100050000C949B000C949B000C949B000C949B00B4
:100060000C949B000C949B000B0935093A098E09EE
:10007000C609400AAD0A0B0B9F0B07634236B79BBC
:10008000D8A71A39685618AEBAAB558C1D3CB7CCF8
:100090005763BD6DEDFD753EF6177231BF00000070
:1000A000803F08000000BE922449123EABAAAA2A53
:1000B000BECDCCCC4C3E00000080BEABAAAAAA3E6E
:1000C00000000000BF000000803F000000000008AA
:1000D0004178D3BB4387D1133D190E3CC3BD428247
:1000E000AD2B3E68EC8276BED98FE1A93E4C80EF05
:1000F000FFBE01C4FF7F3F000000000011241FBEAF
:10010000CFEFD8E0DEBFCDBF11E0A0E0B1E0E4E288
:10011000FCE202C005900D92A83EB107D9F722E09B
:10012000A8EEB1E001C01D92AE35B207E1F70E9422
:10013000A8080C9410160C940000CF93C82F0E94AE
:10014000BB060E94C3068EE40E94C8060E94C30636
:100150008C2F0E94C8060E94C306CF910C94BF0644
:10016000CF93C0910902C82B8C2F0E949D008C2F29
:1001700084600E949D008AE08A95F1F700C08C2F70
:100180008B7F0E949D008FE39FE10197F1F700C0F4
:100190000000CF910895CF93C82F10920A021092B9
:1001A0000902807F0E94B0008C2F8295807FCF91C2
:1001B0000C94B000CF93C82F81E090E090930A0296
:1001C000809309028C2F807F0E94B0008C2F829533
:1001D000807FCF910C94B000CF93DF93EC01899195
:1001E000882319F00E94DA00FACFDF91CF910895A9
:1001F00080E00E949D002FEF80E792E02150804038
:100200009040E1F700C0000010920A02109209022B
:1002100080E30E94B0008FED9EE20197F1F700C0ED
:10022000000080E30E94B00080E30E94B00080E202
:100230000E94B00088E20E94CB008FED9EE2019701
:10024000F1F700C0000088E00E94CB008FED9EE235
:100250000197F1F700C0000081E00E94CB008FED14
:100260009EE20197F1F700C0000086E00E94CB00FB
:100270008FED9EE20197F1F700C000008CE00E9434
:10028000CB008FED9EE20197F1F700C000000895CA
:100290009B0121503109FC01E60FF71FDC01AD0184
:1002A000481B590B421753073CF44C9152915D93F4
:1002B000408321503109F3CF0895EF92FF920F93BD
:1002C0001F93CF93DF938B019A01FB014AE0E42E49
:1002D000F12CEF01C01BD10B009739F0B7010E9440
:1002E0005912805D8193CB01F4CFF801EC0FFD1F13
:1002F00080E3C217D3071CF421968193FACFBE0185
:10030000C8010E944801F801EC0FFD1F1082CE01C8
:10031000DF91CF911F910F91FF90EF9008952F9251
:100320003F924F925F926F927F928F929F92AF9285
:10033000BF92CF92DF92EF92FF920F931F93CF93D2
:10034000DF934B015C01EA0189010E946A0F6B0196
:100350007C0140E050E0BE01C6010E945D011C012D
:100360000115110509F445C0FE01E80FF91F8EE2E1
:100370008083B801012E000C880B990B0E94A20FFC
:100380009B01AC0160E070E080E291E40E94C41047
:100390002B013C01B601DD0C880B990B0E94A20FCA
:1003A0009B01AC01C501B4010E94860E2FEF221AF9
:1003B000320AC20DD31DA30192010E9457100E9460
:1003C0006A0FDC01CB01A801BE01DF91CF911F9123
:1003D0000F91FF90EF90DF90CF90BF90AF909F90E4
:1003E0008F907F906F905F904F903F902F900C94E4
:1003F0005D01DF91CF911F910F91FF90EF90DF9002
:10040000CF90BF90AF909F908F907F906F905F90B4
:100410004F903F902F900895CF93DF93D82F0E9455
:10042000BB060E94C3068EEE0E94C8060E94C30649
:100430008D2F0E94C8060E94C3060E94BB060E9420
:10044000C3068FEE0E94C8060E94C30680E00E9489
:10045000CE060E94C3060E94D606C82F0E94C3067D
:100460000E94BF060E94BB060E94C3068EEE0E9439
:10047000C8060E94C30681E08D0F0E94C8060E9434
:10048000C3060E94BB060E94C3068FEE0E94C806E8
:100490000E94C30680E00E94CE060E94C3060E940E
:1004A000D606D82F0E94C3060E94BF068C2F90E06C
:1004B000982F88278D0F911DDF91CF910895CF93AD
:1004C000DF93D82FC62F0E94BB060E94C3068EEE74
:1004D0000E94C8060E94C3068D2F0E94C8060E9473
:1004E000C3068C2F0E94C8060E94C306DF91CF91DD
:1004F0000C94BF060F931F93CF93DF93D82F0E94C6
:10050000BB060E94C3068EEE0E94C8060E94C30668
:1005100086EF0E94C8060E94C3060E94BB060E9486
:10052000C3068FEE0E94C8060E94C30680E00E94A8
:10053000CE060E94C3060E94D606C82F0E94C3069C
:100540000E94BB060E94C3068EEE0E94C8060E944F
:10055000C30687EF0E94C8060E94C3060E94BB061E
:100560000E94C3068FEE0E94C8060E94C30680E068
:100570000E94CE060E94C3060E94D606082F0E9443
:10058000C3060E94BB060E94C3068EEE0E94C806E8
:100590000E94C30688EF0E94C8060E94C3060E94FC
:1005A000BB060E94C3068FEE0E94C8060E94C306C7
:1005B00080E00E94CE060E94C3060E94D606182F35
:1005C0000E94C3060E94BF068C2F90E0A0E0B0E01E
:1005D000DC0199278827202F30E0322F2227820F35
:1005E000931FA11DB11D810F911DA11DB11D28E0FB
:1005F00030E02D1B3109BC01CD0104C095958795D4
:10060000779567952A95D2F7DF91CF911F910F913A
:1006100008958AEA0E940C0290930E0280930D02C4
:100620008FEC97E00197F1F700C000008CEA0E9480
:100630000C0290931802809317028FEC97E00197B9
:10064000F1F700C000008EEA0E940C0290931A029B
:10065000809319028FEC97E00197F1F700C000003A
:1006600080EB0E940C0290931402809313028FEC93
:1006700097E00197F1F700C0000082EB0E940C02A6
:1006800090931202809311028FEC97E00197F1F79B
:1006900000C0000084EB0E940C0290931002809333
:1006A0000F028FEC97E00197F1F700C0000086EB96
:1006B0000E940C0290931E0280931D028FEC97E023
:1006C0000197F1F700C0000088EB0E940C029093A4
:1006D0001C0280931B028FEC97E00197F1F700C09A
:1006E00000008AEB0E940C02909316028093150280
:1006F0008FEC97E00197F1F700C000008CEB0E94AF
:100700000C029093200280931F028FEC97E00197D8
:10071000F1F700C000008EEB0E940C0290930C02D7
:1007200080930B028FEC97E00197F1F700C0000077
:1007300008956EE284EF0E945F0287E197E40197DB
:10074000F1F700C0000086EF0E940C02BC0180E0BF
:1007500090E008954F925F926F927F928F929F9256
:10076000AF92BF92CF92DF92EF92FF920F931F93BF
:10077000CF93DF9300D000D01F92CDB7DEB78D832B
:100780000E9499036B017C016D816295660F660F73
:10079000607C6C5C84EF0E945F022D81211105C09A
:1007A0008FE496E40197F1F71AC09D81913029F406
:1007B000AFE2B5E71197F1F712C0BD81B23029F46D
:1007C0008FEE92ED0197F1F70AC09D81933049F4C5
:1007D000AFEBBEE321E0A150B0402040E1F700C004
:1007E00000008D810E947A022B013C0180910F0252
:1007F00090911002A7019601281B390B410951095C
:10080000A0911102B09112020E94B41220E030E8CF
:1008100040E050E00E948F1249015A0180911F026E
:1008200060E070E0782F770F770F770F072E000CBE
:10083000880B990B20910B0230910C028901330F28
:10084000220B330BA9019801280D391D4A1D5B1D90
:100850000E948F12820E931EA41EB51E80EA881A73
:100860008FE0980AA108B108A5019401C501B4015F
:100870000E9449129B01AC016CE055954795379554
:1008800027956A95D1F7A0911B02B0911C020E9496
:10089000BF12C12CE8E0DE2EE12CF12CA70196015D
:1008A0000E948F1229833A834B835C83A0911702A5
:1008B000B0911802A50194010E94BF12A7019601F0
:1008C0000E948F12C980DA80EB80FC80C20ED31E9A
:1008D000E41EF51EA0911302B0911402A701960127
:1008E00030584F4F5F4F0E94B4124B015C01FFE044
:1008F000B694A79497948794FA95D1F760910D02D6
:1009000070910E02660F771F660F771FCB01770F6E
:10091000AA0BBB0B8C0D9D1DAE1DBF1D0D8004C011
:10092000880F991FAA1FBB1F0A94D2F7BC01CD01E3
:100930006E5F7F4F8F4F9F4F24E030E040E050E0EC
:100940000E948F12D301C201821B930BA40BB50B23
:100950009C01AD0180E593ECA0E0B0E0BC01CD01CD
:100960000D8004C095958795779567950A94D2F781
:100970000E94491297FD0BC0660F771F881F991FB1
:10098000A50194010E946D1249015A010AC0A501F6
:1009900094010E946D1249015A01880C991CAA1CED
:1009A000BB1CC501B40120E031E040E050E00E94F2
:1009B0008F12CA01B9010E9449129B01AC01AEED30
:1009C000BBE00E94B4126B017C01A3E4B3EEA5016D
:1009D00094010E94C21220E030E041E050E00E9409
:1009E0008F126701FF24D7FCF094EF2CDA01C901C4
:1009F0008C0D9D1DAE1DBF1DBC01CD016153714FFE
:100A00008F4F9F4F20E130E040E050E00E948F1276
:100A1000C501B401620F731F841F951F0F900F90C3
:100A20000F900F900F90DF91CF911F910F91FF903A
:100A3000EF90DF90CF90BF90AF909F908F907F907E
:100A40006F905F904F9008952DEC3BE841E050E0AF
:100A50000E948F12CA01B9010E94A20F21E03EED4F
:100A600042E45EE30E94C4109B01AC0160E070E0D0
:100A700080E89FE30E94860E20E03AE24DE257E4D0
:100A80000E94571008952FEF87EA91E62150804089
:100A90009040E1F700C00000109221020895AF924B
:100AA000BF92CF92DF92EF92FF920F931F93CF935B
:100AB000DF9300D000D01F92CDB7DEB7FE01319694
:100AC00025E0DF011D922A95E9F710922102419855
:100AD000399ABFEF29EF30E0B15020403040E1F7C4
:100AE00000C00000419A39982FE1319B09C04AE0CB
:100AF0004A95F1F700C02150C1F724E0209321026C
:100B000020912102211118C023E3319909C05AE034
:100B10005A95F1F700C02150C1F724E0209321023B
:100B200023E3319B09C0AAE0AA95F1F700C0215048
:100B3000C1F724E02093210220912102211141C01C
:100B400030E0C12CD12C7601C39444E0A42E27E0E0
:100B500044E231990AC0BAE0BA95F1F700C04150B9
:100B6000C1F7A09221022FEF35E0409121024111FF
:100B700022C04AEB4A95F1F700C0319B11C08F01AA
:100B8000030F111DD801BC90B701A601022E04C0AD
:100B9000440F551F661F771F0A94D2F74B294C93B9
:100BA00043E3319B08C0BAE0BA95F1F700C0415069
:100BB000C1F7A0922102215027FFCACF3F5F3530F5
:100BC00030F220912102211116C039812A81230F90
:100BD0003B81230F3C81230F3D81231721F083E0CC
:100BE0008093210208C0DC01CE01059621912D934E
:100BF000E817F907D9F70F900F900F900F900F900B
:100C0000DF91CF911F910F91FF90EF90DF90CF90E8
:100C1000BF90AF9008958F929F92AF92BF92CF9264
:100C2000DF92EF92FF920F931F93CF93DF9300D049
:100C300000D0CDB7DEB78C017B0119821A821B82EE
:100C40001C82CE0101960E944F05809121028111E4
:100C500072C08C816B817C817627672776279B8188
:100C600097FF0FC09F77682F70E0792B072E000C3D
:100C7000880B990B0E94A20F20E030E040E251EC7B
:100C80000AC0072E000C880B990B0E94A20F20E0CF
:100C900030E040E251E40E94F80EF8016083718375
:100CA0008283938369817A81762767277627072E47
:100CB000000C880B990B0E94A20F20E030E040E26C
:100CC00051E40E94F80E4B015C01F70160837183CF
:100CD00082839383F801C080D180E280F38020E09A
:100CE00030E040E252ECC701B6010E94F30E87FDEE
:100CF0000AC020E030E040EA52E4C701B6010E9499
:100D00005210181614F482E014C020E030E0A9015B
:100D1000C501B4010E94F30E87FD0AC020E030E057
:100D200048EC52E4C501B4010E94521018161CF49C
:100D300081E0809321020F900F900F900F90DF9130
:100D4000CF911F910F91FF90EF90DF90CF90BF90C8
:100D5000AF909F908F9008958CE08093B800E9EB5E
:100D6000F0E080818C7F80838FEF8093BB0084E0F4
:100D70008093BC00089584EA8093BC00089584E9C0
:100D80008093BC0008958091BC0087FFFCCF08953C
:100D90008093BB0084E88093BC000895882311F001
:100DA00084EC01C084E88093BC0008958091BB006E
:100DB0000895CF93DF93EC010E94BB060E94C30607
:100DC00080ED0E94C8060E94C30680E00E94C8060B
:100DD0000E94C3060E94BF060E94BB060E94C30673
:100DE00081ED0E94C8060E94C30681E00E94CE06E3
:100DF0000E94C3060E94D606888381E00E94CE0628
:100E00000E94C3060E94D606898381E00E94CE0616
:100E10000E94C3060E94D6068A8381E00E94CE0605
:100E20000E94C3060E94D6068B8381E00E94CE06F4
:100E30000E94C3060E94D6068C8381E00E94CE06E3
:100E40000E94C3060E94D6068D8380E00E94CE06D3
:100E50000E94C3060E94D6068E830E94C306DF91BD
:100E6000CF910C94BF06ECE7F0E080818064808332
:100E7000EEE7F0E0808181608083EAE7F0E0808146
:100E800087688083808180648083089580917A0060
:100E9000806480937A0080917A0086FDFCCF8091F7
:100EA000780090917900089584B1887F84B985B1E4
:100EB000876085B9EBE6F0E0808187608083E8E6B3
:100EC000F0E080818160808308958F929F92AF923D
:100ED000BF92CF92DF92EF92FF9220E030E048EC99
:100EE00052E460913F0270914002809141029091E2
:100EF00042020E94F80E20E030E040E05EE30E94F3
:100F0000C4104B015C01C0903A02D0903B02E090CB
:100F10003C02F0903D0226E636E646E65FE3C70176
:100F2000B6010E94571020E030E040EE52E40E94EB
:100F3000870EA50194010E9457104B015C012DEC16
:100F40003CEC4CEC5DE3C701B6010E9457109B01DD
:100F5000AC01C501B4010E94870E20E030E04CEDE9
:100F600052E40E94860EFF90EF90DF90CF90BF90EA
:100F7000AF909F908F9008950097C1F480916B007F
:100F80008E7F80936B002FEF89EF90E0215080409F
:100F90009040E1F700C00000189904C080916B00F8
:100FA000816034C080916B00816037C081309105D1
:100FB000C1F480916B008D7F80936B002FEF89EFE0
:100FC00090E0215080409040E1F700C00000199966
:100FD00004C080916B00826019C080916B008260B8
:100FE0001CC00297F9F480916B008B7F80936B009B
:100FF0002FEF89EF90E0215080409040E1F700C052
:1010000000001A9907C080916B00846080936B0088
:1010100081E006C080916B00846080936B0080E06B
:1010200090E0089508951F920F920FB60F92112429
:101030002F933F934F935F936F937F938F939F93E0
:10104000AF93BF93EF93FF9318990FC080E090E0A8
:101050000E94BC07892B21F081E080933E0202C0F0
:1010600010923E02109252021DC019990EC081E0EA
:1010700090E00E94BC07892B99F310923E021092D7
:10108000520281E0809353020FC01A990DC082E092
:1010900090E00E94BC07892B19F310923E0281E078
:1010A0008093520210925302FF91EF91BF91AF9142
:1010B0009F918F917F916F915F914F913F912F9170
:1010C0000F900FBE0F901F901895CF93DF930E9443
:1010D000BB060E94C30680E90E94C8060E94C306A0
:1010E00080E00E94C8060E94C3060E94BB060E94C0
:1010F000C30681E90E94C8060E94C30681E00E94DF
:10110000CE060E94C3060E94D606D82F0E94C306B0
:1011100080E00E94CE060E94C3060E94D606C82F19
:101120000E94C3060E94BF061092BC008C2F90E064
:101130009D2B34E0959587953A95E1F797FD0F96AD
:1011400024E0959587952A95E1F7DF91CF91089551
:10115000CF93DF93CDB7DEB7AB970FB6F894DEBF72
:101160000FBECDBF0E9454070E94AC060E94F8003B
:101170000E9433070E9409030E94430585E0E0E0D6
:10118000F1E0DE01979601900D928A95E1F74FA16B
:1011900058A569A57AA58BA50E94090E8BE492E05B
:1011A0000E94D906789485E091E00E94EC0080ECE2
:1011B0000E94CB0080E191E00E94EC002FEF8BE7D2
:1011C00092E9215080409040E1F700C0000081E0AA
:1011D0000E94CB0080E291E00E94EC0080EC0E9433
:1011E000CB008EE291E00E94EC0010E083E2E82E5A
:1011F00084EFF82E91E9C92E91E0D92ECE01019607
:101200005C01812F90E0FC0189309105E0F7EC5CF6
:10121000FF4F0C94AE1280913E02882391F381E03F
:101220000E94CB0086E391E00E94EC009FEF27EA4A
:1012300081E6915020408040E1F700C0000081E04D
:101240000E94CB0081E491E00E94EC0080EC0E94BF
:10125000CB0082E591E00E94EC0010923E021092D9
:1012600053021092520211E0CCCF80913E028823AB
:1012700041F2B7C280915302882339F010920802DC
:10128000109289001092880018C28091520288231F
:1012900019F01092080281C080910102882309F49C
:1012A000B0CF60913A0270913B0280913C029091E4
:1012B0003D026093430270934402809345029093F1
:1012C000460221E030E0AE014F5D5F4F0E948F018A
:1012D00081E00E94CB008BE891E00E94EC00CE01FF
:1012E00081960E94EC008FED0E94DA008AE691E080
:1012F0000E94EC0046E0BE01675F7F4F80912202B2
:10130000909123020E94F11280EC0E94CB008CE6A7
:1013100091E00E94EC00CE01099609C2809153022F
:10132000882319F0109206025CC280915202882331
:1013300019F010920602AAC080910102882309F4D4
:1013400060CF60913F027091400280914102909184
:10135000420260934702709348028093490290933F
:101360004A0221E030E0AE01455E5F4F0E948F01EE
:1013700081E00E94CB0080E891E00E94EC00CE0169
:101380004B960E94EC0089E891E099C2809153024B
:10139000882309F441C0109207021092890010922C
:1013A00088006FE372E08AE392E00E940B0660918E
:1013B0003F027091400280914102909142026093FD
:1013C0004702709348028093490290934A0221E0B9
:1013D00030E0AE01455E5F4F0E948F0181E00E94C8
:1013E000CB0080E891E00E94EC00CE014B960E9479
:1013F000EC0089E891E00E94EC00F0928900E09214
:10140000880081E08093060210923E0210925302FF
:101410001092520213E0F5CE80915202882319F007
:1014200010920702A1C080910102882309F4E9CE3D
:10143000809159028F93809158028F938091570227
:101440008F93809156028F93DF92CF92BF92AF928B
:101450000E94161381E00E94CB0085E991E00E9472
:10146000EC00C5010E94EC008EE991E00E94EC00C6
:10147000109201020FB6F894DEBF0FBECDBFC1CEF1
:10148000809153028823E9F110920502109289009D
:101490001092880081E00E94AA0360935602709324
:1014A000570280935802909359029F938F937F9392
:1014B0006F93DF92CF92BF92AF920E94161381E09A
:1014C0000E94CB0085E991E00E94EC00C5010E94DA
:1014D000EC008EE991E00E94EC00F0928900E0922D
:1014E000880081E08093070210923E02109253021E
:1014F000109252020FB6F894DEBF0FBECDBF14E0BB
:1015000080CE80915202882319F0109205028AC081
:1015100080910102882309F474CE609136027091A3
:101520003702809138029091390221E030E0AE011B
:101530004B5E5F4F0E948F0181E00E94CB0081EAE9
:1015400091E00E94EC00CE0145960E94EC0080ECF8
:101550000E94CB008AEA91E0B2C1809153028823B5
:1015600009F443C01092040210928900109288007E
:1015700081E00E94AA036093560270935702809301
:101580005802909359020E9424056093360270938A
:101590003702809338029093390221E030E0AE01A7
:1015A0004B5E5F4F0E948F0181E00E94CB0081EA79
:1015B00091E00E94EC00CE0145960E94EC0080EC88
:1015C0000E94CB008AEA91E00E94EC00F092890030
:1015D000E092880081E08093050210923E02109212
:1015E00053021092520215E00CCE809152028823D1
:1015F00019F010920402AAC080910102882309F414
:1016000000CE81E00E94CB008AEC91E00E94EC00C9
:1016100087E292E054C180915302882309F440C0CC
:101620001092030210928900109288000E944607CF
:1016300090932602809325028C3221E092071CF4BD
:101640006EEA71E00FC0843F21E092071CF465EB65
:1016500071E008C0803293401CF46BEB71E002C073
:1016600060EC71E087E292E00E94EA1281E00E9461
:10167000CB008AEC91E00E94EC0087E292E00E94AD
:10168000EC00F0928900E092880081E080930402EF
:1016900010923E02109253021092520216E0B1CD07
:1016A000809152028823E1F0109203021092890087
:1016B0001092880081E00E94CB0085E791E00E94B3
:1016C000EC00F0928900E092880081E080930202B1
:1016D00010923E02109253021092520218E091CDE5
:1016E00080910102882309F48CCD20913F02309132
:1016F0004002409141025091420260913A02709141
:101700003B0280913C0290913D020E94650721E0DE
:1017100030E0AE01415F5F4F0E948F0181E00E9487
:10172000CB0082ED91E00E94EC00CE010F960E946A
:10173000EC008FED0E94DA008AE691E0C0C0809153
:101740005302882309F446C01092020210928900C5
:10175000109288006FE372E08AE392E00E940B0629
:1017600020913F023091400240914102509142024B
:1017700060913A0270913B0280913C0290913D024F
:101780000E94650721E030E0AE01415F5F4F0E949B
:101790008F0181E00E94CB0082ED91E00E94EC007D
:1017A000CE010F960E94EC008FED0E94DA008AE6CF
:1017B00091E00E94EC00F0928900E092880081E0C4
:1017C0008093030210923E02109253021092520232
:1017D00017E017CD80915202882309F466C0109259
:1017E000020210928900109288006FE372E08AE38F
:1017F00092E00E940B060E9465089093230280935A
:10180000220260913A0270913B0280913C029091D9
:101810003D0260934302709344028093450290938B
:10182000460221E030E0AE014F5D5F4F0E948F0124
:1018300046E0BE01675F7F4F8091220290912302B4
:101840000E94F11281E00E94CB0081E691E00E94AB
:10185000EC00CE0181960E94EC008FED0E94DA0030
:101860008AE691E00E94EC0080EC0E94CB008CE6BE
:1018700091E00E94EC00CE0109960E94EC008FEDF1
:101880000E94DA008AE691E00E94EC00F092890062
:10189000E092880081E08093080210923E0210924C
:1018A00053021092520212E0ACCC809101028823C4
:1018B00009F4A7CC81E00E94CB008CED91E00E945E
:1018C000EC00109201029DCC1F920F920FB60F9266
:1018D00011242F933F934F935F936F937F938F9335
:1018E0009F93AF93BF93EF93FF9320910802809152
:1018F000060290910302822B11F4992361F06FE3A9
:1019000072E08AE392E00E940B060E9465089093C1
:1019100023028093220280910702882359F081E0FC
:101920000E94AA0360935602709357028093580254
:1019300090935902809105028823A9F081E00E94CA
:10194000AA036093560270935702809358029093B3
:1019500059020E94240560933602709337028093E7
:1019600038029093390280910402882301F10E9489
:10197000460790932602809325028C3221E092073D
:101980001CF46EEA71E00FC0843F21E092071CF462
:1019900065EB71E008C0803293401CF46BEB71E0A2
:1019A00002C060EC71E087E292E00E94EA1281E0FE
:1019B00080930102FF91EF91BF91AF919F918F9121
:1019C0007F916F915F914F913F912F910F900FBE3B
:1019D0000F901F9018951F920F920FB60F9211241F
:1019E0008F929F92AF92BF92CF92DF92EF92FF922F
:1019F0000F931F932F933F934F935F936F937F9317
:101A00008F939F93AF93BF93EF93FF93CF93DF9306
:101A100000D000D0CDB7DEB76FE372E08AE392E08A
:101A20000E940B060E946508909323028093220275
:101A300081E00E94AA03609356027093570280933C
:101A40005802909359020E942405609336027093C5
:101A5000370280933802909339020E9446078C0126
:101A60009093260280932502F0903F02B0904002AE
:101A7000C0904102D0904202E0903A0280903B0236
:101A800090903C02A0903D022F2D3B2DA6016E2D83
:101A9000782D892D9A2D0E94650769837A838B831F
:101AA0009C830C3281E018071CF46EEA71E010C0D0
:101AB000043F81E018071CF465EB71E009C00032B7
:101AC00083E018071CF46BEB71E002C060EC71E07E
:101AD00087E292E00E94EA128E2D982DA92DBA2D50
:101AE0008093430290934402A0934502B093460230
:101AF0008F2D9B2DD6018093470290934802A0938F
:101B00004902B0934A02E092E80180914402809336
:101B1000E901809145028093EA0180914602809319
:101B2000EB01F092EC01809148028093ED018091ED
:101B300049028093EE0180914A028093EF018091E7
:101B400056029091570220915802309159023093D9
:101B5000F0012093F1019093F2018093F3018091C1
:101B600036028093F401809137028093F5018091D1
:101B700038028093F601809139028093F701109327
:101B8000F8010093F90189818093FA018A81809399
:101B9000FB018B818093FC01CE0105969093550249
:101BA000809354028C818093FD0180912402809364
:101BB000FE0180912202909123029093FF01809375
:101BC000000281E08093010288EE91E00E94730E92
:101BD0000F900F900F900F90DF91CF91FF91EF91A9
:101BE000BF91AF919F918F917F916F915F914F9135
:101BF0003F912F911F910F91FF90EF90DF90CF9029
:101C0000BF90AF909F908F900F900FBE0F901F903E
:101C100018951F93CF93DF9300D000D01F92CDB7BC
:101C2000DEB749835A83162F6B837C838D8329818A
:101C30003A8140E050E060E472E48FE090E00E947E
:101C40006D122150310930935D0220935C02309374
:101C5000C50080915C028093C40088E18093C1003C
:101C6000812F90E0193010F0029701C00597209164
:101C70005A0230915B02822B932B90935B028093EC
:101C80005A022091C200880F991F822B8093C200B4
:101C90002091C2009D81892F90E0019743E0880F39
:101CA000991F4A95E1F7822B8093C2008C8185347D
:101CB00021F08F3439F480E303C08091C200806248
:101CC0008093C20080E00F900F900F900F900F90C4
:101CD000DF91CF911F9108959091C00095FFFCCFA7
:101CE0008093C60008950F931F93CF93DF93EC0169
:101CF0008C01075E1F4F89910E946C0EC017D1079F
:101D0000D1F7DF91CF911F910F9108955058BB27C4
:101D1000AA270E949E0E0C9418100E940A1038F0F8
:101D20000E94111020F039F49F3F19F426F40C940E
:101D300007100EF4E095E7FB0C940110E92F0E94C8
:101D4000291058F3BA17620773078407950720F024
:101D500079F4A6F50C944B100EF4E0950B2EBA2FE7
:101D6000A02D0B01B90190010C01CA01A0011124A1
:101D7000FF27591B99F0593F50F4503E68F11A164D
:101D8000F040A22F232F342F4427585FF3CF4695DE
:101D900037952795A795F0405395C9F77EF41F1600
:101DA000BA0B620B730B840BBAF09150A1F0FF0FCA
:101DB000BB1F661F771F881FC2F70EC0BA0F621FB6
:101DC000731F841F48F4879577956795B795F795A6
:101DD0009E3F08F0B0CF9395880F08F09927EE0F3B
:101DE0009795879508950E94DD0F08F481E0089586
:101DF0000E940C0F0C9418100E94111058F00E94B1
:101E00000A1040F029F45F3F29F00C9401105111A1
:101E10000C944C100C9407100E94291068F399231D
:101E2000B1F3552391F3951B550BBB27AA276217D6
:101E30007307840738F09F5F5F4F220F331F441FE3
:101E4000AA1FA9F335D00E2E3AF0E0E832D0915017
:101E50005040E695001CCAF72BD0FE2F29D0660F04
:101E6000771F881FBB1F261737074807AB07B0E847
:101E700009F0BB0B802DBF01FF2793585F4F3AF04D
:101E80009E3F510578F00C9401100C944C105F3F6C
:101E9000E4F3983ED4F3869577956795B795F795D3
:101EA0009F5FC9F7880F911D9695879597F90895BB
:101EB000E1E0660F771F881FBB1F62177307840757
:101EC000BA0720F0621B730B840BBA0BEE1F88F766
:101ED000E09508950E94710F6894B1110C944C1014
:101EE00008950E94311088F09F5798F0B92F9927D4
:101EF000B751B0F0E1F0660F771F881F991F1AF0F5
:101F0000BA95C9F714C0B13091F00E944B10B1E0FE
:101F100008950C944B10672F782F8827B85F39F0FD
:101F2000B93FCCF3869577956795B395D9F73EF48D
:101F300090958095709561957F4F8F4F9F4F089535
:101F4000E89409C097FB3EF4909580957095619553
:101F50007F4F8F4F9F4F9923A9F0F92F96E9BB2709
:101F60009395F695879577956795B795F111F8CF85
:101F7000FAF4BB0F11F460FF1BC06F5F7F4F8F4FF0
:101F80009F4F16C0882311F096E911C0772321F0E6
:101F90009EE8872F762F05C0662371F096E8862F7E
:101FA00070E060E02AF09A95660F771F881FDAF7D5
:101FB000880F9695879597F90895990F0008550F02
:101FC000AA0BE0E8FEEF16161706E807F907C0F0BF
:101FD00012161306E407F50798F0621B730B840BC7
:101FE000950B39F40A2661F0232B242B252B21F4A1
:101FF00008950A2609F4A140A6958FEF811D811D41
:10200000089597F99F6780E870E060E008959FEF7A
:1020100080EC089500240A9416161706180609067F
:10202000089500240A94121613061406050608954E
:10203000092E0394000C11F4882352F0BB0F40F4D6
:10204000BF2B11F460FF04C06F5F7F4F8F4F9F4F16
:10205000089557FD9058440F551F59F05F3F71F098
:102060004795880F97FB991F61F09F3F79F08795FF
:102070000895121613061406551FF2CF4695F1DF88
:1020800008C0161617061806991FF1CF8695710518
:10209000610508940895E894BB2766277727CB014C
:1020A00097F908950E94DD0F08F48FEF08950E94BC
:1020B0006A100C9418100E940A1038F00E94111037
:1020C00020F0952311F00C9401100C9407101124AA
:1020D0000C944C100E94291070F3959FC1F3950F3A
:1020E00050E0551F629FF001729FBB27F00DB11D9C
:1020F000639FAA27F00DB11DAA1F649F6627B00D2C
:10210000A11D661F829F2227B00DA11D621F739F14
:10211000B00DA11D621F839FA00D611D221F749F22
:102120003327A00D611D231F849F600D211D822F69
:10213000762F6A2F11249F5750409AF0F1F0882390
:102140004AF0EE0FFF1FBB1F661F771F881F9150BD
:102150005040A9F79E3F510580F00C9401100C945B
:102160004C105F3FE4F3983ED4F3869577956795DE
:10217000B795F795E7959F5FC1F7FE2B880F911DE7
:102180009695879597F90895FA01EE0FFF1F3096FF
:1021900021053105A1F16115710561F48038BFE3B6
:1021A0009B0749F168949038810561F08038BFEF52
:1021B0009B0741F099234AF5FF3FE10531052105D1
:1021C00019F1E8940894E795D901AA2329F4AB2FD3
:1021D000BE2FF85FD0F310C0FF5F70F4A695E0F754
:1021E000F73950F019F0FF3A38F49F779F930DD0EC
:1021F0000F9007FC9058089546F00C94071060E08B
:1022000070E080E89FE308954FE79F775F934F93D7
:102210003F932F930E94BF112F913F914F915F9158
:102220000E9457100C941C1129F416F00C94011004
:102230000C944B100C9407100E943110A8F39638A0
:10224000A0F707F80F92E8942BE33AEA48EB5FE730
:102250000E946D100F920F920F924DB75EB70F92C2
:102260000E940712EAE7F0E00E944E114F915F9141
:10227000EF91FF91E595EE1FFF1F49F0FE57E068D3
:102280004427EE0F441FFA95E1F74195550B0E9444
:1022900081110F9007FE0C9475110895DF93CF9371
:1022A0001F930F93FF92EF92DF927B018C01689452
:1022B00006C0DA2EEF010E946A10FE01E894A59193
:1022C0002591359145915591A6F3EF010E949E0EFF
:1022D000FE019701A801DA9469F7DF90EF90FF9073
:1022E0000F911F91CF91DF9108959B01AC0160E0A8
:1022F00070E080E89FE30C94F80E0C9401100C94AD
:102300003B120E943110D8F39923C9F3940F511D49
:10231000A3F39150504094F059F0882332F0660FA7
:10232000771F881F91505040C1F79E3F51052CF7F1
:10233000880F911D9695879597F908955F3FACF0AA
:10234000983E9CF0BB27869577956795B79508F4DE
:10235000B1609395C1F7BB0F58F711F460FFE8CF58
:102360006F5F7F4F8F4F9F4FE3CF0C944C1016F051
:102370000C943B120C94071068940C9401100E946A
:102380003110A8F39923C1F3AEF3DF93CF931F93DA
:102390000F93FF92C92FDD2788232AF02197660F1C
:1023A000771F881FDAF720E030E040E85FEB9FE31B
:1023B000883920F0803E38F021968F770E94870E72
:1023C000E2EAF0E004C00E94870EEFECF0E00E9429
:1023D0004E118B01BE01EC01FB2E6F5771097595F3
:1023E000771F880B990B0E94A20F28E132E741E387
:1023F0005FE30E946A10AF2D9801AE01FF900F912C
:102400001F91CF91DF910E949E0E0C941810FA013B
:10241000DC01AA0FBB1F9B01AC01BF5728F4222788
:1024200033274427507820C0B75190F4AB2F0024B5
:10243000469537952795011CA395D2F3002071F09E
:10244000220F331F441FB395DAF30ED00C94860E7F
:1024500061307105A0E88A07B94630F49B01AC01F0
:102460006627772788279078309621F0208331835C
:102470004283538308959F3F31F0915020F4879514
:1024800077956795B795880F911D9695879597F9DC
:102490000895DB018F939F930E94B412BF91AF9177
:1024A000A29F800D911DA39F900DB29F900D1124AE
:1024B000089597FB072E16F4009407D077FD09D0F6
:1024C0000E94C71207FC05D03EF4909581959F4F5E
:1024D0000895709561957F4F0895A1E21A2EAA1B69
:1024E000BB1BFD010DC0AA1FBB1FEE1FFF1FA217C4
:1024F000B307E407F50720F0A21BB30BE40BF50BC1
:10250000661F771F881F991F1A9469F76095709549
:10251000809590959B01AC01BD01CF010895052EDA
:1025200097FB1EF400940E94A61257FD07D00E944C
:102530006D1207FC03D04EF40C94A61250954095F2
:10254000309521953F4F4F4F5F4F0895909580955F
:10255000709561957F4F8F4F9F4F0895EE0FFF1F2E
:102560000590F491E02D09940E94DB12A59F900D37
:10257000B49F900DA49F800D911D11240895B7FF65
:102580000C94B4120E94B412821B930B0895AA1BE0
:10259000BB1B51E107C0AA1FBB1FA617B70710F04E
:1025A000A61BB70B881F991F5A95A9F78095909580
:1025B000BC01CD010895A29FB001B39FC001A39FAC
:1025C000700D811D1124911DB29F700D811D11246C
:1025D000911D0895FB01DC0101900D920020E1F7AF
:1025E0000895BB274A3031F4992322F4BDE2909537
:1025F00081959F4F0C94FD12BB27FB015527AA27FD
:10260000880F991FAA1FA41710F0A41B839550517F
:10261000B9F7A05DAA3308F0A95DA193009779F7F7
:10262000B111B1931192CB010C942F15AEE0B0E033
:10263000ECE1F3E10C94E7150D891E8986E08C83AB
:102640001A8309838FEF9FE79E838D83AE01475ED8
:102650005F4F6F89788DCE0101960E943813EF810C
:10266000F885E00FF11F10822E96E4E00C9403161B
:10267000ABE0B0E0EEE3F3E10C94D9156C017B0123
:102680008A01FC0117821682838181FFCCC1CE01B1
:1026900001963C01F6019381F70193FD859193FF2B
:1026A00081917F01882309F4BAC1853239F493FD01
:1026B000859193FF81917F01853229F4B60190E0E5
:1026C0000E943F15E7CF912C212C312CFFE1F3150F
:1026D000D8F08B3279F038F4803279F08332A1F47B
:1026E000232D20611DC08D3261F0803369F4232DCC
:1026F000216016C0832D8260382EE32DE4603E2ECB
:102700002AC0F32DF8601DC037FC2DC020ED280F26
:102710002A3040F08E32B9F436FC81C1232D20647A
:10272000322E19C036FE06C08AE0989E200D112474
:10273000922E11C0EAE02E9E200D1124222EF32DA0
:10274000F0623F2E08C08C3621F4832D8068382E2D
:1027500002C0883641F4F70193FD859193FF819182
:102760007F018111B3CF982F9F7D9554933028F42A
:102770000C5F1F4F9FE399830DC0833631F0833781
:1027800071F0833509F059C021C0F8018081898337
:102790000E5F1F4F88248394912C530113C028018E
:1027A000F2E04F0E511CF801A080B18036FE03C04C
:1027B000692D70E002C06FEF7FEFC5010E94241504
:1027C0004C018201F32DFF773F2E16C0280122E035
:1027D000420E511CF801A080B18036FE03C0692D65
:1027E00070E002C06FEF7FEFC5010E9419154C0128
:1027F000F32DF0683F2E820133FC1BC0822D90E048
:1028000088169906B0F4B60180E290E00E943F1568
:102810002A94F4CFF50137FC859137FE81915F0151
:10282000B60190E00E943F1521102A9421E0821AFF
:1028300091088114910471F7E8C0843611F089364B
:1028400041F5F80137FE07C0608171818281938173
:102850000C5F1F4F08C060817181072E000C880B30
:10286000990B0E5F1F4FF32DFF763F2E97FF09C088
:1028700090958095709561957F4F8F4F9F4FF06831
:102880003F2E2AE030E0A3010E947B15882E861897
:1028900045C0853731F4232D2F7EB22E2AE030E05B
:1028A00025C0932D997FB92E8F36C1F018F4883545
:1028B00079F0B5C0803719F0883721F0B0C0E92F22
:1028C000E061BE2EB4FE0DC0FB2DF460BF2E09C02A
:1028D00034FE0AC0292F2660B22E06C028E030E060
:1028E00005C020E130E002C020E132E0F801B7FE8F
:1028F00007C060817181828193810C5F1F4F06C088
:102900006081718180E090E00E5F1F4FA3010E9403
:102910007B15882E8618FB2DFF773F2E36FE0DC0C7
:10292000232D2E7FA22E891458F434FE0BC032FCC6
:1029300009C0832D8E7EA82E05C0B82CA32C03C001
:10294000B82C01C0B92CA4FE0FC0FE01E80DF11D8A
:102950008081803321F49A2D997EA92E09C0A2FE90
:1029600006C0B394B39404C08A2D867809F0B3945A
:10297000A3FC11C0A0FE06C0B21488F4280C922C4F
:102980009B180EC0B21460F4B60180E290E00E9481
:102990003F15B394F7CFB21418F42B1802C0982C3B
:1029A000212CA4FE10C0B60180E390E00E943F15E8
:1029B000A2FE17C0A1FC03C088E790E002C088E532
:1029C00090E0B6010CC08A2D867859F0A1FE02C0B5
:1029D0008BE201C080E2A7FC8DE2B60190E00E948C
:1029E0003F15891438F4B60180E390E00E943F154A
:1029F0009A94F7CF8A94F301E80DF11D8081B60116
:102A000090E00E943F158110F5CF222009F442CEBC
:102A1000B60180E290E00E943F152A94F6CFF601BD
:102A20008681978102C08FEF9FEF2B96E2E10C9495
:102A3000F515FC010590615070400110D8F78095A4
:102A400090958E0F9F1F0895FC016150704001907A
:102A50000110D8F7809590958E0F9F1F0895DC0187
:102A6000FC01672F71917723E1F7329704C07C91C5
:102A70006D9370836291AE17BF07C8F308950F93EB
:102A80001F93CF93DF93FB01238121FD03C08FEFC1
:102A90009FEF2CC022FF16C04681578124813581CB
:102AA0004217530744F4A081B1819D012F5F3F4F2E
:102AB000318320838C93268137812F5F3F4F37836B
:102AC000268314C08B01EC01FB010084F185E02D0D
:102AD0000995892BE1F6D80116968D919C9117974F
:102AE000019617969C938E931697CE01DF91CF9106
:102AF0001F910F910895FA01AA27283051F1203132
:102B000081F1E8946F936E7F6E5F7F4F8F4F9F4F81
:102B1000AF4FB1E03ED0B4E03CD0670F781F891FC3
:102B20009A1FA11D680F791F8A1F911DA11D6A0F91
:102B3000711D811D911DA11D20D009F468943F9144
:102B40002AE0269F11243019305D3193DEF6CF0143
:102B50000895462F4770405D4193B3E00FD0C9F709
:102B6000F6CF462F4F70405D4A3318F0495D31FD76
:102B70004052419302D0A9F7EACFB4E0A6959795C9
:102B8000879577956795BA95C9F70097610571059F
:102B900008959B01AC010A2E0694579547953795E9
:102BA0002795BA95C9F7620F731F841F951FA01D43
:102BB00008952F923F924F925F926F927F928F92E1
:102BC0009F92AF92BF92CF92DF92EF92FF920F93BC
:102BD0001F93CF93DF93CDB7DEB7CA1BDB0B0FB6C6
:102BE000F894DEBF0FBECDBF09942A883988488883
:102BF0005F846E847D848C849B84AA84B984C88419
:102C0000DF80EE80FD800C811B81AA81B981CE0F0F
:102C1000D11D0FB6F894DEBF0FBECDBFED010895F4
:042C2000F894FFCF56
:102C240000E1084E014269656E76656E69646F0065
:102C340053697374656D6120436C696D6121210072
:102C440041707265746520626F746F6E3A004163FF
:102C5400657074617200436F6E74726F6C65733A61
:102C640000497A717569657264613A2042746E2014
:102C74003100446572656368613A2042746E2033A2
:102C840000546D702E4578743A004300546D702ED4
:102C9400496E743A0050726564696363696F6E00CB
:102CA40048756D656461643A00250054656D703A39
:102CB40000256C640050726573696F6E3A00506150
:102CC40000416C74697475643A00736E6D004675E6
:102CD40065727465004D65646961004C65766500D4
:102CE40044657370656A61646F004C6C75766961E4
:102CF4003A0050746F526F63696F3D00507265649F
:082D0400696363696F6E3A0018
:00000001FF
