:100000000C9480000C949D000C949D000C9471083D
:100010000C949D000C949D000C949D000C949D00EC
:100020000C949D000C949D000C949D000C948311E5
:100030000C9432130C949D000C949D000C949D0024
:100040000C949D000C949D000C949D000C949D00BC
:100050000C949D000C949D000C949D000C949D00AC
:100060000C949D000C949D00BB09E5094B0A340BD0
:100070000A0CC10C840D260ED20E840F801007636B
:100080004236B79BD8A71A39685618AEBAAB558C0A
:100090001D3CB7CC5763BD6DEDFD753EF617723153
:1000A000BF000000803F08000000BE922449123EBD
:1000B000ABAAAA2ABECDCCCC4C3E00000080BEAB81
:1000C000AAAAAA3E00000000BF000000803F000076
:1000D000000000084178D3BB4387D1133D190E3C83
:1000E000C3BD4282AD2B3E68EC8276BED98FE1A9BA
:1000F0003E4C80EFFFBE01C4FF7F3F0000000000C8
:1001000011241FBECFEFD8E0DEBFCDBF12E0A0E0CC
:10011000B1E0E4E2F8E302C005900D92AC30B10723
:10012000D9F722E0ACE0B2E001C01D92AA38B207D4
:10013000E1F70E943B090C94101C0C940000CF9333
:10014000C82F0E940B070E9413078EE40E94190714
:100150000E9413078C2F0E9419070E9413070E9408
:100160000F07CF910895CF93C0912D02C82B8C2FEC
:100170000E949F008C2F84600E949F008AE08A95D5
:10018000F1F700C08C2F8B7F0E949F008FE39FE1CF
:100190000197F1F700C00000CF910895CF93C82FC9
:1001A00010922E0210922D02807F0E94B3008C2F9D
:1001B0008295807F0E94B300CF910895CF93C82F7E
:1001C00081E090E090932E0280932D028C2F807F0F
:1001D0000E94B3008C2F8295807F0E94B300CF9144
:1001E0000895CF93DF93EC018881882331F0219625
:1001F0000E94DE0089918111FBCFDF91CF9108959C
:1002000080E00E949F002FEF80E792E02150804025
:100210009040E1F700C0000010922E0210922D02D3
:1002200080E30E94B3008FED9EE20197F1F700C0DA
:10023000000080E30E94B30080E30E94B30080E2EC
:100240000E94B30088E20E94CE008FED9EE20197EB
:10025000F1F700C0000088E00E94CE008FED9EE222
:100260000197F1F700C0000081E00E94CE008FED01
:100270009EE20197F1F700C0000086E00E94CE00E8
:100280008FED9EE20197F1F700C000008CE00E9424
:10029000CE008FED9EE20197F1F700C000000895B7
:1002A0009B01215031091216130684F4FC01E60F5C
:1002B000F71FDC0180E090E04C9152915D93408308
:1002C00001962150310982179307B4F30895CF9214
:1002D000DF92EF92FF920F931F93CF93DF936B0107
:1002E0008A01009799F0EB01E0E0F0E00F2EFAE0D0
:1002F000EF2EF12CF02D3196B7010E946018805D31
:100300008993862F972F0097B1F702C0E0E0F0E0C5
:10031000E017F1075CF4EC0DFD1D9601200F311F75
:1003200080E38193E217F307E1F701C08F01B80181
:10033000C6010E945001E601C00FD11F1882C801FA
:10034000DF91CF911F910F91FF90EF90DF90CF90B1
:1003500008952F923F924F925F926F927F928F9269
:100360009F92AF92BF92CF92DF92EF92FF920F9344
:100370001F93CF93DF934B015C018A01E9010E9437
:1003800071156B017C0140E050E0B801C6010E948C
:1003900067011C01209799F1F801E80FF91F8EE21F
:1003A0008083BE010D2E000C880B990B0E94A915AD
:1003B0009B01AC0160E070E080E291E40E94CB160A
:1003C0002B013C01B601DD0C880B990B0E94A9158D
:1003D0009B01AC01C501B4010E948D142FEF221ABC
:1003E000320A020D131DA30192010E945E160E94A3
:1003F0007115DC01CB01AE01B8010E946701DF91EC
:10040000CF911F910F91FF90EF90DF90CF90BF9011
:10041000AF909F908F907F906F905F904F903F90A4
:100420002F900895CF93DF93D82F0E940B070E943F
:1004300013078EEE0E9419070E9413078D2F0E944A
:1004400019070E9413070E940B070E9413078FEEE3
:100450000E9419070E94130780E00E941F070E9454
:1004600013070E942907C82F0E9413070E940F0735
:100470000E940B070E9413078EEE0E9419070E942C
:10048000130781E08D0F0E9419070E9413070E9435
:100490000B070E9413078FEE0E9419070E94130793
:1004A00080E00E941F070E9413070E942907D82F8F
:1004B0000E9413070E940F078C2F90E0982F882727
:1004C0008D0F911DDF91CF910895CF93DF93D82F9A
:1004D000C62F0E940B070E9413078EEE0E94190779
:1004E0000E9413078D2F0E9419070E9413078C2F5B
:1004F0000E9419070E9413070E940F07DF91CF91F6
:1005000008950F931F93CF93DF93D82F0E940B076B
:100510000E9413078EEE0E9419070E94130786EFB0
:100520000E9419070E9413070E940B070E941307DD
:100530008FEE0E9419070E94130780E00E941F0798
:100540000E9413070E942907C82F0E9413070E94C8
:100550000B070E9413078EEE0E9419070E941307D3
:1005600087EF0E9419070E9413070E940B070E9441
:1005700013078FEE0E9419070E94130780E00E9464
:100580001F070E9413070E942907082F0E941307C4
:100590000E940B070E9413078EEE0E9419070E940B
:1005A000130788EF0E9419070E9413070E940B0788
:1005B0000E9413078FEE0E9419070E94130780E024
:1005C0000E941F070E9413070E942907182F0E94EC
:1005D00013070E940F078C2F90E0A0E0B0E0DC0131
:1005E00099278827202F30E0322F2227820F931F50
:1005F000A11DB11D810F911DA11DB11D28E030E08D
:100600002D1B3109BC01CD0104C0959587957795C7
:1006100067952A95D2F7DF91CF911F910F91089599
:100620008AEA0E94120290933202809331028FEC88
:1006300097E00197F1F700C000008CEA0E941202D7
:1006400090933C0280933B028FEC97E00197F1F787
:1006500000C000008EEA0E94120290933E02809336
:100660003D028FEC97E00197F1F700C0000080EBAE
:100670000E94120290933802809337028FEC97E029
:100680000197F1F700C0000082EB0E9412029093E4
:100690003602809335028FEC97E00197F1F700C0A6
:1006A000000084EB0E941202909334028093330284
:1006B0008FEC97E00197F1F700C0000086EB0E94F5
:1006C000120290934202809341028FEC97E00197CF
:1006D000F1F700C0000088EB0E94120290934002E4
:1006E00080933F028FEC97E00197F1F700C0000084
:1006F0008AEB0E94120290933A02809339028FECA7
:1007000097E00197F1F700C000008CEB0E94120205
:1007100090934402809343028FEC97E00197F1F7A6
:1007200000C000008EEB0E94120290933002809372
:100730002F028FEC97E00197F1F700C000000895B9
:100740006EE284EF0E94650287E197E40197F1F77A
:1007500000C0000086EF0E941202BC0180E090E021
:1007600008954F925F926F927F928F929F92AF9275
:10077000BF92CF92DF92EF92FF920F931F93CF938E
:10078000C82F0E94A0036B017C016C2F6295660F3D
:10079000660F607C6C5C84EF0E946502C11107C02B
:1007A0008FE496E40197F1F700C000001DC0C1304E
:1007B00039F48FE295E70197F1F700C0000014C00B
:1007C000C23039F48FEE92ED0197F1F700C00000CE
:1007D0000BC0C33049F49FEB2EE381E091502040E1
:1007E0008040E1F700C000008C2F0E9481024B0185
:1007F0005C018091330290913402A7019601281B7D
:10080000390B41095109A0913502B09136020E947D
:10081000BB182B013C01992334F42FEF420E2FE734
:10082000521E611C711C032E3FE07594679457940F
:1008300047943A95D1F7302D8091430260E070E003
:10084000782F770F770F770F072E000C880B990BF7
:1008500020912F02309130028901330F220B330B8C
:10086000A9019801240D351D461D571D0E9496189B
:10087000420E531E641E751E80EA481A8FE0580A05
:1008800061087108A3019201C301B2010E945018CE
:100890008B019C01992324F40150104F2F4F3F4F9F
:1008A000A9019801012E1CE055954795379527958C
:1008B0001A95D1F7102DA0913F02B09140020E94ED
:1008C000C6186B017C01992334F42FEFC20E27E088
:1008D000D21EE11CF11C0B2EBBE0F594E794D794DB
:1008E000C794BA95D1F7B02DA0913B02B0913C02CC
:1008F000A30192010E94C6188B019C01992324F444
:100900000150184F2F4F3F4FD901C801072E7BE0F0
:10091000B595A795979587957A95D1F7702DC80EBF
:10092000D91EEA1EFB1EA0913702B0913802A70122
:10093000960130584F4F5F4F0E94BB182B013C016E
:10094000032E3FE076946794579447943A95D1F7F5
:10095000302D8091310290913202880F991F880FBB
:10096000991F092E000CAA0BBB0BC80ED91EEA1E3C
:10097000FB1E0C2E04C0CC0CDD1CEE1CFF1C0A94CC
:10098000D2F782E0C80ED11CE11CF11CD701C601D0
:10099000FF201CF40396A11DB11DB595A795979551
:1009A0008795B595A79597958795A5019401281BDF
:1009B000390B4A0B5B0B80E593ECA0E0B0E0BC0187
:1009C000CD0104C09595879577956795CA95D2F71F
:1009D0000E94501899235CF0660F771F881F991F9B
:1009E000A30192010E94741869017A010AC0A3014F
:1009F00092010E94741869017A01CC0CDD1CEE1C76
:100A0000FF1CD701C601FF2024F481509F4FAF4F38
:100A1000BF4F692F7A2F8B2F992787FD9A959B01BE
:100A2000AC010E9450189B01AC01AEEDBBE00E94EE
:100A3000BB184B015C01A3E4B3EEA70196010E9431
:100A4000C9188B019C01992324F4015011092F4FDF
:100A50003F4FA901772757FD7095672FD501C40136
:100A6000BB201CF40197AF4FBF4FCD01BB2797FDB3
:100A7000B095AB2F840F951FA61FB71F8153914FC1
:100A8000AF4FBF4FAC01BD0122F4415F5F4F6F4FCD
:100A90007F4F689413F87595679557954795169409
:100AA000D1F7CB01BA016C0D7D1D8E1D9F1DCF911D
:100AB0001F910F91FF90EF90DF90CF90BF90AF907C
:100AC0009F908F907F906F905F904F9008950E94BD
:100AD000A91520E033E743ED57E40E94FF1421E01D
:100AE0003EED42E45EE30E94CB169B01AC0160E068
:100AF00070E080E89FE30E948D1420E03AE24DE22E
:100B000057E40E945E1608952FEF87EA91E6215080
:100B100080409040E1F700C0000010924502089527
:100B2000CF92DF92EF92FF92CF93DF9300D000D06D
:100B30001F92CDB7DEB7682F792FFE01319685E081
:100B4000DF011D928A95E9F7109245024198399A82
:100B5000BFEF29EF80E0B15020408040E1F700C0B6
:100B60000000419A39982FE10AC09AE09A95F1F76E
:100B700000C0215021F484E0809345028FC0319958
:100B8000F4CF80914502882359F088C0AAE0AA9545
:100B9000F1F700C0215029F484E0809345020EC093
:100BA00023E3319BF3CF0AC0BAE0BA95F1F700C056
:100BB000215029F484E08093450270C023E33199E9
:100BC000F3CF80914502882309F443C067C08AE0CF
:100BD0008A95F1F700C0215031F45093450245E069
:100BE00034C0422F24E2319BF2CF209145022111E3
:100BF00029C09AEB9A95F1F700C0319B1EC0E1E045
:100C0000F0E0EC0FFD1FE40FF11D2081D701C601BC
:100C1000032E04C0880F991FAA1FBB1F0A94D2F786
:100C2000822B80830AC0AAE0AA95F1F700C0215068
:100C300029F450934502242F06C023E33199F3CFC2
:100C4000242F01C0242F315062F64F5F453038F019
:100C500008C040E0C12CD12C7601C39454E037E0A9
:100C6000C1CF80914502811119C099818A81980F65
:100C70008B81980F8C81890F9D81891721F083E0EA
:100C8000809345020BC0DE011196E62FF72FCE01AF
:100C900005962D912193A817B907D9F70F900F90BA
:100CA0000F900F900F90DF91CF91FF90EF90DF901A
:100CB000CF9008958F929F92AF92BF92CF92DF9282
:100CC000EF92FF920F931F93CF93DF9300D000D04A
:100CD000CDB7DEB78C017B0119821A821B821C8280
:100CE000CE0101960E94900580914502811173C04A
:100CF0006C818B81882384F48F7770E0782B072EAA
:100D0000000C880B990B0E94A91520E030E040E20E
:100D100051EC0E94FF140EC070E0782B072E000CDF
:100D2000880B990B0E94A91520E030E040E251E4C5
:100D30000E94FF14F8016083718382839383698129
:100D400070E0762F66278A81682B072E000C880BAF
:100D5000990B0E94A91520E030E040E251E40E9486
:100D6000FF144B015C01F7016083718382839383DD
:100D7000F801C080D180E280F38020E030E040E2E2
:100D800052ECC701B6010E94FA14882354F020E007
:100D900030E040EA52E4C701B6010E945916181625
:100DA00024F482E08093450216C020E030E0A901DF
:100DB000C501B4010E94FA14882354F020E030E009
:100DC00048EC52E4C501B4010E94591618161CF4EF
:100DD00081E0809345020F900F900F900F90DF916C
:100DE000CF911F910F91FF90EF90DF90CF90BF9028
:100DF000AF909F908F9008958CE08093B800E9EBBE
:100E0000F0E080818C7F80838FEF8093BB0084E053
:100E10008093BC00089584EA8093BC00089584E91F
:100E20008093BC000895ECEBF0E080818823ECF720
:100E300008958093BB0084E88093BC0008958823C4
:100E400021F084EC8093BC00089584E88093BC007A
:100E500008958091BB000895CF93DF93EC010E9429
:100E60000B070E94130780ED0E9419070E941307C9
:100E700080E00E9419070E9413070E940F070E943A
:100E80000B070E94130781ED0E9419070E941307A8
:100E900081E00E941F070E9413070E942907888390
:100EA00081E00E941F070E9413070E94290789837F
:100EB00081E00E941F070E9413070E9429078A836E
:100EC00081E00E941F070E9413070E9429078B835D
:100ED00081E00E941F070E9413070E9429078C834C
:100EE00081E00E941F070E9413070E9429078D833B
:100EF00080E00E941F070E9413070E9429078E832B
:100F00000E9413070E940F07DF91CF910895ECE72D
:100F1000F0E0808180648083EEE7F0E08081816092
:100F20008083EAE7F0E08081876880838081806445
:100F300080830895EAE7F0E0808180648083808187
:100F400086FDFDCF8091780090917900089584B15D
:100F5000887F84B985B1876085B9EBE6F0E0808150
:100F600087608083E8E6F0E0808181608083089577
:100F70008F929F92AF92BF92CF92DF92EF92FF92A9
:100F800020E030E048EC52E4609167027091680222
:100F90008091690290916A020E94FF1420E030E083
:100FA00040E05EE30E94CB164B015C01C090620200
:100FB000D0906302E0906402F090650226E636E687
:100FC00046E65FE3C701B6010E945E1620E030E00E
:100FD00040EE52E40E948E14A50194010E945E1618
:100FE0004B015C012DEC3CEC4CEC5DE3C701B60120
:100FF0000E945E169B01AC01C501B4010E948E14D3
:1010000020E030E04CED52E40E948D14FF90EF9010
:10101000DF90CF90BF90AF909F908F9008950097F2
:10102000F1F4EBE6F0E080818E7F80832FEF89EF93
:1010300090E0215080409040E1F700C000001899F6
:1010400006C080818160808381E090E00895EBE6B6
:10105000F0E080818160808380E090E008958130BD
:101060009105F1F4EBE6F0E080818D7F80832FEF36
:1010700089EF90E0215080409040E1F700C00000EF
:10108000199906C080818260808381E090E0089594
:10109000EBE6F0E080818260808380E090E008955C
:1010A0000297F1F4EBE6F0E080818B7F80832FEFF5
:1010B00089EF90E0215080409040E1F700C00000AF
:1010C0001A9906C080818460808381E090E0089551
:1010D000EBE6F0E080818460808380E090E008951A
:1010E00008951F920F920FB60F9211242F933F93E2
:1010F0004F935F936F937F938F939F93AF93BF9320
:10110000EF93FF93189915C080E090E00E940F08BC
:10111000892B41F081E08093660210927E0210924A
:101120007F0234C01092660210927E0210927F02FB
:101130002DC0199915C081E090E00E940F08892BFD
:1011400041F01092660210927E0281E080937F024D
:101150001DC01092660210927E0210927F0216C08D
:101160001A9914C082E090E00E940F08892B41F088
:101170001092660281E080937E0210927F0206C088
:101180001092660210927E0210927F02FF91EF9100
:10119000BF91AF919F918F917F916F915F914F918F
:1011A0003F912F910F900FBE0F901F901895E1E87F
:1011B000F0E080818C60808381E19AE790938B00DE
:1011C00080938A0083E294EF909389008093880053
:1011D000EFE6F0E08081866080830895CF93DF930F
:1011E0000E940B070E94130780E90E9419070E94C2
:1011F000130780E00E9419070E9413070E940B0743
:101200000E94130781E90E9419070E94130781E0D9
:101210000E941F070E9413070E942907D82F0E94CF
:10122000130780E00E941F070E9413070E942907EE
:10123000C82F0E9413070E940F071092BC002C2F8A
:1012400030E03D2B35952795359527953595279594
:101250003595279533FD386FC90199230CF40F9606
:101260009595879595958795959587959595879566
:10127000DF91CF910895CF93DF93CDB7DEB7C454FC
:10128000D1090FB6F894DEBF0FBECDBF0E94A707ED
:101290000E94FC060E9400010E9487070E94100322
:1012A0000E94840585E0E8E0F1E0DE01A05CBF4F2C
:1012B00001900D928A95E1F721964FAD21972296E4
:1012C0005FAD229723966FAD239724967FAD249729
:1012D00025968FAD25970E940A1487E792E00E9419
:1012E0002C0778948DE091E00E94F10080EC0E9440
:1012F000CE0088E191E00E94F1002FEF8BE792E9A8
:10130000215080409040E1F700C0000081E00E9441
:10131000CE0088E291E00E94F10080EC0E94CE00B5
:1013200086E391E00E94F1000E94D70810E00F2EA2
:10133000F8E8EF2EF12CF02D0F2EF3E2CF2EF4EF84
:10134000DF2EF02D02E00F2EF9E07F2EF02D0F2E74
:10135000FCE98F2EF1E09F2EF02D5E01EDE0AE0E48
:10136000B11C812F90E0FC018B309105E0F7EC5C23
:10137000FF4F0C94B51880916602882391F381E0A9
:101380000E94CE008EE391E00E94F100FFEF27EA79
:1013900081E6F15020408040E1F700C0000081E08C
:1013A0000E94CE0089E491E00E94F10080EC0E944E
:1013B000CE008AE591E00E94F10010926602109240
:1013C0007F0210927E0211E0CCCF809166028823CA
:1013D00041F2F7011182108267E672E082E692E044
:1013E0000E945A060E94EE0890934702809346029C
:1013F0006091620270916302809164029091650233
:1014000060936B0270936C0280936D0290936E02F6
:1014100021E030E0AE014F5F5F4F0E94A9014AE03A
:10142000BE01665D7F4F80914602909147020E9407
:10143000F11881E00E94CE0089E691E00E94F1005F
:10144000CE0101960E94F1008FED0E94DE0082E73E
:1014500091E00E94F10080EC0E94CE0084E791E0D0
:101460000E94F100CE018A960E94F1008FED0E9449
:10147000DE0082E791E00E94F100F701D182C08294
:1014800081E080932C021092660210927F021092EB
:101490007E02102F66CF80917F02882309F453C00B
:1014A000F7011182108267E672E082E692E00E9404
:1014B0005A06609148027091490280914A029091C7
:1014C0004B0221E030E0AE01495F5F4F0E94A9016D
:1014D00060910001709101018091020190910301DE
:1014E00021E030E0AE01465C5F4F0E94A90181E03F
:1014F0000E94CE008DE791E00E94F100CE01079698
:101500000E94F10084E891E00E94F10080EC0E94CA
:10151000CE0086E891E00E94F100CE01CA960E94BA
:10152000F10084E891E00E94F100F701D182C082CD
:1015300081E080932C021092660210927F0210923A
:101540007E021AE00ECF80917E02882309F43FC00C
:1015500010922C02F7011182108267E672E082E697
:1015600092E00E945A066091670270916802809131
:10157000690290916A0260936F0270937002809387
:1015800071029093720221E030E0AE01495F5F4F3B
:101590000E94A90181E00E94CE008DE891E00E94A6
:1015A000F100CE0107960E94F10084E891E00E94CC
:1015B000F100F701D182C08281E080932A0210926B
:1015C000660210927F0210927E0213E0CACE8091D2
:1015D0002502882309F4C5CE6091620270916302EE
:1015E000809164029091650260936B0270936C022B
:1015F00080936D0290936E0221E030E0AE014F5F68
:101600005F4F0E94A90181E00E94CE0086E991E02F
:101610000E94F100CE0101960E94F1008FED0E9420
:10162000DE0082E791E00E94F1004AE0BE01665DC3
:101630007F4F80914602909147020E94F11880EC02
:101640000E94CE0084E791E00E94F100CE018A96CC
:101650000E94F1008FED0E94DE0082E791E00E947F
:10166000F100109225027DCE80917F02882309F43B
:1016700064C010922A02F7011182108267E672E0BC
:1016800082E692E00E945A060E94EE08909347027A
:1016900080934602609162027091630280916402BD
:1016A0009091650260936B0270936C0280936D025F
:1016B00090936E0221E030E0AE014F5F5F4F0E94D9
:1016C000A9014AE0BE01665D7F4F8091460290917C
:1016D00047020E94F11881E00E94CE0089E691E065
:1016E0000E94F100CE0101960E94F1008FED0E9450
:1016F000DE0082E791E00E94F10080EC0E94CE00C3
:1017000084E791E00E94F100CE018A960E94F100E8
:101710008FED0E94DE0082E791E00E94F100F70168
:10172000D182C08281E080932C02109266021092D6
:101730007F0210927E02102F14CE80917E028823A9
:10174000D9F110922A02F7011182108281E00E94E1
:10175000B10360938202709383028093840290931A
:1017600085029F938F937F936F939F928F92BF92E7
:10177000AF920E94161981E00E94CE0080EA91E0AB
:101780000E94F100C5010E94F10089EA91E00E94E7
:10179000F100F701D182C08281E080932B02109288
:1017A000660210927F0210927E020FB6F894DEBF9E
:1017B0000FBECDBF14E0D5CD80912502882309F45A
:1017C000D0CD60916702709168028091690290911A
:1017D0006A0260936F02709370028093710290931B
:1017E000720221E030E0AE01495F5F4F0E94A90123
:1017F00081E00E94CE008DE891E00E94F100CE01D0
:1018000007960E94F10084E891E00E94F100109296
:101810002502A7CD80917F02882309F43FC0109252
:101820002B02F7011182108267E672E082E692E0F5
:101830000E945A0660916702709168028091690265
:1018400090916A0260936F027093700280937102AC
:101850009093720221E030E0AE01495F5F4F0E9439
:10186000A90181E00E94CE008DE891E00E94F10084
:10187000CE0107960E94F10084E891E00E94F100F9
:10188000F701D182C08281E080932A021092660221
:1018900010927F0210927E0213E063CD80917E024F
:1018A000882309F441C010922B02F70111821082A3
:1018B00081E00E94B103609382027093830280935F
:1018C0008402909385020E94670560935E02709384
:1018D0005F02809360029093610221E030E0AE01EC
:1018E0004B5E5F4F0E94A90181E00E94CE008CEA0E
:1018F00091E00E94F100CE0145960E94F10080EC3B
:101900000E94CE0085EB91E00E94F100F701D182A8
:10191000C08281E0809329021092660210927F02B9
:1019200010927E0215E01DCD80912502882309F4D6
:1019300018CD809185028F93809184028F9380913E
:1019400083028F93809182028F939F928F92BF9296
:10195000AF920E94161981E00E94CE0080EA91E0C9
:101960000E94F100C5010E94F10089EA91E00E9405
:10197000F100109225020FB6F894DEBF0FBECDBF66
:10198000F0CC80917F028823D9F110922902F701CF
:101990001182108281E00E94B103609382027093F1
:1019A000830280938402909385029F938F937F9309
:1019B0006F939F928F92BF92AF920E94161981E00F
:1019C0000E94CE0080EA91E00E94F100C5010E94D1
:1019D000F10089EA91E00E94F100F701D182C08212
:1019E00081E080932B021092660210927F02109287
:1019F0007E020FB6F894DEBF0FBECDBF14E0B1CCAF
:101A000080917E02882309F456C010922902F701C2
:101A1000118210820E949A0790934E0280934D0289
:101A20008C32F1E09F0754F487E0E9EBF1E0AFE49A
:101A3000B2E001900D928A95E1F724C0843F21E045
:101A4000920754F486E0E0ECF1E0AFE4B2E00190FC
:101A50000D928A95E1F716C08032934054F485E0E8
:101A6000E6ECF1E0AFE4B2E001900D928A95E1F787
:101A700009C08AE0EBECF1E0AFE4B2E001900D9236
:101A80008A95E1F781E00E94CE0085ED91E00E9409
:101A9000F1008FE492E00E94F100F701D182C08250
:101AA00081E0809328021092660210927F021092C9
:101AB0007E0216E056CC80912502882309F451CC91
:101AC00060915E0270915F0280916002909161026C
:101AD00021E030E0AE014B5E5F4F0E94A90181E042
:101AE0000E94CE008CEA91E00E94F100CE01459662
:101AF0000E94F10080EC0E94CE0085EB91E00E94F4
:101B0000F100109225022DCC80917F02882309F4E8
:101B100041C010922802F7011182108281E00E94D8
:101B2000B103609382027093830280938402909346
:101B300085020E94670560935E0270935F02809346
:101B400060029093610221E030E0AE014B5E5F4F96
:101B50000E94A90181E00E94CE008CEA91E00E94DF
:101B6000F100CE0145960E94F10080EC0E94CE006B
:101B700085EB91E00E94F100F701D182C08281E003
:101B8000809329021092660210927F0210927E02C8
:101B900015E0E7CB80917E02882309F444C01092BF
:101BA0002802F7011182108267E672E082E692E075
:101BB0000E945A06209167023091680240916902A2
:101BC00050916A0260916202709163028091640296
:101BD000909165020E94B80721E030E0AE014C5DB3
:101BE0005F4F0E94A90181E00E94CE008DED91E03F
:101BF0000E94F100CE0184960E94F1008FED0E94B8
:101C0000DE0082E791E00E94F100F701D182C082FC
:101C100081E0809327021092660210927F02109258
:101C20007E0217E09ECB80912502882309F499CB90
:101C300081E00E94CE0085ED91E00E94F1008FE4EA
:101C400092E00E94F100109225028BCB80917F02DE
:101C5000882309F456C010922702F70111821082DE
:101C60000E949A0790934E0280934D028C32F1E0CD
:101C70009F0754F487E0E9EBF1E0AFE4B2E00190B4
:101C80000D928A95E1F724C0843F21E0920754F435
:101C900086E0E0ECF1E0AFE4B2E001900D928A95CD
:101CA000E1F716C08032934054F485E0E6ECF1E0B1
:101CB000AFE4B2E001900D928A95E1F709C08AE0A5
:101CC000EBECF1E0AFE4B2E001900D928A95E1F720
:101CD00081E00E94CE0085ED91E00E94F1008FE44A
:101CE00092E00E94F100F701D182C08281E08093EE
:101CF00028021092660210927F0210927E0216E075
:101D000030CB80917E028823D1F010922702F70118
:101D10001182108281E00E94CE0087EE91E00E9445
:101D2000F100F701D182C08281E0809326021092F7
:101D3000660210927F0210927E0218E012CB809110
:101D40002502882309F40DCB2091670230916802A7
:101D50004091690250916A0260916202709163023F
:101D600080916402909165020E94B80721E030E002
:101D7000AE014C5D5F4F0E94A90181E00E94CE0040
:101D80008DED91E00E94F100CE0184960E94F10059
:101D90008FED0E94DE0082E791E00E94F100109238
:101DA0002502DFCA80917F02882309F444C0109283
:101DB0002602F7011182108267E672E082E692E065
:101DC0000E945A0620916702309168024091690290
:101DD00050916A0260916202709163028091640284
:101DE000909165020E94B80721E030E0AE014C5DA1
:101DF0005F4F0E94A90181E00E94CE008DED91E02D
:101E00000E94F100CE0184960E94F1008FED0E94A5
:101E1000DE0082E791E00E94F100F701D182C082EA
:101E200081E0809327021092660210927F02109246
:101E30007E0217E096CA80917E02882309F455C07D
:101E400010922602F7011182108260917302709144
:101E50007402809175029091760221E030E0AE012B
:101E60004F5F5F4F0E94A9016091040170910501CD
:101E7000809106019091070121E030E0AE014C5CB9
:101E80005F4F0E94A90181E00E94CE0082EF91E0A5
:101E90000E94F100CE0101960E94F1008FED0E9498
:101EA000DE0082E791E00E94F10080EC0E94CE000B
:101EB00089EF91E00E94F100CE01C4960E94F100EA
:101EC0008FED0E94DE0082E791E00E94F100F701B1
:101ED000D182C08281E080932C021092660210921F
:101EE0007F0210927E02172D3CCA80912502882322
:101EF00009F437CA81E00E94CE0080E092E00E949F
:101F0000F100109225022DCA80917F02882309F4E6
:101F100055C010922C02F701118210826091730259
:101F200070917402809175029091760221E030E008
:101F3000AE014F5F5F4F0E94A90160910401709153
:101F40000501809106019091070121E030E0AE018A
:101F50004C5C5F4F0E94A90181E00E94CE0082EF9D
:101F600091E00E94F100CE0101960E94F1008FEDF8
:101F70000E94DE0082E791E00E94F10080EC0E9466
:101F8000CE0089EF91E00E94F100CE01C4960E943C
:101F9000F1008FED0E94DE0082E791E00E94F100E7
:101FA000F701D182C08281E08093260210926602FE
:101FB00010927F0210927E0218E0D3C980917E02B7
:101FC000882309F453C0F7011182108267E672E09A
:101FD00082E692E00E945A0660914802709149029E
:101FE00080914A0290914B0221E030E0AE01495FBE
:101FF0005F4F0E94A90160910001709101018091E1
:1020000002019091030121E030E0AE01465C5F4F98
:102010000E94A90181E00E94CE008DE791E00E941C
:10202000F100CE0107960E94F10084E891E00E9441
:10203000F10080EC0E94CE0086E891E00E94F10061
:10204000CE01CA960E94F10084E891E00E94F1005E
:10205000F701D182C08281E080932C021092660247
:1020600010927F0210927E021AE07BC980912502B5
:10207000882309F476C9609173027091740280918B
:1020800075029091760221E030E0AE014F5F5F4F24
:102090000E94A901609104017091050180910601DF
:1020A0009091070121E030E0AE014C5C5F4F0E944F
:1020B000A90181E00E94CE0082EF91E00E94F10030
:1020C000CE0101960E94F1008FED0E94DE0082E7B2
:1020D00091E00E94F10080EC0E94CE0089EF91E037
:1020E0000E94F100CE01C4960E94F1008FED0E9483
:1020F000DE0082E791E00E94F1001092250231C9D2
:1021000080917F02882309F453C081E080932C02E0
:10211000F7011182108260917302709174028091B4
:1021200075029091760221E030E0AE014F5F5F4F83
:102130000E94A9016091040170910501809106013E
:102140009091070121E030E0AE014C5C5F4F0E94AE
:10215000A90181E00E94CE0082EF91E00E94F1008F
:10216000CE0101960E94F1008FED0E94DE0082E711
:1021700091E00E94F10080EC0E94CE0089EF91E096
:102180000E94F100CE01C4960E94F1008FED0E94E2
:10219000DE0082E791E00E94F100F701D182C08267
:1021A0001092660210927F0210927E02172DD9C8FB
:1021B00080917E02882309F462C0F70111821082A7
:1021C00067E672E082E692E00E945A060E94EE08FC
:1021D000909347028093460260916202709163027D
:1021E000809164029091650260936B0270936C021F
:1021F00080936D0290936E0221E030E0AE014F5F5C
:102200005F4F0E94A9014AE0BE01665D7F4F809149
:102210004602909147020E94F11881E00E94CE0090
:1022200089E691E00E94F100CE0101960E94F10042
:102230008FED0E94DE0082E791E00E94F10080ECC9
:102240000E94CE0084E791E00E94F100CE018A96C0
:102250000E94F1008FED0E94DE0082E791E00E9473
:10226000F100F701D182C08281E080932C021092AC
:10227000660210927F0210927E02102F72C8809127
:102280002502882309F46DC86091480270914902C3
:1022900080914A0290914B0221E030E0AE01495F0B
:1022A0005F4F0E94A901609100017091010180912E
:1022B00002019091030121E030E0AE01465C5F4FE6
:1022C0000E94A90181E00E94CE008DE791E00E946A
:1022D000F100CE0107960E94F10084E891E00E948F
:1022E000F10080EC0E94CE0086E891E00E94F100AF
:1022F000CE01CA960E94F10084E891E00E94F100AC
:10230000109225022EC81F920F920FB60F92112421
:102310008F929F92AF92BF92CF92DF92EF92FF92F5
:102320000F931F932F933F934F935F936F937F93DD
:102330008F939F93AF93BF93EF93FF93CF93DF93CD
:1023400000D000D0CDB7DEB767E672E082E692E05B
:102350000E945A060E94EE0890934702809346021C
:1023600081E00E94B10360938202709383028093A4
:102370008402909385020E94670560935E027093C9
:102380005F0280936002909361020E949A078C0121
:1023900090934E0280934D02F0906702D0906802B5
:1023A0009090690280906A02E0906202A0906302BD
:1023B000B0906402C09065022F2D3D2D492D582DFF
:1023C0006E2D7A2D8B2D9C2D0E94B80769837A8300
:1023D0008B839C830C3281E0180754F487E0E9EB8F
:1023E000F1E0AFE4B2E001900D928A95E1F725C0EB
:1023F000043F81E0180754F486E0E0ECF1E0AFE43C
:10240000B2E001900D928A95E1F717C0003283E0A7
:10241000180754F485E0E6ECF1E0AFE4B2E0019097
:102420000D928A95E1F709C08AE0EBECF1E0AFE4A8
:10243000B2E001900D928A95E1F78E2D9A2DAB2D89
:10244000BC2D80936B0290936C02A0936D02B093AD
:102450006E028F2D9D2DA92DB82D80936F02909324
:102460007002A0937102B0937202ECE0F2E0ABE66E
:10247000B2E0E08211968C911197818312968C9133
:102480001297828313968C918383AFE6B2E0F48235
:1024900011968C911197858312968C911297868351
:1024A00013968C9187838091820290918302209170
:1024B0008402309185023087218792878387AEE539
:1024C000B2E08C91848711968C9111978587129632
:1024D0008C911297868713968C918787108B018B2E
:1024E0008981828B8A81838B8B81848BCE01059637
:1024F00090938102809380028C81858B80914C0225
:10250000868B8091460290914702978B808F81E065
:1025100080932502CF010E947A140F900F900F90A4
:102520000F90DF91CF91FF91EF91BF91AF919F916C
:102530008F917F916F915F914F913F912F911F915B
:102540000F91FF90EF90DF90CF90BF90AF909F9052
:102550008F900F900FBE0F901F901895CF92DF9223
:10256000EF92FF92672BE1F0FC01C080D180E28006
:10257000F380209148023091490240914A025091E3
:102580004B02C701B6010E945916181624F5C092D5
:102590004802D0924902E0924A02F0924B021BC0DC
:1025A000FC01C080D180E280F380209173023091E1
:1025B00074024091750250917602C701B6010E94E3
:1025C0005916181644F4C0927302D0927402E09225
:1025D0007502F0927602FF90EF90DF90CF90089511
:1025E000CF92DF92EF92FF92672BE1F0FC01C08067
:1025F000D180E280F380209100013091010140916F
:10260000020150910301C701B6010E94FA14882308
:1026100024F5C0920001D0920101E0920201F092F3
:1026200003011BC0FC01C080D180E280F3802091B7
:102630000401309105014091060150910701C70145
:10264000B6010E94FA14882344F4C0920401D09287
:102650000501E0920601F0920701FF90EF90DF90F4
:10266000CF9008951F920F920FB60F9211242F93BF
:102670003F934F935F936F937F938F939F93AF930A
:10268000BF93EF93FF9390912C0280912A022091A7
:102690002702892B19F4222309F444C067E672E06B
:1026A00082E692E00E945A06809162029091630253
:1026B000A0916402B091650280936B0290936C02CA
:1026C000A0936D02B0936E028091670290916802B0
:1026D000A0916902B0916A0280936F029093700298
:1026E000A0937102B093720260E070E08BE692E01A
:1026F0000E94AE1261E070E08FE692E00E94AE129E
:1027000060E070E08BE692E00E94F01261E070E021
:102710008FE692E00E94F0120E94EE08909347022A
:102720008093460280912B02882359F081E00E9419
:10273000B10360938202709383028093840290932A
:102740008502809129028823A9F081E00E94B103CB
:102750006093820270938302809384029093850237
:102760000E94670560935E0270935F02809360022F
:1027700090936102809128028823C1F10E949A07F8
:1027800090934E0280934D028C3221E0920754F4D4
:1027900087E0E9EBF1E0AFE4B2E001900D928A95B9
:1027A000E1F724C0843F21E0920754F486E0E0EC96
:1027B000F1E0AFE4B2E001900D928A95E1F716C026
:1027C0008032934054F485E0E6ECF1E0AFE4B2E00F
:1027D00001900D928A95E1F709C08AE0EBECF1E0F7
:1027E000AFE4B2E001900D928A95E1F781E0809329
:1027F0002502FF91EF91BF91AF919F918F917F91B2
:102800006F915F914F913F912F910F900FBE0F905D
:102810001F9018951F93CF93DF9300D000D01F9285
:10282000CDB7DEB749835A83162F6B837C838D83A4
:1028300029813A8140E050E060E472E48FE090E06A
:102840000E94741821503109309389022093880224
:102850003093C500809188028093C40088E1809302
:10286000C100193028F0612F70E06250710904C076
:10287000612F70E065507109809186029091870206
:10288000682B792B7093870260938602E2ECF0E06C
:102890008081660F771F682B608320819D81892F3F
:1028A00090E00197880F991F880F991F880F991F33
:1028B000822B80838C81853431F08F3449F480E31E
:1028C0008093C20005C0E2ECF0E0808180628083EA
:1028D00080E00F900F900F900F900F90DF91CF91AD
:1028E0001F910895E0ECF0E0908195FFFDCF80937B
:1028F000C60008950F931F93CF93DF93EC018C01D3
:10290000075E1F4F89910E9472140C171D07D1F7A3
:10291000DF91CF911F910F9108955058BB27AA279F
:102920000E94A5140C941F160E94111638F00E94E4
:10293000181620F039F49F3F19F426F40C940E1663
:102940000EF4E095E7FB0C940816E92F0E94301670
:1029500058F3BA17620773078407950720F079F4D4
:10296000A6F50C9452160EF4E0950B2EBA2FA02D5E
:102970000B01B90190010C01CA01A0011124FF272C
:10298000591B99F0593F50F4503E68F11A16F04027
:10299000A22F232F342F4427585FF3CF4695379526
:1029A0002795A795F0405395C9F77EF41F16BA0BEB
:1029B000620B730B840BBAF09150A1F0FF0FBB1F99
:1029C000661F771F881FC2F70EC0BA0F621F731FE2
:1029D000841F48F4879577956795B795F7959E3F3F
:1029E00008F0B0CF9395880F08F09927EE0F9795D0
:1029F000879508950E94E41508F481E008950E94E7
:102A000013150C941F160E94181658F00E941116E8
:102A100040F029F45F3F29F00C94081651110C94F2
:102A200053160C940E160E94301668F39923B1F3D6
:102A3000552391F3951B550BBB27AA2762177307E4
:102A4000840738F09F5F5F4F220F331F441FAA1F78
:102A5000A9F335D00E2E3AF0E0E832D09150504034
:102A6000E695001CCAF72BD0FE2F29D0660F771FE2
:102A7000881FBB1F261737074807AB07B0E809F0C8
:102A8000BB0B802DBF01FF2793585F4F3AF09E3F4D
:102A9000510578F00C9408160C9453165F3FE4F33C
:102AA000983ED4F3869577956795B795F7959F5F90
:102AB000C9F7880F911D9695879597F90895E1E0DC
:102AC000660F771F881FBB1F621773078407BA073B
:102AD00020F0621B730B840BBA0BEE1F88F7E09596
:102AE00008950E9478156894B1110C9453160895B6
:102AF0000E94381688F09F5798F0B92F9927B75140
:102B0000B0F0E1F0660F771F881F991F1AF0BA9591
:102B1000C9F714C0B13091F00E945216B1E0089587
:102B20000C945216672F782F8827B85F39F0B93F79
:102B3000CCF3869577956795B395D9F73EF4909544
:102B40008095709561957F4F8F4F9F4F0895E894C2
:102B500009C097FB3EF490958095709561957F4FE5
:102B60008F4F9F4F9923A9F0F92F96E9BB27939593
:102B7000F695879577956795B795F111F8CFFAF4A3
:102B8000BB0F11F460FF1BC06F5F7F4F8F4F9F4FD4
:102B900016C0882311F096E911C0772321F09EE832
:102BA000872F762F05C0662371F096E8862F70E098
:102BB00060E02AF09A95660F771F881FDAF7880F72
:102BC0009695879597F90895990F0008550FAA0BC8
:102BD000E0E8FEEF16161706E807F907C0F0121630
:102BE0001306E407F50798F0621B730B840B950B33
:102BF00039F40A2661F0232B242B252B21F4089588
:102C00000A2609F4A140A6958FEF811D811D089524
:102C100097F99F6780E870E060E008959FEF80EC8F
:102C2000089500240A941616170618060906089532
:102C300000240A9412161306140605060895092E98
:102C40000394000C11F4882352F0BB0F40F4BF2B07
:102C500011F460FF04C06F5F7F4F8F4F9F4F089547
:102C600057FD9058440F551F59F05F3F71F047953D
:102C7000880F97FB991F61F09F3F79F08795089522
:102C8000121613061406551FF2CF4695F1DF08C041
:102C9000161617061806991FF1CF8695710561055E
:102CA00008940895E894BB2766277727CB0197F906
:102CB00008950E94E41508F48FEF08950E9471169C
:102CC0000C941F160E94111638F00E94181620F05E
:102CD000952311F00C9408160C940E1611240C94E4
:102CE00053160E94301670F3959FC1F3950F50E074
:102CF000551F629FF001729FBB27F00DB11D639FAE
:102D0000AA27F00DB11DAA1F649F6627B00DA11D53
:102D1000661F829F2227B00DA11D621F739FB00DF9
:102D2000A11D621F839FA00D611D221F749F332769
:102D3000A00D611D231F849F600D211D822F762F02
:102D40006A2F11249F5750409AF0F1F088234AF0DF
:102D5000EE0FFF1FBB1F661F771F881F915050404B
:102D6000A9F79E3F510580F00C9408160C94531659
:102D70005F3FE4F3983ED4F3869577956795B795D2
:102D8000F795E7959F5FC1F7FE2B880F911D9695EC
:102D9000879597F90895FA01EE0FFF1F30962105E8
:102DA0003105A1F16115710561F48038BFE39B071E
:102DB00049F168949038810561F08038BFEF9B0736
:102DC00041F099234AF5FF3FE1053105210519F14D
:102DD000E8940894E795D901AA2329F4AB2FBE2FD4
:102DE000F85FD0F310C0FF5F70F4A695E0F7F739F5
:102DF00050F019F0FF3A38F49F779F930DD00F9061
:102E000007FC9058089546F00C940E1660E070E0B0
:102E100080E89FE308954FE79F775F934F933F9339
:102E20002F930E94C6172F913F914F915F910E945F
:102E30005E160C94231729F416F00C9408160C94C3
:102E400052160C940E160E943816A8F39638A0F766
:102E500007F80F92E8942BE33AEA48EB5FE70E9409
:102E600074160F920F920F924DB75EB70F920E9499
:102E70000E18EEE7F0E00E9455174F915F91EF9129
:102E8000FF91E595EE1FFF1F49F0FE57E0684427CC
:102E9000EE0F441FFA95E1F74195550B0E948817F4
:102EA0000F9007FE0C947C170895DF93CF931F9328
:102EB0000F93FF92EF92DF927B018C01689406C022
:102EC000DA2EEF010E947116FE01E894A59125917A
:102ED000359145915591A6F3EF010E94A514FE018D
:102EE0009701A801DA9469F7DF90EF90FF900F91B6
:102EF0001F91CF91DF9108959B01AC0160E070E0DC
:102F000080E89FE30C94FF140C9408160C9442186C
:102F10000E943816D8F39923C9F3940F511DA3F3D7
:102F20009150504094F059F0882332F0660F771F8B
:102F3000881F91505040C1F79E3F51052CF7880FD4
:102F4000911D9695879597F908955F3FACF0983E4F
:102F50009CF0BB27869577956795B79508F4B16087
:102F60009395C1F7BB0F58F711F460FFE8CF6F5F7F
:102F70007F4F8F4F9F4FE3CF0C94531616F00C9456
:102F800042180C940E1668940C9408160E94381679
:102F9000A8F39923C1F3AEF3DF93CF931F930F935D
:102FA000FF92C92FDD2788232AF02197660F771F0C
:102FB000881FDAF720E030E040E85FEB9FE38839D4
:102FC00020F0803E38F021968F770E948E14E6EA3A
:102FD000F0E004C00E948E14E3EDF0E00E9455176B
:102FE0008B01BE01EC01FB2E6F5771097595771FA0
:102FF000880B990B0E94A91528E132E741E35FE3B2
:103000000E947116AF2D9801AE01FF900F911F9194
:10301000CF91DF910E94A5140C941F16FA01DC01D8
:10302000AA0FBB1F9B01AC01BF5728F422273327EF
:103030004427507820C0B75190F4AB2F0024469518
:1030400037952795011CA395D2F3002071F0220F2C
:10305000331F441FB395DAF30ED00C948D146130F6
:103060007105A0E88A07B94630F49B01AC016627D8
:10307000772788279078309621F020833183428308
:10308000538308959F3F31F0915020F487957795B1
:103090006795B795880F911D9695879597F908952F
:1030A000DB018F939F930E94BB18BF91AF91A29FAA
:1030B000800D911DA39F900DB29F900D1124089536
:1030C00097FB072E16F4009407D077FD09D00E94D5
:1030D000CE1807FC05D03EF4909581959F4F08953A
:1030E000709561957F4F0895A1E21A2EAA1BBB1B14
:1030F000FD010DC0AA1FBB1FEE1FFF1FA217B307C4
:10310000E407F50720F0A21BB30BE40BF50B661FD9
:10311000771F881F991F1A9469F76095709580959D
:1031200090959B01AC01BD01CF010895052E97FB41
:103130001EF400940E94AD1857FD07D00E94741829
:1031400007FC03D04EF40C94AD1850954095309583
:1031500021953F4F4F4F5F4F089590958095709503
:1031600061957F4F8F4F9F4F0895EE0FFF1F059082
:10317000F491E02D09940E94E218A59F900DB49F50
:10318000900DA49F800D911D11240895B7FF0C94FC
:10319000BB180E94BB18821B930B0895AA1BBB1B74
:1031A00051E107C0AA1FBB1FA617B70710F0A61B47
:1031B000B70B881F991F5A95A9F780959095BC0168
:1031C000CD010895A29FB001B39FC001A39F700DD0
:1031D000811D1124911DB29F700D811D1124911D1F
:1031E0000895BB274A3031F4992322F4BDE290952B
:1031F00081959F4F0C94FD18BB27FB015527AA27EB
:10320000880F991FAA1FA41710F0A41B8395505173
:10321000B9F7A05DAA3308F0A95DA193009779F7EB
:10322000B111B1931192CB010C942F1BAEE0B0E021
:10323000ECE1F9E10C94E71B0D891E8986E08C8393
:103240001A8309838FEF9FE79E838D83AE01475ECC
:103250005F4F6F89788DCE0101960E943819EF81FA
:10326000F885E00FF11F10822E96E4E00C94031C09
:10327000ABE0B0E0EEE3F9E10C94D91B6C017B010B
:103280008A01FC0117821682838181FFCCC1CE01A5
:1032900001963C01F6019381F70193FD859193FF1F
:1032A00081917F01882309F4BAC1853239F493FDF5
:1032B000859193FF81917F01853229F4B60190E0D9
:1032C0000E943F1BE7CF912C212C312CFFE1F315FD
:1032D000D8F08B3279F038F4803279F08332A1F46F
:1032E000232D20611DC08D3261F0803369F4232DC0
:1032F000216016C0832D8260382EE32DE4603E2EBF
:103300002AC0F32DF8601DC037FC2DC020ED280F1A
:103310002A3040F08E32B9F436FC81C1232D20646E
:10332000322E19C036FE06C08AE0989E200D112468
:10333000922E11C0EAE02E9E200D1124222EF32D94
:10334000F0623F2E08C08C3621F4832D8068382E21
:1033500002C0883641F4F70193FD859193FF819176
:103360007F018111B3CF982F9F7D9554933028F41E
:103370000C5F1F4F9FE399830DC0833631F0833775
:1033800071F0833509F059C021C0F801808189832B
:103390000E5F1F4F88248394912C530113C0280182
:1033A000F2E04F0E511CF801A080B18036FE03C040
:1033B000692D70E002C06FEF7FEFC5010E94241BF2
:1033C0004C018201F32DFF773F2E16C0280122E029
:1033D000420E511CF801A080B18036FE03C0692D59
:1033E00070E002C06FEF7FEFC5010E94191B4C0116
:1033F000F32DF0683F2E820133FC1BC0822D90E03C
:1034000088169906B0F4B60180E290E00E943F1B56
:103410002A94F4CFF50137FC859137FE81915F0145
:10342000B60190E00E943F1B21102A9421E0821AED
:1034300091088114910471F7E8C0843611F089363F
:1034400041F5F80137FE07C0608171818281938167
:103450000C5F1F4F08C060817181072E000C880B24
:10346000990B0E5F1F4FF32DFF763F2E97FF09C07C
:1034700090958095709561957F4F8F4F9F4FF06825
:103480003F2E2AE030E0A3010E947B1B882E861885
:1034900045C0853731F4232D2F7EB22E2AE030E04F
:1034A00025C0932D997FB92E8F36C1F018F4883539
:1034B00079F0B5C0803719F0883721F0B0C0E92F16
:1034C000E061BE2EB4FE0DC0FB2DF460BF2E09C01E
:1034D00034FE0AC0292F2660B22E06C028E030E054
:1034E00005C020E130E002C020E132E0F801B7FE83
:1034F00007C060817181828193810C5F1F4F06C07C
:103500006081718180E090E00E5F1F4FA3010E94F7
:103510007B1B882E8618FB2DFF773F2E36FE0DC0B5
:10352000232D2E7FA22E891458F434FE0BC032FCBA
:1035300009C0832D8E7EA82E05C0B82CA32C03C0F5
:10354000B82C01C0B92CA4FE0FC0FE01E80DF11D7E
:103550008081803321F49A2D997EA92E09C0A2FE84
:1035600006C0B394B39404C08A2D867809F0B3944E
:10357000A3FC11C0A0FE06C0B21488F4280C922C43
:103580009B180EC0B21460F4B60180E290E00E9475
:103590003F1BB394F7CFB21418F42B1802C0982C29
:1035A000212CA4FE10C0B60180E390E00E943F1BD6
:1035B000A2FE17C0A1FC03C088E790E002C088E526
:1035C00090E0B6010CC08A2D867859F0A1FE02C0A9
:1035D0008BE201C080E2A7FC8DE2B60190E00E9480
:1035E0003F1B891438F4B60180E390E00E943F1B32
:1035F0009A94F7CF8A94F301E80DF11D8081B6010A
:1036000090E00E943F1B8110F5CF222009F442CEAA
:10361000B60180E290E00E943F1B2A94F6CFF601AB
:103620008681978102C08FEF9FEF2B96E2E10C9489
:10363000F51BFC010590615070400110D8F7809592
:1036400090958E0F9F1F0895FC016150704001906E
:103650000110D8F7809590958E0F9F1F0895DC017B
:10366000FC01672F71917723E1F7329704C07C91B9
:103670006D9370836291AE17BF07C8F308950F93DF
:103680001F93CF93DF93FB01238121FD03C08FEFB5
:103690009FEF2CC022FF16C04681578124813581BF
:1036A0004217530744F4A081B1819D012F5F3F4F22
:1036B000318320838C93268137812F5F3F4F37835F
:1036C000268314C08B01EC01FB010084F185E02D01
:1036D0000995892BE1F6D80116968D919C91179743
:1036E000019617969C938E931697CE01DF91CF91FA
:1036F0001F910F910895FA01AA27283051F1203126
:1037000081F1E8946F936E7F6E5F7F4F8F4F9F4F75
:10371000AF4FB1E03ED0B4E03CD0670F781F891FB7
:103720009A1FA11D680F791F8A1F911DA11D6A0F85
:10373000711D811D911DA11D20D009F468943F9138
:103740002AE0269F11243019305D3193DEF6CF0137
:103750000895462F4770405D4193B3E00FD0C9F7FD
:10376000F6CF462F4F70405D4A3318F0495D31FD6A
:103770004052419302D0A9F7EACFB4E0A6959795BD
:10378000879577956795BA95C9F700976105710593
:1037900008959B01AC010A2E0694579547953795DD
:1037A0002795BA95C9F7620F731F841F951FA01D37
:1037B00008952F923F924F925F926F927F928F92D5
:1037C0009F92AF92BF92CF92DF92EF92FF920F93B0
:1037D0001F93CF93DF93CDB7DEB7CA1BDB0B0FB6BA
:1037E000F894DEBF0FBECDBF09942A883988488877
:1037F0005F846E847D848C849B84AA84B984C8840D
:10380000DF80EE80FD800C811B81AA81B981CE0F03
:10381000D11D0FB6F894DEBF0FBECDBFED010895E8
:04382000F894FFCF4A
:103824000000C8420000484200E1084E01426965B8
:103834006E76656E69646F0053697374656D61209B
:10384400436C696D61212100417072657465206269
:103854006F746F6E3A004163657074617200436FF8
:103864006E74726F6C65733A00497A71756965722A
:1038740064613A2042746E20310044657265636865
:10388400613A2042746E203300546D702E45787472
:103894003A004300546D702E496E743A00482E4D20
:1038A40061783A002500482E4D696E3A0048756DDE
:1038B400656461643A0054656D703A00256C640077
:1038C40050726573696F6E3A00506100416C74699F
:1038D4007475643A00736E6D0046756572746500A4
:1038E4004D65646961004C65766500446573706577
:1038F4006A61646F004C6C757669613A0050746F4C
:10390400526F63696F3A0050726564696363696FEB
:103914006E00542E4D61783A00542E4D696E3A0073
:0C39240050726564696363696F6E3A005D
:00000001FF
