S014000050726F796563746F546573742E737265631B
S11300000C947E000C949B000C949B000C946F0841
S11300100C949B000C949B000C949B000C949B00F0
S11300200C949B000C949B000C949B000C94EE0F7E
S11300300C944F0F0C949B000C949B000C949B000D
S11300400C949B000C949B000C949B000C949B00C0
S11300500C949B000C949B000C949B000C949B00B0
S11300600C949B000C949B00B409DE09440AF00A2A
S1130070C60B7D0C400DE20D8E0E07634236B79B16
S1130080D8A71A39685618AEBAAB558C1D3CB7CCF4
S11300905763BD6DEDFD753EF6177231BF0000006C
S11300A0803F08000000BE922449123EABAAAA2A4F
S11300B0BECDCCCC4C3E00000080BEABAAAAAA3E6A
S11300C000000000BF000000803F000000000008A6
S11300D04178D3BB4387D1133D190E3CC3BD428243
S11300E0AD2B3E68EC8276BED98FE1A93E4C80EF01
S11300F0FFBE01C4FF7F3F000000000011241FBEAB
S1130100CFEFD8E0DEBFCDBF11E0A0E0B1E0E2E484
S1130110F2E302C005900D92A83EB107D9F722E0A0
S1130120A8EEB1E001C01D92AE35B207E1F70E941E
S113013039090C941F190C940000CF93C82F0E9406
S113014009070E9411078EE40E9417070E941107F5
S11301508C2F0E9417070E9411070E940D07CF9150
S11301600895CF93C0910902C82B8C2F0E949D0043
S11301708C2F84600E949D008AE08A95F1F700C06C
S11301808C2F8B7F0E949D008FE39FE10197F1F7F5
S113019000C00000CF910895CF93C82F10920A0297
S11301A010920902807F0E94B1008C2F8295807F7B
S11301B00E94B100CF910895CF93C82F81E090E0C1
S11301C090930A02809309028C2F807F0E94B100D1
S11301D08C2F8295807F0E94B100CF910895CF9398
S11301E0DF93EC018881882331F021960E94DC00A2
S11301F089918111FBCFDF91CF91089580E00E9416
S11302009D002FEF80E792E0215080409040E1F77D
S113021000C0000010920A021092090280E30E94BA
S1130220B1008FED9EE20197F1F700C0000080E37A
S11302300E94B10080E30E94B10080E20E94B100FC
S113024088E20E94CC008FED9EE20197F1F700C096
S1130250000088E00E94CC008FED9EE20197F1F748
S113026000C0000081E00E94CC008FED9EE2019767
S1130270F1F700C0000086E00E94CC008FED9EE202
S11302800197F1F700C000008CE00E94CC008FEDD4
S11302909EE20197F1F700C0000008959B012150F0
S11302A031091216130684F4FC01E60FF71FDC0172
S11302B080E090E04C9152915D93408301962150EF
S11302C0310982179307B4F30895CF92DF92EF9226
S11302D0FF920F931F93CF93DF936B018A010097D3
S11302E099F0EB01E0E0F0E00F2EFAE0EF2EF12CB4
S11302F0F02D3196B7010E946F15805D8993862F8A
S1130300972F0097B1F702C0E0E0F0E0E017F107A3
S11303105CF4EC0DFD1D9601200F311F80E38193E9
S1130320E217F307E1F701C08F01B801C6010E948B
S11303304E01E601C00FD11F1882C801DF91CF9191
S11303401F910F91FF90EF90DF90CF9008952F921F
S11303503F924F925F926F927F928F929F92AF9251
S1130360BF92CF92DF92EF92FF920F931F93CF939E
S1130370DF934B015C018A01E9010E9480126B0149
S11303807C0140E050E0B801C6010E9465011C01F7
S1130390209799F1F801E80FF91F8EE28083BE01DE
S11303A00D2E000C880B990B0E94B8129B01AC0116
S11303B060E070E080E291E40E94DA132B013C01DA
S11303C0B601DD0C880B990B0E94B8129B01AC019D
S11303D0C501B4010E949C112FEF221A320A020DAA
S11303E0131DA30192010E946D130E948012DC016F
S11303F0CB01AE01B8010E946501DF91CF911F913D
S11304000F91FF90EF90DF90CF90BF90AF909F90AF
S11304108F907F906F905F904F903F902F900895B2
S1130420CF93DF93D82F0E9409070E9411078EEE05
S11304300E9417070E9411078D2F0E9417070E9420
S113044011070E9409070E9411078FEE0E941707E7
S11304500E94110780E00E941D070E9411070E945C
S11304602707C82F0E9411070E940D070E94090741
S11304700E9411078EEE0E9417070E94110781E067
S11304808D0F0E9417070E9411070E9409070E94FE
S113049011078FEE0E9417070E94110780E00E9447
S11304A01D070E9411070E942707D82F0E941107D9
S11304B00E940D078C2F90E0982F88278D0F911D97
S11304C0DF91CF910895CF93DF93D82FC62F0E9449
S11304D009070E9411078EEE0E9417070E94110758
S11304E08D2F0E9417070E9411078C2F0E94170757
S11304F00E9411070E940D07DF91CF9108950F9379
S11305001F93CF93DF93D82F0E9409070E941107EE
S11305108EEE0E9417070E94110786EF0E941707AC
S11305200E9411070E9409070E9411078FEE0E9482
S113053017070E94110780E00E941D070E941107FF
S11305400E942707C82F0E9411070E9409070E94D2
S113055011078EEE0E9417070E94110787EF0E9471
S113056017070E9411070E9409070E9411078FEEC6
S11305700E9417070E94110780E00E941D070E9435
S113058011070E942707082F0E9411070E940907DC
S11305900E9411078EEE0E9417070E94110788EF30
S11305A00E9417070E9411070E9409070E94110761
S11305B08FEE0E9417070E94110780E00E941D071A
S11305C00E9411070E942707182F0E9411070E94FA
S11305D00D078C2F90E0A0E0B0E0DC01992788277C
S11305E0202F30E0322F2227820F931FA11DB11D2F
S11305F0810F911DA11DB11D28E030E02D1B310993
S1130600BC01CD0104C095958795779567952A958A
S1130610D2F7DF91CF911F910F9108958AEA0E943A
S1130620100290930E0280930D028FEC97E00197D5
S1130630F1F700C000008CEA0E94100290931802A7
S1130640809317028FEC97E00197F1F700C0000048
S11306508EEA0E94100290931A02809319028FEC82
S113066097E00197F1F700C0000080EB0E941002B0
S113067090931402809313028FEC97E00197F1F7A3
S113068000C0000082EB0E9410029093120280933B
S113069011028FEC97E00197F1F700C0000084EBA2
S11306A00E9410029093100280930F028FEC97E047
S11306B00197F1F700C0000086EB0E9410029093AE
S11306C01E0280931D028FEC97E00197F1F700C0A2
S11306D0000088EB0E94100290931C0280931B027E
S11306E08FEC97E00197F1F700C000008AEB0E94BD
S11306F0100290931602809315028FEC97E00197F5
S1130700F1F700C000008CEB0E94100290932002CD
S113071080931F028FEC97E00197F1F700C000006F
S11307208EEB0E94100290930C0280930B028FECCC
S113073097E00197F1F700C0000008956EE284EF9E
S11307400E94630287E197E40197F1F700C000007B
S113075086EF0E941002BC0180E090E008954F9261
S11307605F926F927F928F929F92AF92BF92CF923D
S1130770DF92EF92FF920F931F93CF93C82F0E94A3
S11307809E036B017C016C2F6295660F660F607C83
S11307906C5C84EF0E946302C11107C08FE496E48D
S11307A00197F1F700C000001DC0C13039F48FE299
S11307B095E70197F1F700C0000014C0C23039F486
S11307C08FEE92ED0197F1F700C000000BC0C3302B
S11307D049F49FEB2EE381E0915020408040E1F703
S11307E000C000008C2F0E947F024B015C018091AD
S11307F00F0290911002A7019601281B390B4109A1
S11308005109A0911102B09112020E94CA152B0144
S11308103C01992334F42FEF420E2FE7521E611C42
S1130820711C032E3FE075946794579447943A954E
S1130830D1F7302D80911F0260E070E0782F770FA0
S1130840770F770F072E000C880B990B20910B0262
S113085030910C028901330F220B330BA90198014B
S1130860240D351D461D571D0E94A515420E531E0D
S1130870641E751E80EA481A8FE0580A61087108E0
S1130880A3019201C301B2010E945F158B019C0177
S1130890992324F40150104F2F4F3F4FA901980181
S11308A0012E1CE055954795379527951A95D1F754
S11308B0102DA0911B02B0911C020E94D5156B0152
S11308C07C01992334F42FEFC20E27E0D21EE11CE1
S11308D0F11C0B2EBBE0F594E794D794C794BA951A
S11308E0D1F7B02DA0911702B0911802A301920183
S11308F00E94D5158B019C01992324F40150184FB3
S11309002F4F3F4FD901C801072E7BE0B595A7951E
S1130910979587957A95D1F7702DC80ED91EEA1E42
S1130920FB1EA0911302B0911402A7019601305846
S11309304F4F5F4F0E94CA152B013C01032E3FE02D
S113094076946794579447943A95D1F7302D8091D3
S11309500D0290910E02880F991F880F991F092E7E
S1130960000CAA0BBB0BC80ED91EEA1EFB1E0C2ED4
S113097004C0CC0CDD1CEE1CFF1C0A94D2F782E0F0
S1130980C80ED11CE11CF11CD701C601FF201CF4C8
S11309900396A11DB11DB595A79597958795B59516
S11309A0A79597958795A5019401281B390B4A0BA8
S11309B05B0B80E593ECA0E0B0E0BC01CD0104C08A
S11309C09595879577956795CA95D2F70E945F1597
S11309D099235CF0660F771F881F991FA30192016A
S11309E00E94831569017A010AC0A30192010E9441
S11309F0831569017A01CC0CDD1CEE1CFF1CD701A8
S1130A00C601FF2024F481509F4FAF4FBF4F692F81
S1130A107A2F8B2F992787FD9A959B01AC010E9411
S1130A205F159B01AC01AEEDBBE00E94CA154B0102
S1130A305C01A3E4B3EEA70196010E94D8158B01D3
S1130A409C01992324F4015011092F4F3F4FA90110
S1130A50772757FD7095672FD501C401BB201CF47F
S1130A600197AF4FBF4FCD01BB2797FDB095AB2F7B
S1130A70840F951FA61FB71F8153914FAF4FBF4FD0
S1130A80AC01BD0122F4415F5F4F6F4F7F4F68940B
S1130A9013F875956795579547951694D1F7CB013B
S1130AA0BA016C0D7D1D8E1D9F1DCF911F910F915D
S1130AB0FF90EF90DF90CF90BF90AF909F908F907A
S1130AC07F906F905F904F9008950E94B81220E03D
S1130AD033E743ED57E40E940E1221E03EED42E479
S1130AE05EE30E94DA139B01AC0160E070E080E8F1
S1130AF09FE30E949C1120E03AE24DE257E40E94F9
S1130B006D1308952FEF87EA91E6215080409040BD
S1130B10E1F700C00000109221020895CF92DF9205
S1130B20EF92FF92CF93DF9300D000D01F92CDB706
S1130B30DEB7682F792FFE01319685E0DF011D9223
S1130B408A95E9F7109221024198399ABFEF29EF6B
S1130B5080E0B15020408040E1F700C00000419A9D
S1130B6039982FE10AC09AE09A95F1F700C0215014
S1130B7021F484E0809321028FC03199F4CF8091D5
S1130B802102882359F088C0AAE0AA95F1F700C091
S1130B90215029F484E0809321020EC023E3319B89
S1130BA0F3CF0AC0BAE0BA95F1F700C0215029F496
S1130BB084E08093210270C023E33199F3CF8091C4
S1130BC02102882309F443C067C08AE08A95F1F7BB
S1130BD000C0215031F45093210245E034C0422F2B
S1130BE024E2319BF2CF20912102211129C09AEBFA
S1130BF09A95F1F700C0319B1EC0E1E0F0E0EC0FE4
S1130C00FD1FE40FF11D2081D701C601032E04C08E
S1130C10880F991FAA1FBB1F0A94D2F7822B8083C7
S1130C200AC0AAE0AA95F1F700C0215029F4509314
S1130C302102242F06C023E33199F3CF242F01C0CE
S1130C40242F315062F64F5F453038F008C040E041
S1130C50C12CD12C7601C39454E037E0C1CF8091EC
S1130C602102811119C099818A81980F8B81980F73
S1130C708C81890F9D81891721F083E08093210263
S1130C800BC0DE011196E62FF72FCE0105962D91AC
S1130C902193A817B907D9F70F900F900F900F90D1
S1130CA00F90DF91CF91FF90EF90DF90CF90089558
S1130CB08F929F92AF92BF92CF92DF92EF92FF9268
S1130CC00F931F93CF93DF9300D000D0CDB7DEB73F
S1130CD08C017B0119821A821B821C82CE0101962F
S1130CE00E948E0580912102811173C06C818B81D9
S1130CF0882384F48F7770E0782B072E000C880B00
S1130D00990B0E94B81220E030E040E251EC0E94BE
S1130D100E120EC070E0782B072E000C880B990B76
S1130D200E94B81220E030E040E251E40E940E122A
S1130D30F8016083718382839383698170E0762FE5
S1130D4066278A81682B072E000C880B990B0E945A
S1130D50B81220E030E040E251E40E940E124B0150
S1130D605C01F7016083718382839383F801C080FF
S1130D70D180E280F38020E030E040E252ECC70111
S1130D80B6010E940912882354F020E030E040EAC2
S1130D9052E4C701B6010E946813181624F482E0D5
S1130DA08093210216C020E030E0A901C501B401FE
S1130DB00E940912882354F020E030E048EC52E409
S1130DC0C501B4010E94681318161CF481E08093D5
S1130DD021020F900F900F900F90DF91CF911F91F0
S1130DE00F91FF90EF90DF90CF90BF90AF909F90C6
S1130DF08F9008958CE08093B800E9EBF0E0808157
S1130E008C7F80838FEF8093BB0084E08093BC0051
S1130E10089584EA8093BC00089584E98093BC001B
S1130E200895ECEBF0E080818823ECF7089580933B
S1130E30BB0084E88093BC000895882321F084ECEF
S1130E408093BC00089584E88093BC000895809149
S1130E50BB000895CF93DF93EC010E9409070E9421
S1130E60110780ED0E9417070E94110780E00E947D
S1130E7017070E9411070E940D070E9409070E948C
S1130E80110781ED0E9417070E94110781E00E945B
S1130E901D070E9411070E942707888381E00E9492
S1130EA01D070E9411070E942707898381E00E9481
S1130EB01D070E9411070E9427078A8381E00E9470
S1130EC01D070E9411070E9427078B8381E00E945F
S1130ED01D070E9411070E9427078C8381E00E944E
S1130EE01D070E9411070E9427078D8380E00E943E
S1130EF01D070E9411070E9427078E830E94110775
S1130F000E940D07DF91CF910895ECE7F0E0808116
S1130F1080648083EEE7F0E0808181608083EAE78B
S1130F20F0E0808187688083808180648083089575
S1130F30EAE7F0E0808180648083808186FDFDCFD4
S1130F408091780090917900089584B1887F84B964
S1130F5085B1876085B9EBE6F0E0808187608083A6
S1130F60E8E6F0E080818160808308958F929F920B
S1130F70AF92BF92CF92DF92EF92FF9220E030E0E7
S1130F8048EC52E460913F0270914002809141022A
S1130F90909142020E940E1220E030E040E05EE3B5
S1130FA00E94DA134B015C01C0903A02D0903B02DC
S1130FB0E0903C02F0903D0226E636E646E65FE32A
S1130FC0C701B6010E946D1320E030E040EE52E408
S1130FD00E949D11A50194010E946D134B015C01B7
S1130FE02DEC3CEC4CEC5DE3C701B6010E946D13A3
S1130FF09B01AC01C501B4010E949D1120E030E0C9
S11310004CED52E40E949C11FF90EF90DF90CF9042
S1131010BF90AF909F908F9008950097F1F4EBE606
S1131020F0E080818E7F80832FEF89EF90E0215064
S113103080409040E1F700C00000189906C080810C
S11310408160808381E090E00895EBE6F0E08081A8
S11310508160808380E090E0089581309105F1F40F
S1131060EBE6F0E080818D7F80832FEF89EF90E0C5
S1131070215080409040E1F700C00000199906C05B
S113108080818260808381E090E00895EBE6F0E067
S113109080818260808380E090E008950297F1F47B
S11310A0EBE6F0E080818B7F80832FEF89EF90E087
S11310B0215080409040E1F700C000001A9906C01A
S11310C080818460808381E090E00895EBE6F0E025
S11310D080818460808380E090E0089508951F9269
S11310E00F920FB60F9211242F933F934F935F9358
S11310F06F937F938F939F93AF93BF93EF93FF93DC
S1131100189915C080E090E00E940D08892B41F0E9
S113111081E080933E02109252021092530234C036
S113112010923E0210925202109253022DC019994D
S113113015C081E090E00E940D08892B41F01092C7
S11311403E021092520281E0809353021DC010921D
S11311503E02109252021092530216C01A9914C001
S113116082E090E00E940D08892B41F010923E022B
S113117081E0809352021092530206C010923E0204
S11311801092520210925302FF91EF91BF91AF91CE
S11311909F918F917F916F915F914F913F912F918B
S11311A00F900FBE0F901F901895E1E8F0E080813A
S11311B08C60808381E19AE790938B0080938A000E
S11311C083E294EF9093890080938800EFE6F0E047
S11311D08081866080830895CF93DF930E940907FE
S11311E00E94110780E90E9417070E94110780E0FE
S11311F00E9417070E9411070E9409070E94110705
S113120081E90E9417070E94110781E00E941D07CF
S11312100E9411070E942707D82F0E94110780E01F
S11312200E941D070E9411070E942707C82F0E94D1
S113123011070E940D071092BC002C2F30E03D2BAB
S11312403595279535952795359527953595279582
S113125033FD386FC90199230CF40F969595879542
S1131260959587959595879595958795DF91CF91D8
S11312700895CF93DF93CDB7DEB7E8970FB6F89410
S1131280DEBF0FBECDBF0E94A5070E94FA060E94D2
S1131290FE000E9485070E940E030E94820585E0DD
S11312A0E0E0F1E0DE01D49601900D928A95E1F739
S11312B04CA95DA96EA97FA988AD0E9419118BE480
S11312C092E00E942A07789485E091E00E94EF0062
S11312D080EC0E94CC0080E191E00E94EF002FEFAF
S11312E08BE792E9215080409040E1F700C0000074
S11312F081E00E94CC0080E291E00E94EF0080EC4B
S11313000E94CC008EE291E00E94EF000E94D5087A
S113131010E00F2EF8E8EF2EF12CF02D0F2EF3E253
S1131320CF2EF4EFDF2EF02D02E00F2EF7E05F2E2C
S1131330F02D6894662463F80F2EF6E07F2EF02DCE
S11313400F2EF1E98F2EF1E09F2EF02D5E01EDE0DE
S1131350AE0EB11C812F90E0FC0189309105E0F7BD
S1131360EC5CFF4F0C94C41580913E02882391F3EA
S113137081E00E94CC0086E391E00E94EF00FFEF41
S113138027EA81E6F15020408040E1F700C00000E8
S113139081E00E94CC0081E491E00E94EF0080ECA7
S11313A00E94CC0082E591E00E94EF0010923E0280
S11313B0109253021092520211E0CCCF80913E025F
S11313C0882341F2F701118210826FE372E08AE30D
S11313D092E00E9458060E94EC08909323028093A6
S11313E0220260913A0270913B0280913C029091FA
S11313F03D026093430270934402809345029093AC
S1131400460221E030E0AE014F5F5F4F0E94A7012A
S11314104AE0BE01665D7F4F8091220290912302D3
S11314200E94001681E00E94CC0081E691E00E94B7
S1131430EF00CE0101960E94EF008FED0E94DC00C8
S11314408AE691E00E94EF0080EC0E94CC008CE6DA
S113145091E00E94EF00CE018A960E94EF008FED8A
S11314600E94DC008AE691E00E94EF00F701D1823D
S1131470C08281E08093080210923E0210925302CF
S113148010925202102F66CF809153028823B9F034
S113149010920802F7011182108285E791E00E9400
S11314A0EF00F701D182C08281E0809302021092A2
S11314B03E021092530210925202162D4BCF80918D
S11314C05202882309F43FC010920802F7011182E6
S11314D010826FE372E08AE392E00E945806609102
S11314E03F027091400280914102909142026093C8
S11314F04702709348028093490290934A0221E084
S113150030E0AE01495F5F4F0E94A70181E00E9475
S1131510CC0080E891E00E94EF00CE0107960E9483
S1131520EF0089E891E00E94EF00F701D182C082C8
S113153081E08093060210923E02109253021092B0
S1131540520213E007CF80910102882309F402CFED
S113155060913A0270913B0280913C0290913D026D
S11315606093430270934402809345029093460231
S113157021E030E0AE014F5F5F4F0E94A70181E0A0
S11315800E94CC008BE891E00E94EF00CE0101960E
S11315900E94EF008FED0E94DC008AE691E00E9439
S11315A0EF004AE0BE01665D7F4F80912202909178
S11315B023020E94001680EC0E94CC008CE691E08D
S11315C00E94EF00CE018A960E94EF008FED0E94E8
S11315D0DC008AE691E00E94EF0010920102BACE8C
S11315E080915302882309F464C010920602F70123
S11315F0118210826FE372E08AE392E00E9458063F
S11316000E94EC08909323028093220260913A0294
S113161070913B0280913C0290913D0260934302A1
S113162070934402809345029093460221E030E097
S1131630AE014F5F5F4F0E94A7014AE0BE01665DA5
S11316407F4F80912202909123020E94001681E034
S11316500E94CC0081E691E00E94EF00CE01019649
S11316600E94EF008FED0E94DC008AE691E00E9468
S1131670EF0080EC0E94CC008CE691E00E94EF0029
S1131680CE018A960E94EF008FED0E94DC008AE66C
S113169091E00E94EF00F701D182C08281E0809343
S11316A0080210923E021092530210925202102F1E
S11316B051CE809152028823D9F110920602F7018B
S11316C01182108281E00E94AF03609356027093EE
S11316D0570280935802909359029F938F937F935C
S11316E06F939F928F92BF92AF920E94251681E0D2
S11316F00E94CC0085E991E00E94EF00C5010E94A0
S1131700EF008EE991E00E94EF00F701D182C082E0
S113171081E08093070210923E02109253021092CD
S113172052020FB6F894DEBF0FBECDBF14E012CE46
S113173080910102882309F40DCE60913F027091DB
S1131740400280914102909142026093470270935B
S113175048028093490290934A0221E030E0AE01AE
S1131760495F5F4F0E94A70181E00E94CC0080E89E
S113177091E00E94EF00CE0107960E94EF0089E8F5
S113178091E00E94EF0010920102E4CD8091530297
S1131790882309F43FC010920702F70111821082D6
S11317A06FE372E08AE392E00E94580660913F0280
S11317B070914002809141029091420260934702ED
S11317C0709348028093490290934A0221E030E0EA
S11317D0AE01495F5F4F0E94A70181E00E94CC00E7
S11317E080E891E00E94EF00CE0107960E94EF008E
S11317F089E891E00E94EF00F701D182C08281E084
S11318008093060210923E021092530210925202EA
S113181013E0A0CD80915202882309F441C01092B4
S11318200702F7011182108281E00E94AF036093E6
S113183056027093570280935802909359020E9463
S11318406505609336027093370280933802909353
S1131850390221E030E0AE014B5E5F4F0E94A701E8
S113186081E00E94CC0081EA91E00E94EF00CE0169
S113187045960E94EF0080EC0E94CC008AEA91E039
S11318800E94EF00F701D182C08281E080930502BB
S113189010923E02109253021092520215E05ACD59
S11318A080910102882309F455CD809159028F93C8
S11318B0809158028F93809157028F9380915602A2
S11318C08F939F928F92BF92AF920E94251681E0D0
S11318D00E94CC0085E991E00E94EF00C5010E94BE
S11318E0EF008EE991E00E94EF00109201020FB622
S11318F0F894DEBF0FBECDBF2DCD80915302882357
S1131900D9F110920502F7011182108281E00E9440
S1131910AF036093560270935702809358029093DA
S113192059029F938F937F936F939F928F92BF924D
S1131930AF920E94251681E00E94CC0085E991E0D7
S11319400E94EF00C5010E94EF008EE991E00E9421
S1131950EF00F701D182C08281E0809307021092E8
S11319603E0210925302109252020FB6F894DEBF58
S11319700FBECDBF14E0EECC80915202882309F44F
S113198056C010920502F701118210820E94980736
S113199090932602809325028C32F1E09F0754F441
S11319A087E0EEEAF1E0A7E2B2E001900D928A95B9
S11319B0E1F724C0843F21E0920754F486E0E5EB8C
S11319C0F1E0A7E2B2E001900D928A95E1F716C02A
S11319D08032934054F485E0EBEBF1E0A7E2B2E00F
S11319E001900D928A95E1F709C08AE0E0ECF1E0FC
S11319F0A7E2B2E001900D928A95E1F781E00E949E
S1131A00CC008AEC91E00E94EF0087E292E00E9411
S1131A10EF00F701D182C08281E08093040210922A
S1131A203E021092530210925202172D93CC8091D1
S1131A300102882309F48ECC60913602709137023A
S1131A40809138029091390221E030E0AE014B5E82
S1131A505F4F0E94A70181E00E94CC0081EA91E0DF
S1131A600E94EF00CE0145960E94EF0080EC0E9498
S1131A70CC008AEA91E00E94EF00109201026ACC45
S1131A8080915302882309F441C010920402F701A3
S1131A901182108281E00E94AF036093560270931A
S1131AA0570280935802909359020E9465056093EF
S1131AB0360270933702809338029093390221E002
S1131AC030E0AE014B5E5F4F0E94A70181E00E94AF
S1131AD0CC0081EA91E00E94EF00CE0145960E947D
S1131AE0EF0080EC0E94CC008AEA91E00E94EF00B3
S1131AF0F701D182C08281E08093050210923E02F8
S1131B00109253021092520215E024CC809152029A
S1131B10882309F444C010920402F7011182108250
S1131B206FE372E08AE392E00E94580620913F023C
S1131B3030914002409141025091420260913A0238
S1131B4070913B0280913C0290913D020E94B60745
S1131B5021E030E0AE014C5D5F4F0E94A70181E0BF
S1131B600E94CC0082ED91E00E94EF00CE018496A9
S1131B700E94EF008FED0E94DC008AE691E00E9453
S1131B80EF00F701D182C08281E0809303021092BA
S1131B903E021092530210925202152DDBCB80911B
S1131BA00102882309F4D6CB81E00E94CC008AECA0
S1131BB091E00E94EF0087E292E00E94EF00109211
S1131BC00102C8CB80915302882309F456C01092B5
S1131BD00302F701118210820E9498079093260253
S1131BE0809325028C32F1E09F0754F487E0EEEAFB
S1131BF0F1E0A7E2B2E001900D928A95E1F724C0EA
S1131C00843F21E0920754F486E0E5EBF1E0A7E29B
S1131C10B2E001900D928A95E1F716C080329340AC
S1131C2054F485E0EBEBF1E0A7E2B2E001900D9211
S1131C308A95E1F709C08AE0E0ECF1E0A7E2B2E0BE
S1131C4001900D928A95E1F781E00E94CC008AEC24
S1131C5091E00E94EF0087E292E00E94EF00F7011A
S1131C60D182C08281E08093040210923E021092DD
S1131C70530210925202172D6DCB80915202882389
S1131C80D1F010920302F7011182108281E00E94C8
S1131C90CC0085E791E00E94EF00F701D182C08279
S1131CA081E08093020210923E021092530210923D
S1131CB05202162D4FCB80910102882309F44ACB9E
S1131CC020913F02309140024091410250914202E2
S1131CD060913A0270913B0280913C0290913D02E6
S1131CE00E94B60721E030E0AE014C5D5F4F0E94D8
S1131CF0A70181E00E94CC0082ED91E00E94EF00F8
S1131D00CE0184960E94EF008FED0E94DC008AE6EB
S1131D1091E00E94EF00109201021CCB80915302CB
S1131D20882309F444C010920202F7011182108240
S1131D306FE372E08AE392E00E94580620913F022A
S1131D4030914002409141025091420260913A0226
S1131D5070913B0280913C0290913D020E94B60733
S1131D6021E030E0AE014C5D5F4F0E94A70181E0AD
S1131D700E94CC0082ED91E00E94EF00CE01849697
S1131D800E94EF008FED0E94DC008AE691E00E9441
S1131D90EF00F701D182C08281E0809303021092A8
S1131DA03E021092530210925202152DD3CA809112
S1131DB05202882309F464C010920202F7011182CE
S1131DC010826FE372E08AE392E00E9458060E9458
S1131DD0EC08909323028093220260913A0270915E
S1131DE03B0280913C0290913D02609343027093C8
S1131DF04402809345029093460221E030E0AE0114
S1131E004F5F5F4F0E94A7014AE0BE01665D7F4FAE
S1131E1080912202909123020E94001681E00E9488
S1131E20CC0081E691E00E94EF00CE0101960E9471
S1131E30EF008FED0E94DC008AE691E00E94EF0043
S1131E4080EC0E94CC008CE691E00E94EF00CE0171
S1131E508A960E94EF008FED0E94DC008AE691E0F2
S1131E600E94EF00F701D182C08281E080930802D2
S1131E7010923E021092530210925202102F6ACA1C
S1131E8080910102882309F465CA81E00E94CC0094
S1131E908CED91E00E94EF00109201025BCA1F9248
S1131EA00F920FB60F9211242F933F934F935F938A
S1131EB06F937F938F939F93AF93BF93EF93FF930E
S1131EC0909108028091060220910302892B11F45B
S1131ED0222361F06FE372E08AE392E00E945806E5
S1131EE00E94EC08909323028093220280910702BF
S1131EF0882359F081E00E94AF03609356027093E7
S1131F0057028093580290935902809105028823C6
S1131F10A9F081E00E94AF036093560270935702C8
S1131F2080935802909359020E946505609336028B
S1131F30709337028093380290933902809104029F
S1131F408823C1F10E94980790932602809325026A
S1131F508C3221E0920754F487E0EEEAF1E0A7E244
S1131F60B2E001900D928A95E1F724C0843F21E00C
S1131F70920754F486E0E5EBF1E0A7E2B2E00190C9
S1131F800D928A95E1F716C08032934054F485E0AF
S1131F90EBEBF1E0A7E2B2E001900D928A95E1F754
S1131FA009C08AE0E0ECF1E0A7E2B2E001900D9212
S1131FB08A95E1F781E080930102FF91EF91BF914F
S1131FC0AF919F918F917F916F915F914F913F91CD
S1131FD02F910F900FBE0F901F9018951F920F9284
S1131FE00FB60F9211248F929F92AF92BF92CF920D
S1131FF0DF92EF92FF920F931F932F933F934F9390
S11320005F936F937F938F939F93AF93BF93EF935C
S1132010FF93CF93DF9300D000D0CDB7DEB76FE34B
S113202072E08AE392E00E9458060E94EC089093C2
S113203023028093220281E00E94AF036093560240
S11320407093570280935802909359020E94650539
S1132050609336027093370280933802909339026A
S11320600E9498078C019093260280932502F09099
S11320703F02D09040029090410280904202E09052
S11320803A02A0903B02B0903C02C0903D022F2D3A
S11320903D2D492D582D6E2D7A2D8B2D9C2D0E9472
S11320A0B60769837A838B839C830C3281E018079B
S11320B054F487E0EEEAF1E0A7E2B2E001900D9279
S11320C08A95E1F725C0043F81E0180754F486E0BF
S11320D0E5EBF1E0A7E2B2E001900D928A95E1F719
S11320E017C0003283E0180754F485E0EBEBF1E00D
S11320F0A7E2B2E001900D928A95E1F709C08AE067
S1132100E0ECF1E0A7E2B2E001900D928A95E1F7EC
S11321108E2D9A2DAB2DBC2D8093430290934402B7
S1132120A0934502B09346028F2D9D2DA92DB82D65
S11321308093470290934802A0934902B0934A02C5
S1132140E8EEF1E0A3E4B2E0E08211968C911197FD
S1132150818312968C911297828313968C91838338
S1132160A7E4B2E0F48211968C91119785831296BC
S11321708C911297868313968C9187838091560253
S1132180909157022091580230915902308721874B
S113219092878387A6E3B2E08C91848711968C9111
S11321A01197858712968C911297868713968C9136
S11321B08787108B018B8981828B8A81838B8B81AA
S11321C0848BCE01059690935502809354028C81A2
S11321D0858B80912402868B809122029091230228
S11321E0978B808F81E080930102CF010E94891137
S11321F00F900F900F900F90DF91CF91FF91EF917F
S1132200BF91AF919F918F917F916F915F914F910A
S11322103F912F911F910F91FF90EF90DF90CF90FE
S1132220BF90AF909F908F900F900FBE0F901F9014
S113223018951F93CF93DF9300D000D01F92CDB792
S1132240DEB749835A83162F6B837C838D83298160
S11322503A8140E050E060E472E48FE090E00E9454
S113226083152150310930935D0220935C02309331
S1132270C50080915C028093C40088E18093C10012
S1132280193028F0612F70E06250710904C0612F89
S113229070E06550710980915A0290915B02682B3D
S11322A0792B70935B0260935A02E2ECF0E0808138
S11322B0660F771F682B608320819D81892F90E0B2
S11322C00197880F991F880F991F880F991F822BD8
S11322D080838C81853431F08F3449F480E380939A
S11322E0C20005C0E2ECF0E080818062808380E07F
S11322F00F900F900F900F900F90DF91CF911F913F
S11323000895E0ECF0E0908195FFFDCF8093C60046
S113231008950F931F93CF93DF93EC018C01075E15
S11323201F4F89910E9481110C171D07D1F7DF916E
S1132330CF911F910F9108955058BB27AA270E944F
S1132340B4110C942E130E94201338F00E9427130A
S113235020F039F49F3F19F426F40C941D130EF465
S1132360E095E7FB0C941713E92F0E943F1358F3F1
S1132370BA17620773078407950720F079F4A6F566
S11323800C9461130EF4E0950B2EBA2FA02D0B01C3
S1132390B90190010C01CA01A0011124FF27591BA6
S11323A099F0593F50F4503E68F11A16F040A22FAC
S11323B0232F342F4427585FF3CF4695379527951D
S11323C0A795F0405395C9F77EF41F16BA0B620B1C
S11323D0730B840BBAF09150A1F0FF0FBB1F661F63
S11323E0771F881FC2F70EC0BA0F621F731F841FA6
S11323F048F4879577956795B795F7959E3F08F0CC
S1132400B0CF9395880F08F09927EE0F979587958D
S113241008950E94F31208F481E008950E942212A4
S11324200C942E130E94271358F00E94201340F09E
S113243029F45F3F29F00C94171351110C94621383
S11324400C941D130E943F1368F39923B1F3552391
S113245091F3951B550BBB27AA27621773078407B3
S113246038F09F5F5F4F220F331F441FAA1FA9F349
S113247035D00E2E3AF0E0E832D091505040E69537
S1132480001CCAF72BD0FE2F29D0660F771F881F98
S1132490BB1F261737074807AB07B0E809F0BB0B8B
S11324A0802DBF01FF2793585F4F3AF09E3F51059F
S11324B078F00C9417130C9462135F3FE4F3983E86
S11324C0D4F3869577956795B795F7959F5FC9F788
S11324D0880F911D9695879597F90895E1E0660F09
S11324E0771F881FBB1F621773078407BA0720F082
S11324F0621B730B840BBA0BEE1F88F7E0950895EB
S11325000E9487126894B1110C94621308950E947A
S1132510471388F09F5798F0B92F9927B751B0F017
S1132520E1F0660F771F881F991F1AF0BA95C9F753
S113253014C0B13091F00E946113B1E008950C947D
S11325406113672F782F8827B85F39F0B93FCCF330
S1132550869577956795B395D9F73EF490958095D0
S1132560709561957F4F8F4F9F4F0895E89409C0F0
S113257097FB3EF490958095709561957F4F8F4FB2
S11325809F4F9923A9F0F92F96E9BB279395F695C8
S1132590879577956795B795F111F8CFFAF4BB0F46
S11325A011F460FF1BC06F5F7F4F8F4F9F4F16C0AA
S11325B0882311F096E911C0772321F09EE8872F34
S11325C0762F05C0662371F096E8862F70E060E0F0
S11325D02AF09A95660F771F881FDAF7880F969569
S11325E0879597F90895990F0008550FAA0BE0E80D
S11325F0FEEF16161706E807F907C0F012161306C1
S1132600E407F50798F0621B730B840B950B39F400
S11326100A2661F0232B242B252B21F408950A2666
S113262009F4A140A6958FEF811D811D089597F9A6
S11326309F6780E870E060E008959FEF80EC089564
S113264000240A941616170618060906089500248D
S11326500A9412161306140605060895092E039407
S1132660000C11F4882352F0BB0F40F4BF2B11F47B
S113267060FF04C06F5F7F4F8F4F9F4F089557FDDA
S11326809058440F551F59F05F3F71F04795880FDC
S113269097FB991F61F09F3F79F087950895121673
S11326A013061406551FF2CF4695F1DF08C016161F
S11326B017061806991FF1CF8695710561050894D0
S11326C00895E894BB2766277727CB0197F90895E7
S11326D00E94F31208F48FEF08950E9480130C9463
S11326E02E130E94201338F00E94271320F0952304
S11326F011F00C9417130C941D1311240C946213F1
S11327000E943F1370F3959FC1F3950F50E0551F3E
S1132710629FF001729FBB27F00DB11D639FAA2732
S1132720F00DB11DAA1F649F6627B00DA11D661F81
S1132730829F2227B00DA11D621F739FB00DA11DA2
S1132740621F839FA00D611D221F749F3327A00D5C
S1132750611D231F849F600D211D822F762F6A2FF8
S113276011249F5750409AF0F1F088234AF0EE0F5D
S1132770FF1FBB1F661F771F881F91505040A9F78A
S11327809E3F510580F00C9417130C9462135F3F25
S1132790E4F3983ED4F3869577956795B795F795C6
S11327A0E7959F5FC1F7FE2B880F911D969587953E
S11327B097F90895FA01EE0FFF1F309621053105B0
S11327C0A1F16115710561F48038BFE39B0749F1FC
S11327D068949038810561F08038BFEF9B0741F021
S11327E099234AF5FF3FE1053105210519F1E894E4
S11327F00894E795D901AA2329F4AB2FBE2FF85FDB
S1132800D0F310C0FF5F70F4A695E0F7F73950F0ED
S113281019F0FF3A38F49F779F930DD00F9007FC7F
S11328209058089546F00C941D1360E070E080E821
S11328309FE308954FE79F775F934F933F932F93C1
S11328400E94D5142F913F914F915F910E946D1377
S11328500C94321429F416F00C9417130C9461138D
S11328600C941D130E944713A8F39638A0F707F899
S11328700F92E8942BE33AEA48EB5FE70E94831354
S11328800F920F920F924DB75EB70F920E941D15D3
S1132890EAE7F0E00E9464144F915F91EF91FF9199
S11328A0E595EE1FFF1F49F0FE57E0684427EE0F41
S11328B0441FFA95E1F74195550B0E9497140F9028
S11328C007FE0C948B140895DF93CF931F930F93FB
S11328D0FF92EF92DF927B018C01689406C0DA2E9E
S11328E0EF010E948013FE01E894A5912591359192
S11328F045915591A6F3EF010E94B411FE01970191
S1132900A801DA9469F7DF90EF90FF900F911F917F
S1132910CF91DF9108959B01AC0160E070E080E805
S11329209FE30C940E120C9417130C9451150E94EF
S11329304713D8F39923C9F3940F511DA3F391506E
S1132940504094F059F0882332F0660F771F881FA7
S113295091505040C1F79E3F51052CF7880F911DAF
S11329609695879597F908955F3FACF0983E9CF053
S1132970BB27869577956795B79508F4B1609395CD
S1132980C1F7BB0F58F711F460FFE8CF6F5F7F4FBB
S11329908F4F9F4FE3CF0C94621316F00C94511594
S11329A00C941D1368940C9417130E944713A8F3F6
S11329B09923C1F3AEF3DF93CF931F930F93FF9249
S11329C0C92FDD2788232AF02197660F771F881FD8
S11329D0DAF720E030E040E85FEB9FE3883920F04D
S11329E0803E38F021968F770E949D11E2EAF0E054
S11329F004C00E949D11EFECF0E00E9464148B016E
S1132A00BE01EC01FB2E6F5771097595771F880B7A
S1132A10990B0E94B81228E132E741E35FE30E9478
S1132A208013AF2D9801AE01FF900F911F91CF91AC
S1132A30DF910E94B4110C942E13FA01DC01AA0F49
S1132A40BB1F9B01AC01BF5728F42227332744271F
S1132A50507820C0B75190F4AB2F00244695379599
S1132A602795011CA395D2F3002071F0220F331F88
S1132A70441FB395DAF30ED00C949C1161307105A8
S1132A80A0E88A07B94630F49B01AC016627772792
S1132A9088279078309621F02083318342835383B2
S1132AA008959F3F31F0915020F48795779567956D
S1132AB0B795880F911D9695879597F90895DB0131
S1132AC08F939F930E94CA15BF91AF91A29F800DCF
S1132AD0911DA39F900DB29F900D1124089597FB13
S1132AE0072E16F4009407D077FD09D00E94DD1557
S1132AF007FC05D03EF4909581959F4F08957095FD
S1132B0061957F4F0895A1E21A2EAA1BBB1BFD01FC
S1132B100DC0AA1FBB1FEE1FFF1FA217B307E407B8
S1132B20F50720F0A21BB30BE40BF50B661F771F10
S1132B30881F991F1A9469F76095709580959095F0
S1132B409B01AC01BD01CF010895052E97FB1EF436
S1132B5000940E94BC1557FD07D00E94831507FC02
S1132B6003D04EF40C94BC155095409530952195A6
S1132B703F4F4F4F5F4F08959095809570956195A5
S1132B807F4F8F4F9F4F0895EE0FFF1F0590F491D5
S1132B90E02D09940E94F115A59F900DB49F900D0E
S1132BA0A49F800D911D11240895B7FF0C94CA159C
S1132BB00E94CA15821B930B0895AA1BBB1B51E1EB
S1132BC007C0AA1FBB1FA617B70710F0A61BB70B99
S1132BD0881F991F5A95A9F780959095BC01CD013E
S1132BE00895A29FB001B39FC001A39F700D811DE2
S1132BF01124911DB29F700D811D1124911D089502
S1132C00BB274A3031F4992322F4BDE29095819593
S1132C109F4F0C940C16BB27FB015527AA27880F3E
S1132C20991FAA1FA41710F0A41B83955051B9F73C
S1132C30A05DAA3308F0A95DA193009779F7B111BB
S1132C40B1931192CB010C943E18AEE0B0E0EBE2EC
S1132C50F6E10C94F6180D891E8986E08C831A839C
S1132C6009838FEF9FE79E838D83AE01475E5F4F9D
S1132C706F89788DCE0101960E944716EF81F88501
S1132C80E00FF11F10822E96E4E00C941219ABE0D1
S1132C90B0E0EDE4F6E10C94E8186C017B018A01E4
S1132CA0FC0117821682838181FFCCC1CE0101967B
S1132CB03C01F6019381F70193FD859193FF819186
S1132CC07F01882309F4BAC1853239F493FD8591D3
S1132CD093FF81917F01853229F4B60190E00E942F
S1132CE04E18E7CF912C212C312CFFE1F315D8F0AD
S1132CF08B3279F038F4803279F08332A1F4232DC9
S1132D0020611DC08D3261F0803369F4232D216070
S1132D1016C0832D8260382EE32DE4603E2E2AC037
S1132D20F32DF8601DC037FC2DC020ED280F2A308C
S1132D3040F08E32B9F436FC81C1232D2064322E4A
S1132D4019C036FE06C08AE0989E200D1124922EEA
S1132D5011C0EAE02E9E200D1124222EF32DF062E4
S1132D603F2E08C08C3621F4832D8068382E02C093
S1132D70883641F4F70193FD859193FF81917F019A
S1132D808111B3CF982F9F7D9554933028F40C5F15
S1132D901F4F9FE399830DC0833631F0833771F061
S1132DA0833509F059C021C0F801808189830E5F01
S1132DB01F4F88248394912C530113C02801F2E0FF
S1132DC04F0E511CF801A080B18036FE03C0692D5E
S1132DD070E002C06FEF7FEFC5010E9433184C0111
S1132DE08201F32DFF773F2E16C0280122E0420E08
S1132DF0511CF801A080B18036FE03C0692D70E03B
S1132E0002C06FEF7FEFC5010E9428184C01F32D1B
S1132E10F0683F2E820133FC1BC0822D90E088169F
S1132E209906B0F4B60180E290E00E944E182A940C
S1132E30F4CFF50137FC859137FE81915F01B6012E
S1132E4090E00E944E1821102A9421E0821A9108E1
S1132E508114910471F7E8C0843611F0893641F584
S1132E60F80137FE07C060817181828193810C5F14
S1132E701F4F08C060817181072E000C880B990BCD
S1132E800E5F1F4FF32DFF763F2E97FF09C09095DD
S1132E908095709561957F4F8F4F9F4FF0683F2EBF
S1132EA02AE030E0A3010E948A18882E861845C0C3
S1132EB0853731F4232D2F7EB22E2AE030E025C051
S1132EC0932D997FB92E8F36C1F018F4883579F097
S1132ED0B5C0803719F0883721F0B0C0E92FE06120
S1132EE0BE2EB4FE0DC0FB2DF460BF2E09C034FE0F
S1132EF00AC0292F2660B22E06C028E030E005C0A3
S1132F0020E130E002C020E132E0F801B7FE07C062
S1132F1060817181828193810C5F1F4F06C0608143
S1132F20718180E090E00E5F1F4FA3010E948A1818
S1132F30882E8618FB2DFF773F2E36FE0DC0232DDD
S1132F402E7FA22E891458F434FE0BC032FC09C023
S1132F50832D8E7EA82E05C0B82CA32C03C0B82CBC
S1132F6001C0B92CA4FE0FC0FE01E80DF11D808143
S1132F70803321F49A2D997EA92E09C0A2FE06C0A1
S1132F80B394B39404C08A2D867809F0B394A3FC57
S1132F9011C0A0FE06C0B21488F4280C922C9B1811
S1132FA00EC0B21460F4B60180E290E00E944E18A4
S1132FB0B394F7CFB21418F42B1802C0982C212C18
S1132FC0A4FE10C0B60180E390E00E944E18A2FE59
S1132FD017C0A1FC03C088E790E002C088E590E038
S1132FE0B6010CC08A2D867859F0A1FE02C08BE28E
S1132FF001C080E2A7FC8DE2B60190E00E944E1869
S1133000891438F4B60180E390E00E944E189A9433
S1133010F7CF8A94F301E80DF11D8081B60190E0A9
S11330200E944E188110F5CF222009F442CEB60139
S113303080E290E00E944E182A94F6CFF601868131
S1133040978102C08FEF9FEF2B96E2E10C94041955
S1133050FC010590615070400110D8F7809590955F
S11330608E0F9F1F0895FC01615070400190011064
S1133070D8F7809590958E0F9F1F0895DC01FC0171
S1133080672F71917723E1F7329704C07C916D9398
S113309070836291AE17BF07C8F308950F931F930F
S11330A0CF93DF93FB01238121FD03C08FEF9FEFBB
S11330B02CC022FF16C046815781248135814217D6
S11330C0530744F4A081B1819D012F5F3F4F3183A9
S11330D020838C93268137812F5F3F4F378326834C
S11330E014C08B01EC01FB010084F185E02D0995EE
S11330F0892BE1F6D80116968D919C91179701962C
S113310017969C938E931697CE01DF91CF911F91C2
S11331100F910895FA01AA27283051F1203181F145
S1133120E8946F936E7F6E5F7F4F8F4F9F4FAF4FCB
S1133130B1E03ED0B4E03CD0670F781F891F9A1FDE
S1133140A11D680F791F8A1F911DA11D6A0F711D92
S1133150811D911DA11D20D009F468943F912AE09E
S1133160269F11243019305D3193DEF6CF01089586
S1133170462F4770405D4193B3E00FD0C9F7F6CFB7
S1133180462F4F70405D4A3318F0495D31FD40527F
S1133190419302D0A9F7EACFB4E0A6959795879515
S11331A077956795BA95C9F70097610571050895F4
S11331B09B01AC010A2E06945795479537952795A0
S11331C0BA95C9F7620F731F841F951FA01D089538
S11331D02F923F924F925F926F927F928F929F9223
S11331E0AF92BF92CF92DF92EF92FF920F931F9311
S11331F0CF93DF93CDB7DEB7CA1BDB0B0FB6F894C2
S1133200DEBF0FBECDBF09942A88398848885F8401
S11332106E847D848C849B84AA84B984C884DF8072
S1133220EE80FD800C811B81AA81B981CE0FD11D56
S11332300FB6F894DEBF0FBECDBFED010895F8942C
S1053240FFCFBA
S113324200E1084E014269656E76656E69646F003D
S113325253697374656D6120436C696D612121004A
S113326241707265746520626F746F6E3A004163D7
S1133272657074617200436F6E74726F6C65733A39
S113328200497A717569657264613A2042746E20EC
S11332923100446572656368613A2042746E20337A
S11332A200546D702E4578743A004300546D702EAC
S11332B2496E743A0050726564696363696F6E00A3
S11332C248756D656461643A00250054656D703A11
S11332D200256C640050726573696F6E3A00506128
S11332E200416C74697475643A00736E6D004675BE
S11332F265727465004D65646961004C65766500AC
S113330244657370656A61646F004C6C75766961BB
S11333123A0050746F526F63696F3A005072656479
S10B3322696363696F6E3A00F0
S9030000FC
