S014000050726F796563746F546573742E737265631B
S11300000C9434000C9451000C9451000C94510045
S11300100C9451000C9451000C9451000C94510018
S11300200C9451000C9451000C9451000C94510008
S11300300C9451000C9451000C9451000C945100F8
S11300400C9451000C9451000C9451000C945100E8
S11300500C9451000C9451000C9451000C945100D8
S11300600C9451000C94510011241FBECFEFD8E022
S1130070DEBFCDBF11E0A0E0B1E0EEE9FCE002C0DC
S113008005900D92AE34B107D9F721E0AEE4B1E0AA
S113009001C01D92AA36B207E1F70E949D040C9498
S11300A04D060C940000CF93C82F0E9459040E945F
S11300B061048EE40E9467040E9461048C2F0E94F4
S11300C067040E9461040E945D04CF910895CF9358
S11300D0C0914E01C82B8C2F0E9453008C2F84603A
S11300E00E9453008AE08A95F1F700C08C2F8B7F21
S11300F00E9453008FE39FE10197F1F700C00000D5
S1130100CF910895CF93C82F10924F0110924E01B2
S1130110807F0E9467008C2F8295807F0E946700F9
S1130120CF910895CF93C82F81E090E090934F0131
S113013080934E018C2F807F0E9467008C2F8295C4
S1130140807F0E946700CF910895CF93DF93EC01E5
S11301508881882331F021960E949200899181112F
S1130160FBCFDF91CF91089580E00E9453002FEFE1
S113017080E792E0215080409040E1F700C0000009
S113018010924F0110924E0180E30E9467008FEDA0
S11301909EE20197F1F700C0000080E30E9467002F
S11301A080E30E94670080E20E94670088E20E9468
S11301B082008FED9EE20197F1F700C0000088E015
S11301C00E9482008FED9EE20197F1F700C00000CB
S11301D081E00E9482008FED9EE20197F1F700C05A
S11301E0000086E00E9482008FED9EE20197F1F705
S11301F000C000008CE00E9482008FED9EE2019717
S1130200F1F700C000000895CF93DF93D82F0E9428
S113021059040E9461048EEE0E9467040E946104E6
S11302208D2F0E9467040E9461040E9459040E9459
S113023061048FEE0E9467040E94610480E00E94C2
S11302406D040E9461040E947704C82F0E94610417
S11302500E945D040E9459040E9461048EEE0E9473
S113026067040E94610481E08D0F0E9467040E946C
S113027061040E9459040E9461048FEE0E94670485
S11302800E94610480E00E946D040E9461040E9447
S11302907704D82F0E9461040E945D048C2F90E0A3
S11302A0982F88278D0F911DDF91CF910895CF93BB
S11302B0DF93D82FC62F0E9459040E9461048EEE4A
S11302C00E9467040E9461048D2F0E9467040E94AB
S11302D061048C2F0E9467040E9461040E945D04E3
S11302E0DF91CF9108950F931F93CF93DF93D82F6E
S11302F00E9459040E9461048EEE0E9467040E94C9
S1130300610486EF0E9467040E9461040E945904FC
S11303100E9461048FEE0E9467040E94610480E0E1
S11303200E946D040E9461040E947704C82F0E94F9
S113033061040E9459040E9461048EEE0E946704C5
S11303400E94610487EF0E9467040E9461040E9476
S113035059040E9461048FEE0E9467040E946104A4
S113036080E00E946D040E9461040E947704082FBB
S11303700E9461040E9459040E9461048EEE0E944E
S113038067040E94610488EF0E9467040E9461046C
S11303900E9459040E9461048FEE0E9467040E9427
S11303A0610480E00E946D040E9461040E9477044D
S11303B0182F0E9461040E945D048C2F90E0A0E03D
S11303C0B0E0DC0199278827202F30E0322F222744
S11303D0820F931FA11DB11D810F911DA11DB11D80
S11303E028E030E02D1B3109BC01CD0104C09595F6
S11303F08795779567952A95D2F7DF91CF911F91CD
S11304000F9108958AEA0E94040190935301809306
S113041052018FEC97E00197F1F700C000008CEADD
S11304200E94040190935D0180935C018FEC97E03E
S11304300197F1F700C000008EEA0E940401909336
S11304405F0180935E018FEC97E00197F1F700C0A4
S1130450000080EB0E94040190935901809358019D
S11304608FEC97E00197F1F700C0000082EB0E9447
S1130470040190935701809356018FEC97E0019704
S1130480F1F700C0000084EB0E9404019093550131
S1130490809354018FEC97E00197F1F700C00000BE
S11304A086EB0E94040190936301809362018FECB8
S11304B097E00197F1F700C0000088EB0E94040167
S11304C090936101809360018FEC97E00197F1F7BD
S11304D000C000008AEB0E94040190935B018093AA
S11304E05A018FEC97E00197F1F700C000008CEB04
S11304F00E94040190936501809364018FEC97E05E
S11305000197F1F700C000008EEB0E940401909364
S11305105101809350018FEC97E00197F1F700C0EF
S1130520000008956EE284EF0E94570187E197E48A
S11305300197F1F700C0000086EF0E940401BC019E
S113054080E090E008954F925F926F927F928F9235
S11305509F92AF92BF92CF92DF92EF92FF920F934E
S11305601F93CF93C82F0E9492026B017C016C2FC2
S11305706295660F660F607C6C5C84EF0E94570185
S1130580C11107C08FE496E40197F1F700C00000A1
S11305901DC0C13039F48FE295E70197F1F700C02F
S11305A0000014C0C23039F48FEE92ED0197F1F7D8
S11305B000C000000BC0C33049F49FEB2EE381E080
S11305C0915020408040E1F700C000008C2F0E9431
S11305D073014B015C018091540190915501A70175
S11305E09601281B390B41095109A0915601B0917C
S11305F057010E94F6052B013C01992334F42FEF97
S1130600420E2FE7521E611C711C032E3FE07594AD
S11306106794579447943A95D1F7302D80916401AB
S113062060E070E0782F770F770F770F072E000CBC
S1130630880B990B20915001309151018901330F9E
S1130640220B330BA9019801240D351D461D571D9E
S11306500E94D705420E531E641E751E80EA481A76
S11306608FE0580A61087108A3019201C301B20125
S11306700E94A5058B019C01992324F40150104F7D
S11306802F4F3F4FA9019801012E1CE05595479526
S1130690379527951A95D1F7102DA0916001B09147
S11306A061010E9401066B017C01992334F42FEF50
S11306B0C20E27E0D21EE11CF11C0B2EBBE0F59408
S11306C0E794D794C794BA95D1F7B02DA0915C0163
S11306D0B0915D01A30192010E9401068B019C016E
S11306E0992324F40150184F2F4F3F4FD901C801CB
S11306F0072E7BE0B595A795979587957A95D1F7C1
S1130700702DC80ED91EEA1EFB1EA0915801B0918F
S11307105901A701960130584F4F5F4F0E94F605CB
S11307202B013C01032E3FE0769467945794479441
S11307303A95D1F7302D8091520190915301880F51
S1130740991F880F991F092E000CAA0BBB0BC80E0A
S1130750D91EEA1EFB1E0C2E04C0CC0CDD1CEE1CA4
S1130760FF1C0A94D2F782E0C80ED11CE11CF11CD4
S1130770D701C601FF201CF40396A11DB11DB59538
S1130780A79597958795B595A79597958795A5016D
S11307909401281B390B4A0B5B0B80E593ECA0E01A
S11307A0B0E0BC01CD0104C0959587957795679518
S11307B0CA95D2F70E94A50599235CF0660F771FAE
S11307C0881F991FA30192010E94B50569017A014E
S11307D00AC0A30192010E94B50569017A01CC0CFB
S11307E0DD1CEE1CFF1CD701C601FF2024F4815040
S11307F09F4FAF4FBF4F692F7A2F8B2F992787FDBC
S11308009A959B01AC010E94A5059B01AC01AEED3C
S1130810BBE00E94F6054B015C01A3E4B3EEA70123
S113082096010E9404068B019C01992324F4015033
S113083011092F4F3F4FA901772757FD7095672F57
S1130840D501C401BB201CF40197AF4FBF4FCD01AC
S1130850BB2797FDB095AB2F840F951FA61FB71F1D
S11308608153914FAF4FBF4FAC01BD0122F4415FA3
S11308705F4F6F4F7F4F689413F875956795579541
S113088047951694D1F7CB01BA016C0D7D1D8E1DD1
S11308909F1DCF911F910F91FF90EF90DF90CF900C
S11308A0BF90AF909F908F907F906F905F904F908C
S11308B0089584EA8093BC00089584E98093BC0081
S11308C00895ECEBF0E080818823ECF708958093A1
S11308D0BB0084E88093BC000895882321F084EC55
S11308E08093BC00089584E88093BC0008958091AF
S11308F0BB000895ECE7F0E0808180648083EAE740
S1130900F0E0808187608083808180688083AEE7A7
S1130910B0E08C9181608C938081806480830895A1
S1130920EAE7F0E0808180648083808186FDFDCFEA
S113093080917800909179000895CF93DF93CDB79B
S1130940DEB72F970FB6F894DEBF0FBECDBF8CE095
S11309508093B800E9EBF0E080818C7F80838FEF97
S11309608093BB0084E08093BC000E94B4000E948A
S11309707A0485E091E00E94A50080EC0E94820048
S11309808BE091E00E94A50085E0E0E0F1E0DE016B
S1130990119601900D928A95E1F749815A816B81F4
S11309A07C818D810E9426050E94020280E00E94C3
S11309B0A30281E00E94A30282E00E94A30283E0DA
S11309C00E94A3020E9490044AE0BE016A5F7F4F26
S11309D00E9418060E9490048C3291404CF4CE017F
S11309E006960E94960586E191E00E94960524C031
S11309F00E949004843F91404CF4CE0106960E94DC
S1130A00960584E291E00E94960516C00E94900427
S1130A10803293404CF4CE0106960E94960585E3FD
S1130A2091E00E94960508C0CE0106960E949605A4
S1130A3082E491E00E9496058FEF99E628E18150C7
S1130A4090402040E1F700C00000BCCF1F93CF933B
S1130A50DF9300D000D01F92CDB7DEB749835A830D
S1130A60162F6B837C838D8329813A8140E050E08B
S1130A7060E472E48FE090E00E94B50521503109F2
S1130A8030936901209368013093C5008091680117
S1130A908093C40088E18093C100193028F0612F4D
S1130AA070E06250710904C0612F70E065507109F3
S1130AB08091660190916701682B792B709367018F
S1130AC060936601E2ECF0E08081660F771F682B8B
S1130AD0608320819D81892F90E00197880F991F61
S1130AE0880F991F880F991F822B80838C818534EE
S1130AF031F08F3449F480E38093C20005C0E2EC06
S1130B00F0E080818062808380E00F900F900F90EE
S1130B100F900F90DF91CF911F910895E0ECF0E0DA
S1130B20908195FFFDCF8093C6000895CF93DF9306
S1130B30EC018881882331F021960E948E058991E9
S1130B408111FBCFDF91CF910895DB018F939F93A8
S1130B500E94F605BF91AF91A29F800D911DA39FA6
S1130B60900DB29F900D11240895A1E21A2EAA1B94
S1130B70BB1BFD010DC0AA1FBB1FEE1FFF1FA21749
S1130B80B307E407F50720F0A21BB30BE40BF50B46
S1130B90661F771F881F991F1A9469F760957095CF
S1130BA0809590959B01AC01BD01CF010895052E60
S1130BB097FB1EF400940E94EE0557FD07D00E9497
S1130BC0B50507FC03D04EF40C94EE055095409502
S1130BD0309521953F4F4F4F5F4F089590958095E5
S1130BE0709561957F4F8F4F9F4F08950E9409061E
S1130BF0A59F900DB49F900DA49F800D911D11246D
S1130C000895B7FF0C94F6050E94F605821B930B1A
S1130C100895A29FB001B39FC001A39F700D811DD1
S1130C201124911DB29F700D811D1124911D0895F1
S1130C30BB274A3031F4992322F4BDE29095819583
S1130C409F4F0C942406BB27FB015527AA27880F26
S1130C50991FAA1FA41710F0A41B83955051B9F72C
S1130C60A05DAA3308F0A95DA193009779F7B111AB
S1130C70B1931192CB010C943D06DC01FC01672F6A
S1130C8071917723E1F7329704C07C916D9370835F
S1110C906291AE17BF07C8F30895F894FFCF22
S1130C9E00E1084E0148656C6C6F004D616461663D
S1130CAE61636B61730020486561767920726169B6
S1130CBE6E0D0A00204D6F64657261746520726159
S1130CCE696E0D0A00204665772064726F70730D8D
S1110CDE0A00204E6F207261696E0D0A00003C
S9030000FC
