:100000000C9480000C949D000C949D000C9471083D
:100010000C949D000C949D000C949D000C949D00EC
:100020000C949D000C949D000C949D000C948311E5
:100030000C945F180C949D000C949D000C949D00F2
:100040000C949D000C949D000C949D000C949D00BC
:100050000C949D000C949D000C949D000C949D00AC
:100060000C949D000C949D00BB09E5094B0A340BD0
:100070000A0CC10C840D260ED20E840F801007636B
:100080004236B79BD8A71A39685618AEBAAB558C0A
:100090001D3CB7CC5763BD6DEDFD753EF617723153
:1000A000BF000000803F08000000BE922449123EBD
:1000B000ABAAAA2ABECDCCCC4C3E00000080BEAB81
:1000C000AAAAAA3E00000000BF000000803F000076
:1000D000000000084178D3BB4387D1133D190E3C83
:1000E000C3BD4282AD2B3E68EC8276BED98FE1A9BA
:1000F0003E4C80EFFFBE01C4FF7F3F0000000000C8
:1001000011241FBECFEFD8E0DEBFCDBF12E0A0E0CC
:10011000B1E0E8E5F2E402C005900D92AC30B10721
:10012000D9F722E0ACE0B2E001C01D92A937B207D6
:10013000E1F70E943B090C942A210C940000CF9314
:10014000C82F0E940B070E9413078EE40E94190714
:100150000E9413078C2F0E9419070E9413070E9408
:100160000F07CF910895CF93C0911402C82B8C2F05
:100170000E949F008C2F84600E949F008AE08A95D5
:10018000F1F700C08C2F8B7F0E949F008FE39FE1CF
:100190000197F1F700C00000CF910895CF93C82FC9
:1001A0001092150210921402807F0E94B3008C2FCF
:1001B0008295807F0E94B300CF910895CF93C82F7E
:1001C00081E090E090931502809314028C2F807F41
:1001D0000E94B3008C2F8295807F0E94B300CF9144
:1001E0000895CF93DF93EC018881882331F0219625
:1001F0000E94DE0089918111FBCFDF91CF9108959C
:1002000080E00E949F002FEF80E792E02150804025
:100210009040E1F700C00000109215021092140205
:1002200080E30E94B3008FED9EE20197F1F700C0DA
:10023000000080E30E94B30080E30E94B30080E2EC
:100240000E94B30088E20E94CE008FED9EE20197EB
:10025000F1F700C0000088E00E94CE008FED9EE222
:100260000197F1F700C0000081E00E94CE008FED01
:100270009EE20197F1F700C0000086E00E94CE00E8
:100280008FED9EE20197F1F700C000008CE00E9424
:10029000CE008FED9EE20197F1F700C000000895B7
:1002A0009B01215031091216130684F4FC01E60F5C
:1002B000F71FDC0180E090E04C9152915D93408308
:1002C00001962150310982179307B4F30895CF9214
:1002D000DF92EF92FF920F931F93CF93DF936B0107
:1002E0008A01009799F0EB01E0E0F0E00F2EFAE0D0
:1002F000EF2EF12CF02D3196B7010E947A1D805D12
:100300008993862F972F0097B1F702C0E0E0F0E0C5
:10031000E017F1075CF4EC0DFD1D9601200F311F75
:1003200080E38193E217F307E1F701C08F01B80181
:10033000C6010E945001E601C00FD11F1882C801FA
:10034000DF91CF911F910F91FF90EF90DF90CF90B1
:1003500008952F923F924F925F926F927F928F9269
:100360009F92AF92BF92CF92DF92EF92FF920F9344
:100370001F93CF93DF934B015C018A01E9010E9437
:100380008B1A6B017C0140E050E0B801C6010E946D
:1003900067011C01209799F1F801E80FF91F8EE21F
:1003A0008083BE010D2E000C880B990B0E94C31A8E
:1003B0009B01AC0160E070E080E291E40E94E51BEB
:1003C0002B013C01B601DD0C880B990B0E94C31A6E
:1003D0009B01AC01C501B4010E94A7192FEF221A9D
:1003E000320A020D131DA30192010E94781B0E9484
:1003F0008B1ADC01CB01AE01B8010E946701DF91CD
:10040000CF911F910F91FF90EF90DF90CF90BF9011
:10041000AF909F908F907F906F905F904F903F90A4
:100420002F900895CF93DF93D82F0E940B070E943F
:1004300013078EEE0E9419070E9413078D2F0E944A
:1004400019070E9413070E940B070E9413078FEEE3
:100450000E9419070E94130780E00E941F070E9454
:1004600013070E942907C82F0E9413070E940F0735
:100470000E940B070E9413078EEE0E9419070E942C
:10048000130781E08D0F0E9419070E9413070E9435
:100490000B070E9413078FEE0E9419070E94130793
:1004A00080E00E941F070E9413070E942907D82F8F
:1004B0000E9413070E940F078C2F90E0982F882727
:1004C0008D0F911DDF91CF910895CF93DF93D82F9A
:1004D000C62F0E940B070E9413078EEE0E94190779
:1004E0000E9413078D2F0E9419070E9413078C2F5B
:1004F0000E9419070E9413070E940F07DF91CF91F6
:1005000008950F931F93CF93DF93D82F0E940B076B
:100510000E9413078EEE0E9419070E94130786EFB0
:100520000E9419070E9413070E940B070E941307DD
:100530008FEE0E9419070E94130780E00E941F0798
:100540000E9413070E942907C82F0E9413070E94C8
:100550000B070E9413078EEE0E9419070E941307D3
:1005600087EF0E9419070E9413070E940B070E9441
:1005700013078FEE0E9419070E94130780E00E9464
:100580001F070E9413070E942907082F0E941307C4
:100590000E940B070E9413078EEE0E9419070E940B
:1005A000130788EF0E9419070E9413070E940B0788
:1005B0000E9413078FEE0E9419070E94130780E024
:1005C0000E941F070E9413070E942907182F0E94EC
:1005D00013070E940F078C2F90E0A0E0B0E0DC0131
:1005E00099278827202F30E0322F2227820F931F50
:1005F000A11DB11D810F911DA11DB11D28E030E08D
:100600002D1B3109BC01CD0104C0959587957795C7
:1006100067952A95D2F7DF91CF911F910F91089599
:100620008AEA0E94120290931902809318028FECBA
:1006300097E00197F1F700C000008CEA0E941202D7
:1006400090932302809322028FEC97E00197F1F7B9
:1006500000C000008EEA0E9412029093250280934F
:1006600024028FEC97E00197F1F700C0000080EBC7
:100670000E94120290931F0280931E028FEC97E05B
:100680000197F1F700C0000082EB0E9412029093E4
:100690001D0280931C028FEC97E00197F1F700C0D8
:1006A000000084EB0E94120290931B0280931A02B6
:1006B0008FEC97E00197F1F700C0000086EB0E94F5
:1006C000120290932902809328028FEC97E0019701
:1006D000F1F700C0000088EB0E94120290932702FD
:1006E000809326028FEC97E00197F1F700C000009D
:1006F0008AEB0E94120290932102809320028FECD9
:1007000097E00197F1F700C000008CEB0E94120205
:1007100090932B0280932A028FEC97E00197F1F7D8
:1007200000C000008EEB0E9412029093170280938B
:1007300016028FEC97E00197F1F700C000000895D2
:100740006EE284EF0E94650287E197E40197F1F77A
:1007500000C0000086EF0E941202BC0180E090E021
:1007600008954F925F926F927F928F929F92AF9275
:10077000BF92CF92DF92EF92FF920F931F93CF938E
:10078000C82F0E94A0036B017C016C2F6295660F3D
:10079000660F607C6C5C84EF0E946502C11107C02B
:1007A0008FE496E40197F1F700C000001DC0C1304E
:1007B00039F48FE295E70197F1F700C0000014C00B
:1007C000C23039F48FEE92ED0197F1F700C00000CE
:1007D0000BC0C33049F49FEB2EE381E091502040E1
:1007E0008040E1F700C000008C2F0E9481024B0185
:1007F0005C0180911A0290911B02A7019601281BAF
:10080000390B41095109A0911C02B0911D020E94AF
:10081000D51D2B013C01992334F42FEF420E2FE715
:10082000521E611C711C032E3FE07594679457940F
:1008300047943A95D1F7302D80912A0260E070E01C
:10084000782F770F770F770F072E000C880B990BF7
:1008500020911602309117028901330F220B330BBE
:10086000A9019801240D351D461D571D0E94B01D7C
:10087000420E531E641E751E80EA481A8FE0580A05
:1008800061087108A3019201C301B2010E946A1DAF
:100890008B019C01992324F40150104F2F4F3F4F9F
:1008A000A9019801012E1CE055954795379527958C
:1008B0001A95D1F7102DA0912602B09127020E941F
:1008C000E01D6B017C01992334F42FEFC20E27E069
:1008D000D21EE11CF11C0B2EBBE0F594E794D794DB
:1008E000C794BA95D1F7B02DA0912202B0912302FE
:1008F000A30192010E94E01D8B019C01992324F425
:100900000150184F2F4F3F4FD901C801072E7BE0F0
:10091000B595A795979587957A95D1F7702DC80EBF
:10092000D91EEA1EFB1EA0911E02B0911F02A70154
:10093000960130584F4F5F4F0E94D51D2B013C014F
:10094000032E3FE076946794579447943A95D1F7F5
:10095000302D8091180290911902880F991F880FED
:10096000991F092E000CAA0BBB0BC80ED91EEA1E3C
:10097000FB1E0C2E04C0CC0CDD1CEE1CFF1C0A94CC
:10098000D2F782E0C80ED11CE11CF11CD701C601D0
:10099000FF201CF40396A11DB11DB595A795979551
:1009A0008795B595A79597958795A5019401281BDF
:1009B000390B4A0B5B0B80E593ECA0E0B0E0BC0187
:1009C000CD0104C09595879577956795CA95D2F71F
:1009D0000E946A1D99235CF0660F771F881F991F7C
:1009E000A30192010E948E1D69017A010AC0A30130
:1009F00092010E948E1D69017A01CC0CDD1CEE1C57
:100A0000FF1CD701C601FF2024F481509F4FAF4F38
:100A1000BF4F692F7A2F8B2F992787FD9A959B01BE
:100A2000AC010E946A1D9B01AC01AEEDBBE00E94CF
:100A3000D51D4B015C01A3E4B3EEA70196010E9412
:100A4000E31D8B019C01992324F4015011092F4FC0
:100A50003F4FA901772757FD7095672FD501C40136
:100A6000BB201CF40197AF4FBF4FCD01BB2797FDB3
:100A7000B095AB2F840F951FA61FB71F8153914FC1
:100A8000AF4FBF4FAC01BD0122F4415F5F4F6F4FCD
:100A90007F4F689413F87595679557954795169409
:100AA000D1F7CB01BA016C0D7D1D8E1D9F1DCF911D
:100AB0001F910F91FF90EF90DF90CF90BF90AF907C
:100AC0009F908F907F906F905F904F9008950E94BD
:100AD000C31A20E033E743ED57E40E94191A21E0DE
:100AE0003EED42E45EE30E94E51B9B01AC0160E049
:100AF00070E080E89FE30E94A71920E03AE24DE20F
:100B000057E40E94781B08952FEF87EA91E6215061
:100B100080409040E1F700C0000010922C02089540
:100B2000CF92DF92EF92FF92CF93DF9300D000D06D
:100B30001F92CDB7DEB7682F792FFE01319685E081
:100B4000DF011D928A95E9F710922C024198399A9B
:100B5000BFEF29EF80E0B15020408040E1F700C0B6
:100B60000000419A39982FE10AC09AE09A95F1F76E
:100B700000C0215021F484E080932C028FC0319971
:100B8000F4CF80912C02882359F088C0AAE0AA955E
:100B9000F1F700C0215029F484E080932C020EC0AC
:100BA00023E3319BF3CF0AC0BAE0BA95F1F700C056
:100BB000215029F484E080932C0270C023E3319902
:100BC000F3CF80912C02882309F443C067C08AE0E8
:100BD0008A95F1F700C0215031F450932C0245E082
:100BE00034C0422F24E2319BF2CF20912C022111FC
:100BF00029C09AEB9A95F1F700C0319B1EC0E1E045
:100C0000F0E0EC0FFD1FE40FF11D2081D701C601BC
:100C1000032E04C0880F991FAA1FBB1F0A94D2F786
:100C2000822B80830AC0AAE0AA95F1F700C0215068
:100C300029F450932C02242F06C023E33199F3CFDB
:100C4000242F01C0242F315062F64F5F453038F019
:100C500008C040E0C12CD12C7601C39454E037E0A9
:100C6000C1CF80912C02811119C099818A81980F7E
:100C70008B81980F8C81890F9D81891721F083E0EA
:100C800080932C020BC0DE011196E62FF72FCE01C8
:100C900005962D912193A817B907D9F70F900F90BA
:100CA0000F900F900F90DF91CF91FF90EF90DF901A
:100CB000CF9008958F929F92AF92BF92CF92DF9282
:100CC000EF92FF920F931F93CF93DF9300D000D04A
:100CD000CDB7DEB78C017B0119821A821B821C8280
:100CE000CE0101960E94900580912C02811173C063
:100CF0006C818B81882384F48F7770E0782B072EAA
:100D0000000C880B990B0E94C31A20E030E040E2EF
:100D100051EC0E94191A0EC070E0782B072E000CBF
:100D2000880B990B0E94C31A20E030E040E251E4A6
:100D30000E94191AF8016083718382839383698109
:100D400070E0762F66278A81682B072E000C880BAF
:100D5000990B0E94C31A20E030E040E251E40E9467
:100D6000191A4B015C01F7016083718382839383BD
:100D7000F801C080D180E280F38020E030E040E2E2
:100D800052ECC701B6010E94141A882354F020E0E7
:100D900030E040EA52E4C701B6010E94731B181606
:100DA00024F482E080932C0216C020E030E0A901F8
:100DB000C501B4010E94141A882354F020E030E0E9
:100DC00048EC52E4C501B4010E94731B18161CF4D0
:100DD00081E080932C020F900F900F900F90DF9185
:100DE000CF911F910F91FF90EF90DF90CF90BF9028
:100DF000AF909F908F9008958CE08093B800E9EBBE
:100E0000F0E080818C7F80838FEF8093BB0084E053
:100E10008093BC00089584EA8093BC00089584E91F
:100E20008093BC000895ECEBF0E080818823ECF720
:100E300008958093BB0084E88093BC0008958823C4
:100E400021F084EC8093BC00089584E88093BC007A
:100E500008958091BB000895CF93DF93EC010E9429
:100E60000B070E94130780ED0E9419070E941307C9
:100E700080E00E9419070E9413070E940F070E943A
:100E80000B070E94130781ED0E9419070E941307A8
:100E900081E00E941F070E9413070E942907888390
:100EA00081E00E941F070E9413070E94290789837F
:100EB00081E00E941F070E9413070E9429078A836E
:100EC00081E00E941F070E9413070E9429078B835D
:100ED00081E00E941F070E9413070E9429078C834C
:100EE00081E00E941F070E9413070E9429078D833B
:100EF00080E00E941F070E9413070E9429078E832B
:100F00000E9413070E940F07DF91CF910895ECE72D
:100F1000F0E0808180648083EEE7F0E08081816092
:100F20008083EAE7F0E08081876880838081806445
:100F300080830895EAE7F0E0808180648083808187
:100F400086FDFDCF8091780090917900089584B15D
:100F5000887F84B985B1876085B9EBE6F0E0808150
:100F600087608083E8E6F0E0808181608083089577
:100F70008F929F92AF92BF92CF92DF92EF92FF92A9
:100F800020E030E048EC52E460915302709154024A
:100F900080915502909156020E94191A20E030E08B
:100FA00040E05EE30E94E51B4B015C01C0904E02F5
:100FB000D0904F02E0905002F090510226E636E6C3
:100FC00046E65FE3C701B6010E94781B20E030E0EF
:100FD00040EE52E40E94A819A50194010E94781BDA
:100FE0004B015C012DEC3CEC4CEC5DE3C701B60120
:100FF0000E94781B9B01AC01C501B4010E94A81995
:1010000020E030E04CED52E40E94A719FF90EF90F1
:10101000DF90CF90BF90AF909F908F9008950097F2
:10102000F1F4EBE6F0E080818E7F80832FEF89EF93
:1010300090E0215080409040E1F700C000001899F6
:1010400006C080818160808381E090E00895EBE6B6
:10105000F0E080818160808380E090E008958130BD
:101060009105F1F4EBE6F0E080818D7F80832FEF36
:1010700089EF90E0215080409040E1F700C00000EF
:10108000199906C080818260808381E090E0089594
:10109000EBE6F0E080818260808380E090E008955C
:1010A0000297F1F4EBE6F0E080818B7F80832FEFF5
:1010B00089EF90E0215080409040E1F700C00000AF
:1010C0001A9906C080818460808381E090E0089551
:1010D000EBE6F0E080818460808380E090E008951A
:1010E00008951F920F920FB60F9211242F933F93E2
:1010F0004F935F936F937F938F939F93AF93BF9320
:10110000EF93FF93189915C080E090E00E940F08BC
:10111000892B41F081E08093520210926C02109270
:101120006D0234C01092520210926C0210926D0245
:101130002DC0199915C081E090E00E940F08892BFD
:1011400041F01092520210926C0281E080936D0285
:101150001DC01092520210926C0210926D0216C0C5
:101160001A9914C082E090E00E940F08892B41F088
:101170001092520281E080936C0210926D0206C0C0
:101180001092520210926C0210926D02FF91EF9138
:10119000BF91AF919F918F917F916F915F914F918F
:1011A0003F912F910F900FBE0F901F901895E1E87F
:1011B000F0E080818C60808381E19AE790938B00DE
:1011C00080938A0083E294EF909389008093880053
:1011D000EFE6F0E08081866080830895CF93DF930F
:1011E0000E940B070E94130780E90E9419070E94C2
:1011F000130780E00E9419070E9413070E940B0743
:101200000E94130781E90E9419070E94130781E0D9
:101210000E941F070E9413070E942907D82F0E94CF
:10122000130780E00E941F070E9413070E942907EE
:10123000C82F0E9413070E940F071092BC002C2F8A
:1012400030E03D2B35952795359527953595279594
:101250003595279533FD386FC90199230CF40F9606
:101260009595879595958795959587959595879566
:10127000DF91CF910895CF93DF93CDB7DEB7C454FC
:10128000D1090FB6F894DEBF0FBECDBF0E94A707ED
:101290000E94FC060E9400010E9487070E94100322
:1012A0000E94840585E0E8E0F1E0DE01A05CBF4F2C
:1012B00001900D928A95E1F721964FAD21972296E4
:1012C0005FAD229723966FAD239724967FAD249729
:1012D00025968FAD25970E94371985E692E00E94EA
:1012E0002C0778948DE091E00E94F10080EC0E9440
:1012F000CE0088E191E00E94F1002FEF8BE792E9A8
:10130000215080409040E1F700C0000081E00E9441
:10131000CE0088E291E00E94F10080EC0E94CE00B5
:1013200086E391E00E94F1000E94D70810E00F2EA2
:10133000F8E8EF2EF12CF02D0F2EF3E2CF2EF4EF84
:10134000DF2EF02D02E00F2EF9E07F2EF02D0F2E74
:10135000FCE98F2EF1E09F2EF02D5E01EDE0AE0E48
:10136000B11C812F90E0FC018B309105E0F7EC5C23
:10137000FF4F0C94CF1D80915202882391F381E09E
:101380000E94CE008EE391E00E94F100FFEF27EA79
:1013900081E6F15020408040E1F700C0000081E08C
:1013A0000E94CE0089E491E00E94F10080EC0E944E
:1013B000CE008AE591E00E94F10010925202109254
:1013C0006D0210926C0211E0CCCF80915202882302
:1013D00041F2F7011182108263E572E08EE492E03F
:1013E0000E945A060E94EE089093320280933102C6
:1013F00060914E0270914F02809150029091510283
:1014000060935702709358028093590290935A0246
:1014100021E030E0AE014F5F5F4F0E94A9014AE03A
:10142000BE01665D7F4F80913102909132020E9431
:101430000B1E81E00E94CE0089E691E00E94F1003F
:10144000CE0101960E94F1008FED0E94DE0082E73E
:1014500091E00E94F10080EC0E94CE0084E791E0D0
:101460000E94F100CE018A960E94F1008FED0E9449
:10147000DE0082E791E00E94F100F701D182C08294
:1014800081E0809313021092520210926D0210922A
:101490006C02102F66CF80916D02882309F453C02F
:1014A000F7011182108263E572E08EE492E00E94FF
:1014B0005A06609133027091340280913502909106
:1014C000360221E030E0AE01495F5F4F0E94A90182
:1014D00060910001709101018091020190910301DE
:1014E00021E030E0AE01465C5F4F0E94A90181E03F
:1014F0000E94CE008DE791E00E94F100CE01079698
:101500000E94F10084E891E00E94F10080EC0E94CA
:10151000CE0086E891E00E94F100CE01CA960E94BA
:10152000F10084E891E00E94F100F701D182C082CD
:1015300081E0809313021092520210926D02109279
:101540006C021AE00ECF80916C02882309F43FC030
:1015500010921302F7011182108263E572E08EE4AB
:1015600092E00E945A066091530270915402809159
:1015700055029091560260935C0270935D028093D5
:101580005E0290935F0221E030E0AE01495F5F4F61
:101590000E94A90181E00E94CE008DE891E00E94A6
:1015A000F100CE0107960E94F10084E891E00E94CC
:1015B000F100F701D182C08281E080931102109284
:1015C000520210926D0210926C0213E0CACE80910A
:1015D0000C02882309F4C5CE60914E0270914F022F
:1015E000809150029091510260935702709358027B
:1015F0008093590290935A0221E030E0AE014F5F90
:101600005F4F0E94A90181E00E94CE0086E991E02F
:101610000E94F100CE0101960E94F1008FED0E9420
:10162000DE0082E791E00E94F1004AE0BE01665DC3
:101630007F4F80913102909132020E940B1E80EC0C
:101640000E94CE0084E791E00E94F100CE018A96CC
:101650000E94F1008FED0E94DE0082E791E00E947F
:10166000F10010920C027DCE80916D02882309F466
:1016700064C010921102F7011182108263E572E0DA
:101680008EE492E00E945A060E94EE089093320285
:101690008093310260914E0270914F02809150020E
:1016A00090915102609357027093580280935902AF
:1016B00090935A0221E030E0AE014F5F5F4F0E94ED
:1016C000A9014AE0BE01665D7F4F80913102909191
:1016D00032020E940B1E81E00E94CE0089E691E05A
:1016E0000E94F100CE0101960E94F1008FED0E9450
:1016F000DE0082E791E00E94F10080EC0E94CE00C3
:1017000084E791E00E94F100CE018A960E94F100E8
:101710008FED0E94DE0082E791E00E94F100F70168
:10172000D182C08281E08093130210925202109203
:101730006D0210926C02102F14CE80916C028823DF
:10174000D9F110921102F7011182108281E00E94FA
:10175000B103609370027093710280937202909350
:1017600073029F938F937F936F939F928F92BF92F9
:10177000AF920E94301E81E00E94CE0080EA91E08C
:101780000E94F100C5010E94F10089EA91E00E94E7
:10179000F100F701D182C08281E0809312021092A1
:1017A000520210926D0210926C020FB6F894DEBFD6
:1017B0000FBECDBF14E0D5CD80910C02882309F473
:1017C000D0CD609153027091540280915502909156
:1017D000560260935C0270935D0280935E02909368
:1017E0005F0221E030E0AE01495F5F4F0E94A90136
:1017F00081E00E94CE008DE891E00E94F100CE01D0
:1018000007960E94F10084E891E00E94F100109296
:101810000C02A7CD80916D02882309F43FC010927D
:101820001202F7011182108263E572E08EE492E009
:101830000E945A06609153027091540280915502A1
:101840009091560260935C0270935D0280935E02F9
:1018500090935F0221E030E0AE01495F5F4F0E944C
:10186000A90181E00E94CE008DE891E00E94F10084
:10187000CE0107960E94F10084E891E00E94F100F9
:10188000F701D182C08281E080931102109252024E
:1018900010926D0210926C0213E063CD80916C0285
:1018A000882309F441C010921202F70111821082BC
:1018B00081E00E94B1036093700270937102809383
:1018C0007202909373020E94670560934A027093BC
:1018D0004B0280934C0290934D0221E030E0AE0128
:1018E0004B5E5F4F0E94A90181E00E94CE008CEA0E
:1018F00091E00E94F100CE0145960E94F10080EC3B
:101900000E94CE0085EB91E00E94F100F701D182A8
:10191000C08281E0809310021092520210926D02F8
:1019200010926C0215E01DCD80910C02882309F401
:1019300018CD809173028F93809172028F93809162
:1019400071028F93809170028F939F928F92BF92BA
:10195000AF920E94301E81E00E94CE0080EA91E0AA
:101960000E94F100C5010E94F10089EA91E00E9405
:10197000F10010920C020FB6F894DEBF0FBECDBF7F
:10198000F0CC80916D028823D9F110921002F701FA
:101990001182108281E00E94B10360937002709303
:1019A000710280937202909373029F938F937F933F
:1019B0006F939F928F92BF92AF920E94301E81E0F0
:1019C0000E94CE0080EA91E00E94F100C5010E94D1
:1019D000F10089EA91E00E94F100F701D182C08212
:1019E00081E0809312021092520210926D021092C6
:1019F0006C020FB6F894DEBF0FBECDBF14E0B1CCC1
:101A000080916C02882309F456C010921002F701ED
:101A1000118210820E949A079093390280933802B3
:101A20008C32F1E09F0754F487E0E9EBF1E0AAE3A0
:101A3000B2E001900D928A95E1F724C0843F21E045
:101A4000920754F486E0E0ECF1E0AAE3B2E0019002
:101A50000D928A95E1F716C08032934054F485E0E8
:101A6000E6ECF1E0AAE3B2E001900D928A95E1F78D
:101A700009C08AE0EBECF1E0AAE3B2E001900D923C
:101A80008A95E1F781E00E94CE0085ED91E00E9409
:101A9000F1008AE392E00E94F100F701D182C08256
:101AA00081E080930F021092520210926D02109208
:101AB0006C0216E056CC80910C02882309F451CCBC
:101AC00060914A0270914B0280914C0290914D02BC
:101AD00021E030E0AE014B5E5F4F0E94A90181E042
:101AE0000E94CE008CEA91E00E94F100CE01459662
:101AF0000E94F10080EC0E94CE0085EB91E00E94F4
:101B0000F10010920C022DCC80916D02882309F413
:101B100041C010920F02F7011182108281E00E94F1
:101B2000B10360937002709371028093720290937C
:101B300073020E94670560934A0270934B02809380
:101B40004C0290934D0221E030E0AE014B5E5F4FBE
:101B50000E94A90181E00E94CE008CEA91E00E94DF
:101B6000F100CE0145960E94F10080EC0E94CE006B
:101B700085EB91E00E94F100F701D182C08281E003
:101B8000809310021092520210926D0210926C0219
:101B900015E0E7CB80916C02882309F444C01092D1
:101BA0000F02F7011182108263E572E08EE492E089
:101BB0000E945A06209153023091540240915502DE
:101BC0005091560260914E0270914F0280915002E6
:101BD000909151020E94B80721E030E0AE014C5DC7
:101BE0005F4F0E94A90181E00E94CE008DED91E03F
:101BF0000E94F100CE0184960E94F1008FED0E94B8
:101C0000DE0082E791E00E94F100F701D182C082FC
:101C100081E080930E021092520210926D02109297
:101C20006C0217E09ECB80910C02882309F499CBBB
:101C300081E00E94CE0085ED91E00E94F1008AE3F0
:101C400092E00E94F10010920C028BCB80916D0209
:101C5000882309F456C010920E02F70111821082F7
:101C60000E949A0790933902809338028C32F1E0F7
:101C70009F0754F487E0E9EBF1E0AAE3B2E00190BA
:101C80000D928A95E1F724C0843F21E0920754F435
:101C900086E0E0ECF1E0AAE3B2E001900D928A95D3
:101CA000E1F716C08032934054F485E0E6ECF1E0B1
:101CB000AAE3B2E001900D928A95E1F709C08AE0AB
:101CC000EBECF1E0AAE3B2E001900D928A95E1F726
:101CD00081E00E94CE0085ED91E00E94F1008AE350
:101CE00092E00E94F100F701D182C08281E08093EE
:101CF0000F021092520210926D0210926C0216E0C6
:101D000030CB80916C028823D1F010920E02F70143
:101D10001182108281E00E94CE0087EE91E00E9445
:101D2000F100F701D182C08281E080930D02109210
:101D3000520210926D0210926C0218E012CB809148
:101D40000C02882309F40DCB2091530230915402E8
:101D5000409155025091560260914E0270914F028F
:101D600080915002909151020E94B80721E030E02A
:101D7000AE014C5D5F4F0E94A90181E00E94CE0040
:101D80008DED91E00E94F100CE0184960E94F10059
:101D90008FED0E94DE0082E791E00E94F100109238
:101DA0000C02DFCA80916D02882309F444C01092AE
:101DB0000D02F7011182108263E572E08EE492E079
:101DC0000E945A06209153023091540240915502CC
:101DD0005091560260914E0270914F0280915002D4
:101DE000909151020E94B80721E030E0AE014C5DB5
:101DF0005F4F0E94A90181E00E94CE008DED91E02D
:101E00000E94F100CE0184960E94F1008FED0E94A5
:101E1000DE0082E791E00E94F100F701D182C082EA
:101E200081E080930E021092520210926D02109285
:101E30006C0217E096CA80916C02882309F455C0A1
:101E400010920D02F701118210826091610270916F
:101E50006202809163029091640221E030E0AE0161
:101E60004F5F5F4F0E94A9016091040170910501CD
:101E7000809106019091070121E030E0AE014C5CB9
:101E80005F4F0E94A90181E00E94CE0082EF91E0A5
:101E90000E94F100CE0101960E94F1008FED0E9498
:101EA000DE0082E791E00E94F10080EC0E94CE000B
:101EB00089EF91E00E94F100CE01C4960E94F100EA
:101EC0008FED0E94DE0082E791E00E94F100F701B1
:101ED000D182C08281E0809313021092520210924C
:101EE0006D0210926C02172D3CCA80910C0288235F
:101EF00009F437CA81E00E94CE0080E092E00E949F
:101F0000F10010920C022DCA80916D02882309F411
:101F100055C010921302F701118210826091610284
:101F200070916202809163029091640221E030E03E
:101F3000AE014F5F5F4F0E94A90160910401709153
:101F40000501809106019091070121E030E0AE018A
:101F50004C5C5F4F0E94A90181E00E94CE0082EF9D
:101F600091E00E94F100CE0101960E94F1008FEDF8
:101F70000E94DE0082E791E00E94F10080EC0E9466
:101F8000CE0089EF91E00E94F100CE01C4960E943C
:101F9000F1008FED0E94DE0082E791E00E94F100E7
:101FA000F701D182C08281E080930D02109252022B
:101FB00010926D0210926C0218E0D3C980916C02ED
:101FC000882309F453C0F7011182108263E572E09F
:101FD0008EE492E00E945A066091330270913402BE
:101FE000809135029091360221E030E0AE01495FE8
:101FF0005F4F0E94A90160910001709101018091E1
:1020000002019091030121E030E0AE01465C5F4F98
:102010000E94A90181E00E94CE008DE791E00E941C
:10202000F100CE0107960E94F10084E891E00E9441
:10203000F10080EC0E94CE0086E891E00E94F10061
:10204000CE01CA960E94F10084E891E00E94F1005E
:10205000F701D182C08281E0809313021092520274
:1020600010926D0210926C021AE07BC980910C02F2
:10207000882309F476C960916102709162028091AF
:1020800063029091640221E030E0AE014F5F5F4F48
:102090000E94A901609104017091050180910601DF
:1020A0009091070121E030E0AE014C5C5F4F0E944F
:1020B000A90181E00E94CE0082EF91E00E94F10030
:1020C000CE0101960E94F1008FED0E94DE0082E7B2
:1020D00091E00E94F10080EC0E94CE0089EF91E037
:1020E0000E94F100CE01C4960E94F1008FED0E9483
:1020F000DE0082E791E00E94F10010920C0231C9EB
:1021000080916D02882309F453C081E0809313020B
:10211000F7011182108260916102709162028091D8
:1021200063029091640221E030E0AE014F5F5F4FA7
:102130000E94A9016091040170910501809106013E
:102140009091070121E030E0AE014C5C5F4F0E94AE
:10215000A90181E00E94CE0082EF91E00E94F1008F
:10216000CE0101960E94F1008FED0E94DE0082E711
:1021700091E00E94F10080EC0E94CE0089EF91E096
:102180000E94F100CE01C4960E94F1008FED0E94E2
:10219000DE0082E791E00E94F100F701D182C08267
:1021A0001092520210926D0210926C02172DD9C833
:1021B00080916C02882309F462C0F70111821082B9
:1021C00063E572E08EE492E00E945A060E94EE08F7
:1021D000909332028093310260914E0270914F02CF
:1021E000809150029091510260935702709358026F
:1021F0008093590290935A0221E030E0AE014F5F84
:102200005F4F0E94A9014AE0BE01665D7F4F809149
:102210003102909132020E940B1E81E00E94CE009A
:1022200089E691E00E94F100CE0101960E94F10042
:102230008FED0E94DE0082E791E00E94F10080ECC9
:102240000E94CE0084E791E00E94F100CE018A96C0
:102250000E94F1008FED0E94DE0082E791E00E9473
:10226000F100F701D182C08281E0809313021092C5
:10227000520210926D0210926C02102F72C880915F
:102280000C02882309F46DC8609133027091340206
:10229000809135029091360221E030E0AE01495F35
:1022A0005F4F0E94A901609100017091010180912E
:1022B00002019091030121E030E0AE01465C5F4FE6
:1022C0000E94A90181E00E94CE008DE791E00E946A
:1022D000F100CE0107960E94F10084E891E00E948F
:1022E000F10080EC0E94CE0086E891E00E94F100AF
:1022F000CE01CA960E94F10084E891E00E94F100AC
:1023000010920C022EC81F920F920FB60F9211243A
:102310002F923F924F925F926F927F928F929F92F5
:10232000AF92BF92CF92DF92EF92FF920F931F93E3
:102330002F933F934F935F936F937F938F939F93CD
:10234000AF93BF93EF93FF93CF93DF93CDB7DEB7F8
:102350002897DEBFCDBF63E572E08EE492E00E9475
:102360005A060E94EE08909332028093310281E077
:102370000E94B103609370027093710280937202A5
:10238000909373020E94670560934A0270934B0218
:1023900080934C0290934D020E949A079A838983FE
:1023A0009093390280933802409053025090540227
:1023B0006090550270905602C0904E02D0904F022D
:1023C000E0905002F0905102A3019201C701B601C2
:1023D0000E94B8076D837E838F83988729813A8115
:1023E0002C32314054F487E0E9EBF1E0AAE3B2E0AB
:1023F00001900D928A95E1F727C089819A81843FE7
:10240000914054F486E0E0ECF1E0AAE3B2E0019000
:102410000D928A95E1F718C029813A812032334024
:1024200054F485E0E6ECF1E0AAE3B2E001900D920D
:102430008A95E1F709C08AE0EBECF1E0AAE3B2E0AB
:1024400001900D928A95E1F7C0925702D0925802FE
:10245000E0925902F0925A0240925C0250925D0260
:1024600060925E0270925F0220E030E048EC52E43D
:10247000C701B6010E94781B2B013C0160932D021D
:1024800070932E0280932F029093300220E030E070
:102490004AE754E40E94191A0E94921A6093740247
:1024A000E62EF12C20E030E048EC52E4C301B2010A
:1024B0000E94191A4B015C01B701660F771FC70113
:1024C000880F991F880F991F880F991F680F791F10
:1024D000072E000C880B990B0E94C31A9B01AC01BC
:1024E000C501B4010E94A7190E94921A609360026C
:1024F000C62ED12C20E030E040E251E4C301B2010D
:102500000E94191A4B015C0154E65E9DB0015F9D6B
:10251000700D1124072E000C880B990B0E94C31A12
:102520009B01AC01C501B4010E94A7194B015C01DC
:10253000B601660F771FC601880F991F880F991F74
:10254000880F991F680F791F072E000C880B990BB5
:102550000E94C31A9B01AC01C501B4010E94A719D6
:102560000E94921A69836093490208EE13E0E09E8C
:10257000B001E19E700DF09E700D1124072E000C2D
:10258000880B990B0E94C31A9B01AC01C301B201D5
:102590000E94A7192B013C0184E68C9DB0018D9D02
:1025A000700D1124072E000C880B990B0E94C31A82
:1025B0009B01AC01C301B2010E94A7196B017C0110
:1025C000E9818E2F90E0BC01660F771F880F991F5D
:1025D000880F991F880F991F680F791F072E000C0D
:1025E000880B990B0E94C31A9B01AC01C701B6016D
:1025F0000E94A7190E94921A60935B028FEF0E94BB
:102600009F19809174020E949F19809160020E941C
:102610009F19809149020E949F1980915B020E943C
:102620009F1920E030E048EC52E460915302709131
:10263000540280915502909156020E94781B6B01C2
:102640007C0160932D0270932E0280932F02909351
:10265000300220E030E04AE754E40E94191A0E9458
:10266000921A698360937402262E312C20E030E0A8
:1026700048EC52E4C701B6010E94191A2B013C0133
:10268000B101660F771FC101880F991F880F991F2D
:10269000880F991F680F791F072E000C880B990B64
:1026A0000E94C31A9B01AC01C301B2010E94A71989
:1026B0000E94921A60936002A62EB12C20E030E0B6
:1026C00040E251E4C701B6010E94191A2B013C01F6
:1026D00024E6229DB001239D700D1124072E000CCD
:1026E000880B990B0E94C31A9B01AC01C301B20174
:1026F0000E94A7192B013C01B501660F771FC50188
:10270000880F991F880F991F880F991F680F791FCD
:10271000072E000C880B990B0E94C31A9B01AC0179
:10272000C301B2010E94A7190E94921A762E6093EB
:102730004902209EB001219E700D309E700D112423
:10274000072E000C880B990B0E94C31A9B01AC0149
:10275000C701B6010E94A7196B017C0134E63A9DBE
:10276000B0013B9D700D1124072E000C880B990BB6
:102770000E94C31A9B01AC01C701B6010E94A719B0
:102780006B017C01872D90E0BC01660F771F880FDD
:10279000991F880F991F880F991F680F791F072E9F
:1027A000000C880B990B0E94C31A9B01AC01C70156
:1027B000B6010E94A7190E94921A60935B02898158
:1027C0000E949F19809160020E949F198091490286
:1027D0000E949F1980915B020E949F194090700295
:1027E000509071026090720270907302C301B20146
:1027F00020EA36E841E050E00E94B01DD22E20933E
:102800007402C301B20120E137E240E050E00E94CF
:10281000B01D9D2D990F892F880F880F890F222EAB
:10282000281A20926002C301B20128EE33E040E092
:1028300050E00E94B01D44E64D9D20191124922DB8
:10284000990F892F880F880F890F281B29832093C0
:102850004902C301B20124E630E040E050E00E94AA
:10286000B01D822F58E1D59E800D112494E6299E3B
:10287000801911242981220F922F990F990F920FFD
:10288000891B80935B02312CA82EB12CE9818E2EFE
:10289000912CC301B2012AE030E040E050E00E94F8
:1028A000B01D8D2D90E09C838B8360EF78EDFC0153
:1028B000E69FC001E79F900DF69F900D1124280F11
:1028C000391FE8E1FCEF2E9EC0012F9E900D3E9E29
:1028D000900D1124D901A80FB91F4CE994014203AE
:1028E000C001439F900D11247D01E80EF91EA6EF53
:1028F0004A2F95014203C001439F900D1124970177
:10290000280F391F3A83298380E699E74B815C8140
:10291000489F7001499FF00C589FF00C11244E0CF9
:102920005F1C269E7001279EF00C369EF00C112431
:102930004E0C5F1C8E9E70018F9EF00C9E9EF00CC4
:102940001124E40CF51C4CE995014203C001439F9E
:10295000900D11242701480E591E4A2F29813A81D2
:1029600042037001439FF00C1124E40CF51C8D2DE3
:102970000E949F19809160020E949F1980914902D4
:102980000E949F1980915B020E949F1989810E9479
:102990009F198E2D0E949F1920E030E040E251E403
:1029A00060914A0270914B0280914C0290914D02CD
:1029B0000E94781B6B017C0160932D0270932E02A4
:1029C00080932F029093300220E030E04AE754E4F5
:1029D0000E94191A0E94921A698360937402262E2B
:1029E000312C20E030E048EC52E4C701B6010E94EF
:1029F000191A2B013C01B101660F771FC101880F25
:102A0000991F880F991F880F991F680F791F072E2C
:102A1000000C880B990B0E94C31A9B01AC01C301E7
:102A2000B2010E94A7190E94921A60936002862E3A
:102A3000912C20E030E040E251E4C701B6010E9451
:102A4000191A2B013C0184E6829DB001839D700D13
:102A50001124072E000C880B990B0E94C31A9B01AE
:102A6000AC01C301B2010E94A7192B013C01B401C2
:102A7000660F771FC401880F991F880F991F880F51
:102A8000991F680F791F072E000C880B990B0E9465
:102A9000C31A9B01AC01C301B2010E94A7190E9495
:102AA000921A762E60934902209EB001219E700DED
:102AB000309E700D1124072E000C880B990B0E947C
:102AC000C31A9B01AC01C701B6010E94A7196B0193
:102AD0007C0194E6989DB001999D700D1124072EFC
:102AE000000C880B990B0E94C31A9B01AC01C70113
:102AF000B6010E94A7196B017C01872D90E09C0113
:102B0000220F331FBC01660F771F660F771F660FFA
:102B1000771F620F731F072E000C880B990B0E9402
:102B2000C31A9B01AC01C701B6010E94A7190E94FC
:102B3000921A60935B0289810E949F1980916002C2
:102B40000E949F19809149020E949F1980915B0207
:102B50000E949F1920913802F0913902822F9F2FF5
:102B6000B8010E947A1D462F60937402362F330FEE
:102B7000832F880F880F380F3195822F9F2F64E69F
:102B800070E00E947A1DE32FE60FE0936002822F2F
:102B90009F2F6AE070E00E947A1DFCE9F49F600DAF
:102BA00011249E2F990F892F880F880F890F681B7A
:102BB0006093490258E1459F300D1124230FEF9F88
:102BC000200D112420935B02842F0E949F19809175
:102BD00060020E949F19809149020E949F19809172
:102BE0005B020E949F1920E030E048EC52E46D81C6
:102BF0007E818F8198850E94781B6B017C01609398
:102C00002D0270932E0280932F029093300220E0C9
:102C100030E04AE754E40E94191A0E94921A69832C
:102C200060937402A62EB12C20E030E048EC52E410
:102C3000C701B6010E94191A2B013C01B501660FAC
:102C4000771FC501880F991F880F991F880F991F3B
:102C5000680F791F072E000C880B990B0E94C31A6E
:102C60009B01AC01C301B2010E94A7190E94921AF4
:102C700060936002862E912C20E030E040E251E427
:102C8000C701B6010E94191A2B013C0194E69A9DD6
:102C9000B0019B9D700D1124072E000C880B990B21
:102CA0000E94C31A9B01AC01C301B2010E94A71983
:102CB0002B013C01B401660F771FC401880F991FD7
:102CC000880F991F880F991F680F791F072E000C16
:102CD000880B990B0E94C31A9B01AC01C301B2017E
:102CE0000E94A7190E94921A762E60934902A09E14
:102CF000B001A19E700DB09E700D1124072E000C26
:102D0000880B990B0E94C31A9B01AC01C701B60145
:102D10000E94A7196B017C01E4E6E89DB001E99DE2
:102D2000700D1124072E000C880B990B0E94C31AFA
:102D30009B01AC01C701B6010E94A7196B017C0180
:102D4000872D90E0BC01660F771F880F991F880FB1
:102D5000991F880F991F680F791F072E000C880B89
:102D6000990B0E94C31A9B01AC01C701B6010E94D6
:102D7000A7190E94921A60935B0289810E949F1991
:102D8000809160020E949F19809149020E949F19C0
:102D900080915B020E949F19809137020E949F19C7
:102DA0008091310290913202F4E6F89FB001F99FD0
:102DB000700D1124072E000C880B990B0E94C31A6A
:102DC0006B017C0160932D0270932E0280932F0281
:102DD0009093300220E030E04AE754E40E94191A50
:102DE0000E94921A698360937402A62EB12C20E08F
:102DF00030E048EC52E4C701B6010E94191A2B01D9
:102E00003C01B501660F771FC501880F991F880F18
:102E1000991F880F991F680F791F072E000C880BC8
:102E2000990B0E94C31A9B01AC01C301B2010E941D
:102E3000A7190E94921A60936002862E912C20E0BE
:102E400030E040E251E4C701B6010E94191A2B019B
:102E50003C0134E63A9DB0013B9D700D1124072ED4
:102E6000000C880B990B0E94C31A9B01AC01C30193
:102E7000B2010E94A7192B013C01B401660F771F14
:102E8000C401880F991F880F991F880F991F680F19
:102E9000791F072E000C880B990B0E94C31A9B0107
:102EA000AC01C301B2010E94A7190E94921A762EAA
:102EB00060934902A09EB001A19E700DB09E700D5E
:102EC0001124072E000C880B990B0E94C31A9B013A
:102ED000AC01C701B6010E94A7196B017C0144E651
:102EE000489DB001499D700D1124072E000C880BE0
:102EF000990B0E94C31A9B01AC01C701B6010E9445
:102F0000A7196B017C01872D90E0BC01660F771F2C
:102F1000880F991F880F991F880F991F680F791FB5
:102F2000072E000C880B990B0E94C31A9B01AC0161
:102F3000C701B6010E94A7190E94921A60935B0212
:102F400089810E949F19809160020E949F1980913F
:102F500049020E949F1980915B020E949F1981E0A3
:102F600080930C0228960FB6F894DEBF0FBECDBF3B
:102F7000DF91CF91FF91EF91BF91AF919F918F9191
:102F80007F916F915F914F913F912F911F910F9181
:102F9000FF90EF90DF90CF90BF90AF909F908F9079
:102FA0007F906F905F904F903F902F900F900FBE4B
:102FB0000F901F901895CF92DF92EF92FF92672BA0
:102FC000E1F0FC01C080D180E280F38020913302E7
:102FD000309134024091350250913602C701B6015A
:102FE0000E94731B181624F5C0923302D09234024B
:102FF000E0923502F09236021BC0FC01C080D18005
:10300000E280F3802091610230916202409163027C
:1030100050916402C701B6010E94731B181644F454
:10302000C0926102D0926202E0926302F092640266
:10303000FF90EF90DF90CF900895CF92DF92EF92C4
:10304000FF92672BE1F0FC01C080D180E280F38029
:103050002091000130910101409102015091030142
:10306000C701B6010E94141A882324F5C0920001FA
:10307000D0920101E0920201F09203011BC0FC0119
:10308000C080D180E280F38020910401309105015D
:103090004091060150910701C701B6010E94141A20
:1030A000882344F4C0920401D0920501E092060105
:1030B000F0920701FF90EF90DF90CF9008951F925C
:1030C0000F920FB60F9211242F933F934F935F935C
:1030D0006F937F938F939F93AF93BF93EF93FF93E0
:1030E000909113028091110220910E02892B19F404
:1030F000222309F444C063E572E08EE492E00E946A
:103100005A0680914E0290914F02A0915002B091C8
:1031100051028093570290935802A0935902B093A2
:103120005A028091530290915402A0915502B0919D
:10313000560280935C0290935D02A0935E02B0936E
:103140005F0260E070E087E592E00E94DB1761E0DB
:1031500070E08CE592E00E94DB1760E070E087E5AC
:1031600092E00E941D1861E070E08CE592E00E9400
:103170001D180E94EE0890933202809331028091D4
:103180001202882359F081E00E94B103609370021B
:103190007093710280937202909373028091100277
:1031A0008823A9F081E00E94B103609370027093BC
:1031B000710280937202909373020E94670560937C
:1031C0004A0270934B0280934C0290934D0280917F
:1031D0000F028823C1F10E949A07909339028093CD
:1031E00038028C3221E0920754F487E0E9EBF1E0F9
:1031F000AAE3B2E001900D928A95E1F724C0843FE2
:1032000021E0920754F486E0E0ECF1E0AAE3B2E0BA
:1032100001900D928A95E1F716C08032934054F4E4
:1032200085E0E6ECF1E0AAE3B2E001900D928A9528
:10323000E1F709C08AE0EBECF1E0AAE3B2E001902B
:103240000D928A95E1F781E080930C02FF91EF9156
:10325000BF91AF919F918F917F916F915F914F91AE
:103260003F912F910F900FBE0F901F9018951F93B5
:10327000CF93DF9300D000D01F92CDB7DEB7498344
:103280005A83162F6B837C838D8329813A8140E09A
:1032900050E060E472E48FE090E00E948E1D2150C7
:1032A0003109309378022093770288E090E0909380
:1032B000C5008093C40088E18093C100193028F0D4
:1032C000612F70E06250710904C0612F70E0655099
:1032D00071098091750290917602682B792B709319
:1032E000760260937502E2ECF0E08081660F771F52
:1032F000682B608320819D81892F90E00197880F42
:10330000991F880F991F880F991F822B80838C81AA
:10331000853431F08F3449F480E38093C20005C0D6
:10332000E2ECF0E080818062808380E00F900F907B
:103330000F900F900F90DF91CF911F910895E0ECC7
:10334000F0E0908195FFFDCF8093C600089550581E
:10335000BB27AA270E94BF190C94391B0E942B1B64
:1033600038F00E94321B20F039F49F3F19F426F404
:103370000C94281B0EF4E095E7FB0C94221BE92F1C
:103380000E944A1B58F3BA17620773078407950710
:1033900020F079F4A6F50C946C1B0EF4E0950B2E3E
:1033A000BA2FA02D0B01B90190010C01CA01A00197
:1033B0001124FF27591B99F0593F50F4503E68F1F2
:1033C0001A16F040A22F232F342F4427585FF3CF33
:1033D000469537952795A795F0405395C9F77EF404
:1033E0001F16BA0B620B730B840BBAF09150A1F04D
:1033F000FF0FBB1F661F771F881FC2F70EC0BA0FD3
:10340000621F731F841F48F4879577956795B7955A
:10341000F7959E3F08F0B0CF9395880F08F0992755
:10342000EE0F9795879508950E94FE1A08F481E0A3
:1034300008950E942D1A0C94391B0E94321B58F0DB
:103440000E942B1B40F029F45F3F29F00C94221BB3
:1034500051110C946D1B0C94281B0E944A1B68F39D
:103460009923B1F3552391F3951B550BBB27AA273D
:1034700062177307840738F09F5F5F4F220F331F77
:10348000441FAA1FA9F335D00E2E3AF0E0E832D03F
:1034900091505040E695001CCAF72BD0FE2F29D042
:1034A000660F771F881FBB1F261737074807AB0714
:1034B000B0E809F0BB0B802DBF01FF2793585F4F89
:1034C0003AF09E3F510578F00C94221B0C946D1B32
:1034D0005F3FE4F3983ED4F3869577956795B7956B
:1034E000F7959F5FC9F7880F911D9695879597F976
:1034F0000895E1E0660F771F881FBB1F62177307EF
:103500008407BA0720F0621B730B840BBA0BEE1F03
:1035100088F7E09508950E94921A6894B1110C946E
:103520006D1B08950E94521B88F09F5798F0B92F89
:103530009927B751B0F0E1F0660F771F881F991FE8
:103540001AF0BA95C9F714C0B13091F00E946C1B03
:10355000B1E008950C946C1B672F782F8827B85F13
:1035600039F0B93FCCF3869577956795B395D9F740
:103570003EF490958095709561957F4F8F4F9F4F4A
:103580000895E89409C097FB3EF490958095709556
:1035900061957F4F8F4F9F4F9923A9F0F92F96E99F
:1035A000BB279395F695879577956795B795F11114
:1035B000F8CFFAF4BB0F11F460FF1BC06F5F7F4FB1
:1035C0008F4F9F4F16C0882311F096E911C07723C3
:1035D00021F09EE8872F762F05C0662371F096E8CC
:1035E000862F70E060E02AF09A95660F771F881F9B
:1035F000DAF7880F9695879597F90895990F00083F
:10360000550FAA0BE0E8FEEF16161706E807F907B4
:10361000C0F012161306E407F50798F0621B730B4F
:10362000840B950B39F40A2661F0232B242B252BD0
:1036300021F408950A2609F4A140A6958FEF811D73
:10364000811D089597F99F6780E870E060E0089514
:103650009FEF80EC089500240A94161617061806AA
:103660000906089500240A94121613061406050686
:103670000895092E0394000C11F4882352F0BB0F17
:1036800040F4BF2B11F460FF04C06F5F7F4F8F4F7A
:103690009F4F089557FD9058440F551F59F05F3FB5
:1036A00071F04795880F97FB991F61F09F3F79F064
:1036B00087950895121613061406551FF2CF4695E6
:1036C000F1DF08C0161617061806991FF1CF869568
:1036D0007105610508940895E894BB27662777274C
:1036E000CB0197F908950E94FE1A08F48FEF089510
:1036F0000E948B1B0C94391B0E942B1B38F00E94DC
:10370000321B20F0952311F00C94221B0C94281BE3
:1037100011240C946D1B0E944A1B70F3959FC1F3FA
:10372000950F50E0551F629FF001729FBB27F00D6F
:10373000B11D639FAA27F00DB11DAA1F649F6627C4
:10374000B00DA11D661F829F2227B00DA11D621F13
:10375000739FB00DA11D621F839FA00D611D221FCD
:10376000749F3327A00D611D231F849F600D211DB1
:10377000822F762F6A2F11249F5750409AF0F1F034
:1037800088234AF0EE0FFF1FBB1F661F771F881F9D
:1037900091505040A9F79E3F510580F00C94221B98
:1037A0000C946D1B5F3FE4F3983ED4F386957795B8
:1037B0006795B795F795E7959F5FC1F7FE2B880F43
:1037C000911D9695879597F90895FA01EE0FFF1FC1
:1037D000309621053105A1F16115710561F480383C
:1037E000BFE39B0749F168949038810561F0803808
:1037F000BFEF9B0741F099234AF5FF3FE1053105F3
:10380000210519F1E8940894E795D901AA2329F430
:10381000AB2FBE2FF85FD0F310C0FF5F70F4A695FA
:10382000E0F7F73950F019F0FF3A38F49F779F939B
:103830000DD00F9007FC9058089546F00C94281B6B
:1038400060E070E080E89FE308954FE79F775F9323
:103850004F933F932F930E94E01C2F913F914F91E4
:103860005F910E94781B0C943D1C29F416F00C9477
:10387000221B0C946C1B0C94281B0E94521BA8F357
:103880009638A0F707F80F92E8942BE33AEA48EB52
:103890005FE70E948E1B0F920F920F924DB75EB79B
:1038A0000F920E94281DEEE7F0E00E946F1C4F91DE
:1038B0005F91EF91FF91E595EE1FFF1F49F0FE57D5
:1038C000E0684427EE0F441FFA95E1F74195550B48
:1038D0000E94A21C0F9007FE0C94961C0895DF9383
:1038E000CF931F930F93FF92EF92DF927B018C0196
:1038F000689406C0DA2EEF010E948B1BFE01E8944B
:10390000A5912591359145915591A6F3EF010E941E
:10391000BF19FE019701A801DA9469F7DF90EF90D3
:10392000FF900F911F91CF91DF9108959B01AC0102
:1039300060E070E080E89FE30C94191A0C94221B5D
:103940000C945C1D0E94521BD8F39923C9F3940F69
:10395000511DA3F39150504094F059F0882332F058
:10396000660F771F881F91505040C1F79E3F510549
:103970002CF7880F911D9695879597F908955F3FCD
:10398000ACF0983E9CF0BB27869577956795B795E8
:1039900008F4B1609395C1F7BB0F58F711F460FFBD
:1039A000E8CF6F5F7F4F8F4F9F4FE3CF0C946D1B1E
:1039B00016F00C945C1D0C94281B68940C94221B2C
:1039C0000E94521BA8F39923C1F3AEF3DF93CF9368
:1039D0001F930F93FF92C92FDD2788232AF0219789
:1039E000660F771F881FDAF720E030E040E85FEBD2
:1039F0009FE3883920F0803E38F021968F770E942F
:103A0000A819E6EAF0E004C00E94A819E3EDF0E08E
:103A10000E946F1C8B01BE01EC01FB2E6F577109D8
:103A20007595771F880B990B0E94C31A28E132E71E
:103A300041E35FE30E948B1BAF2D9801AE01FF9025
:103A40000F911F91CF91DF910E94BF190C94391BE8
:103A5000FA01DC01AA0FBB1F9B01AC01BF5728F480
:103A6000222733274427507820C0B75190F4AB2F3A
:103A70000024469537952795011CA395D2F3002085
:103A800071F0220F331F441FB395DAF30ED00C945C
:103A9000A71961307105A0E88A07B94630F49B0187
:103AA000AC016627772788279078309621F020830D
:103AB00031834283538308959F3F31F0915020F426
:103AC000879577956795B795880F911D96958795FA
:103AD00097F90895DB018F939F930E94D51DBF91A5
:103AE000AF91A29F800D911DA39F900DB29F900D4D
:103AF0001124089597FB072E16F4009407D077FD44
:103B000009D00E94E81D07FC05D03EF490958195F0
:103B10009F4F0895709561957F4F0895A1E21A2EE9
:103B2000AA1BBB1BFD010DC0AA1FBB1FEE1FFF1F61
:103B3000A217B307E407F50720F0A21BB30BE40BB1
:103B4000F50B661F771F881F991F1A9469F76095F8
:103B50007095809590959B01AC01BD01CF010895B2
:103B6000052E97FB1EF400940E94C71D57FD07D039
:103B70000E948E1D07FC03D04EF40C94C71D509577
:103B80004095309521953F4F4F4F5F4F0895909549
:103B90008095709561957F4F8F4F9F4F0895EE0FE1
:103BA000FF1F0590F491E02D09940E94FC1DA59F34
:103BB000900DB49F900DA49F800D911D1124089528
:103BC000B7FF0C94D51D0E94D51D821B930B089541
:103BD000AA1BBB1B51E107C0AA1FBB1FA617B70733
:103BE00010F0A61BB70B881F991F5A95A9F780954F
:103BF0009095BC01CD010895A29FB001B39FC00173
:103C0000A39F700D811D1124911DB29F700D811D08
:103C10001124911D0895BB274A3031F4992322F4D1
:103C2000BDE2909581959F4F0C94171EBB27FB0119
:103C30005527AA27880F991FAA1FA41710F0A41BA5
:103C400083955051B9F7A05DAA3308F0A95DA193FF
:103C5000009779F7B111B1931192CB010C944920DF
:103C6000AEE0B0E0E6E3FEE10C9401210D891E898F
:103C700086E08C831A8309838FEF9FE79E838D8371
:103C8000AE01475E5F4F6F89788DCE0101960E942D
:103C9000521EEF81F885E00FF11F10822E96E4E0AE
:103CA0000C941D21ABE0B0E0E8E5FEE10C94F320BC
:103CB0006C017B018A01FC0117821682838181FFDE
:103CC000CCC1CE0101963C01F6019381F70193FD31
:103CD000859193FF81917F01882309F4BAC18532D0
:103CE00039F493FD859193FF81917F01853229F409
:103CF000B60190E00E945920E7CF912C212C312C65
:103D0000FFE1F315D8F08B3279F038F4803279F096
:103D10008332A1F4232D20611DC08D3261F08033E8
:103D200069F4232D216016C0832D8260382EE32D87
:103D3000E4603E2E2AC0F32DF8601DC037FC2DC074
:103D400020ED280F2A3040F08E32B9F436FC81C1C4
:103D5000232D2064322E19C036FE06C08AE0989EBC
:103D6000200D1124922E11C0EAE02E9E200D112468
:103D7000222EF32DF0623F2E08C08C3621F4832DC5
:103D80008068382E02C0883641F4F70193FD859192
:103D900093FF81917F018111B3CF982F9F7D95541F
:103DA000933028F40C5F1F4F9FE399830DC0833637
:103DB00031F0833771F0833509F059C021C0F80123
:103DC000808189830E5F1F4F88248394912C530137
:103DD00013C02801F2E04F0E511CF801A080B18001
:103DE00036FE03C0692D70E002C06FEF7FEFC501A2
:103DF0000E943E204C018201F32DFF773F2E16C01A
:103E0000280122E0420E511CF801A080B18036FE4C
:103E100003C0692D70E002C06FEF7FEFC5010E9403
:103E200033204C01F32DF0683F2E820133FC1BC080
:103E3000822D90E088169906B0F4B60180E290E0F9
:103E40000E9459202A94F4CFF50137FC859137FE62
:103E500081915F01B60190E00E94592021102A94BF
:103E600021E0821A91088114910471F7E8C0843628
:103E700011F0893641F5F80137FE07C06081718184
:103E8000828193810C5F1F4F08C060817181072E72
:103E9000000C880B990B0E5F1F4FF32DFF763F2E02
:103EA00097FF09C090958095709561957F4F8F4FD2
:103EB0009F4FF0683F2E2AE030E0A3010E9495203A
:103EC000882E861845C0853731F4232D2F7EB22EDB
:103ED0002AE030E025C0932D997FB92E8F36C1F0AE
:103EE00018F4883579F0B5C0803719F0883721F09B
:103EF000B0C0E92FE061BE2EB4FE0DC0FB2DF46012
:103F0000BF2E09C034FE0AC0292F2660B22E06C07B
:103F100028E030E005C020E130E002C020E132E0DE
:103F2000F801B7FE07C060817181828193810C5FC7
:103F30001F4F06C06081718180E090E00E5F1F4FCF
:103F4000A3010E949520882E8618FB2DFF773F2E17
:103F500036FE0DC0232D2E7FA22E891458F434FE78
:103F60000BC032FC09C0832D8E7EA82E05C0B82C54
:103F7000A32C03C0B82C01C0B92CA4FE0FC0FE01B5
:103F8000E80DF11D8081803321F49A2D997EA92EB0
:103F900009C0A2FE06C0B394B39404C08A2D8678EB
:103FA00009F0B394A3FC11C0A0FE06C0B21488F4BB
:103FB000280C922C9B180EC0B21460F4B60180E25B
:103FC00090E00E945920B394F7CFB21418F42B1844
:103FD00002C0982C212CA4FE10C0B60180E390E012
:103FE0000E945920A2FE17C0A1FC03C088E790E000
:103FF00002C088E590E0B6010CC08A2D867859F0A1
:10400000A1FE02C08BE201C080E2A7FC8DE2B601F6
:1040100090E00E945920891438F4B60180E390E0C2
:104020000E9459209A94F7CF8A94F301E80DF11D6C
:104030008081B60190E00E9459208110F5CF2220A6
:1040400009F442CEB60180E290E00E9459202A9401
:10405000F6CFF6018681978102C08FEF9FEF2B96F6
:10406000E2E10C940F21FC010590615070400110B9
:10407000D8F7809590958E0F9F1F0895FC01615091
:10408000704001900110D8F7809590958E0F9F1F7A
:104090000895DC01FC01672F71917723E1F73297D6
:1040A00004C07C916D9370836291AE17BF07C8F313
:1040B00008950F931F93CF93DF93FB01238121FD7D
:1040C00003C08FEF9FEF2CC022FF16C0468157819F
:1040D000248135814217530744F4A081B1819D01A9
:1040E0002F5F3F4F318320838C93268137812F5F51
:1040F0003F4F3783268314C08B01EC01FB01008402
:10410000F185E02D0995892BE1F6D80116968D9160
:104110009C911797019617969C938E931697CE01B4
:10412000DF91CF911F910F910895FA01AA272830AE
:1041300051F1203181F1E8946F936E7F6E5F7F4F74
:104140008F4F9F4FAF4FB1E03ED0B4E03CD0670FF0
:10415000781F891F9A1FA11D680F791F8A1F911D43
:10416000A11D6A0F711D811D911DA11D20D009F493
:1041700068943F912AE0269F11243019305D3193D5
:10418000DEF6CF010895462F4770405D4193B3E0BE
:104190000FD0C9F7F6CF462F4F70405D4A3318F065
:1041A000495D31FD4052419302D0A9F7EACFB4E016
:1041B000A6959795879577956795BA95C9F70097CE
:1041C0006105710508959B01AC010A2E069457956F
:1041D000479537952795BA95C9F7620F731F841FC6
:1041E000951FA01D08952F923F924F925F926F925C
:1041F0007F928F929F92AF92BF92CF92DF92EF9277
:10420000FF920F931F93CF93DF93CDB7DEB7CA1BF7
:10421000DB0B0FB6F894DEBF0FBECDBF09942A8822
:10422000398848885F846E847D848C849B84AA84CA
:10423000B984C884DF80EE80FD800C811B81AA8157
:10424000B981CE0FD11D0FB6F894DEBF0FBECDBF22
:08425000ED010895F894FFCF81
:104258000000C8420000484200E1084E014269657A
:104268006E76656E69646F0053697374656D61205D
:10427800436C696D6121210041707265746520622B
:104288006F746F6E3A004163657074617200436FBA
:104298006E74726F6C65733A00497A7175696572EC
:1042A80064613A2042746E20310044657265636827
:1042B800613A2042746E203300546D702E45787434
:1042C8003A004300546D702E496E743A00482E4DE2
:1042D80061783A002500482E4D696E3A0048756DA0
:1042E800656461643A0054656D703A00256C640039
:1042F80050726573696F6E3A00506100416C746961
:104308007475643A00736E6D004675657274650065
:104318004D65646961004C65766500446573706538
:104328006A61646F004C6C757669613A0050746F0D
:10433800526F63696F3A0050726564696363696FAD
:104348006E00542E4D61783A00542E4D696E3A0035
:0C43580050726564696363696F6E3A001F
:00000001FF
