:100000000C9480000C949D000C949D000C9471083D
:100010000C949D000C949D000C949D000C949D00EC
:100020000C949D000C949D000C949D000C948311E5
:100030000C9463180C949D000C949D000C949D00EE
:100040000C949D000C949D000C949D000C949D00BC
:100050000C949D000C949D000C949D000C949D00AC
:100060000C949D000C949D00BB09E5094B0A340BD0
:100070000A0CC10C840D260ED20E840F801007636B
:100080004236B79BD8A71A39685618AEBAAB558C0A
:100090001D3CB7CC5763BD6DEDFD753EF617723153
:1000A000BF000000803F08000000BE922449123EBD
:1000B000ABAAAA2ABECDCCCC4C3E00000080BEAB81
:1000C000AAAAAA3E00000000BF000000803F000076
:1000D000000000084178D3BB4387D1133D190E3C83
:1000E000C3BD4282AD2B3E68EC8276BED98FE1A9BA
:1000F0003E4C80EFFFBE01C4FF7F3F0000000000C8
:1001000011241FBECFEFD8E0DEBFCDBF12E0A0E0CC
:10011000B1E0E0E6F2E402C005900D92A031B10733
:10012000D9F722E0A0E1B2E001C01D92AB37B207DF
:10013000E1F70E943B090C942E210C940000CF9310
:10014000C82F0E940B070E9413078EE70E94190711
:100150000E9413078C2F0E9419070E9413070E9408
:100160000F07CF910895CF93C0911802C82B8C2F01
:100170000E949F008C2F84600E949F008AE08A95D5
:10018000F1F700C08C2F8B7F0E949F008FE39FE1CF
:100190000197F1F700C00000CF910895CF93C82FC9
:1001A0001092190210921802807F0E94B3008C2FC7
:1001B0008295807F0E94B300CF910895CF93C82F7E
:1001C00081E090E090931902809318028C2F807F39
:1001D0000E94B3008C2F8295807F0E94B300CF9144
:1001E0000895CF93DF93EC018881882331F0219625
:1001F0000E94DE0089918111FBCFDF91CF9108959C
:1002000080E00E949F002FEF80E792E02150804025
:100210009040E1F700C000001092190210921802FD
:1002200080E30E94B3008FED9EE20197F1F700C0DA
:10023000000080E30E94B30080E30E94B30080E2EC
:100240000E94B30088E20E94CE008FED9EE20197EB
:10025000F1F700C0000088E00E94CE008FED9EE222
:100260000197F1F700C0000081E00E94CE008FED01
:100270009EE20197F1F700C0000086E00E94CE00E8
:100280008FED9EE20197F1F700C000008CE00E9424
:10029000CE008FED9EE20197F1F700C000000895B7
:1002A0009B01215031091216130684F4FC01E60F5C
:1002B000F71FDC0180E090E04C9152915D93408308
:1002C00001962150310982179307B4F30895CF9214
:1002D000DF92EF92FF920F931F93CF93DF936B0107
:1002E0008A01009799F0EB01E0E0F0E00F2EFAE0D0
:1002F000EF2EF12CF02D3196B7010E947E1D805D0E
:100300008993862F972F0097B1F702C0E0E0F0E0C5
:10031000E017F1075CF4EC0DFD1D9601200F311F75
:1003200080E38193E217F307E1F701C08F01B80181
:10033000C6010E945001E601C00FD11F1882C801FA
:10034000DF91CF911F910F91FF90EF90DF90CF90B1
:1003500008952F923F924F925F926F927F928F9269
:100360009F92AF92BF92CF92DF92EF92FF920F9344
:100370001F93CF93DF934B015C018A01E9010E9437
:100380008F1A6B017C0140E050E0B801C6010E9469
:1003900067011C01209799F1F801E80FF91F8EE21F
:1003A0008083BE010D2E000C880B990B0E94C71A8A
:1003B0009B01AC0160E070E080E291E40E94E91BE7
:1003C0002B013C01B601DD0C880B990B0E94C71A6A
:1003D0009B01AC01C501B4010E94AB192FEF221A99
:1003E000320A020D131DA30192010E947C1B0E9480
:1003F0008F1ADC01CB01AE01B8010E946701DF91C9
:10040000CF911F910F91FF90EF90DF90CF90BF9011
:10041000AF909F908F907F906F905F904F903F90A4
:100420002F900895CF93DF93D82F0E940B070E943F
:1004300013078EEE0E9419070E9413078D2F0E944A
:1004400019070E9413070E940B070E9413078FEEE3
:100450000E9419070E94130780E00E941F070E9454
:1004600013070E942907C82F0E9413070E940F0735
:100470000E940B070E9413078EEE0E9419070E942C
:10048000130781E08D0F0E9419070E9413070E9435
:100490000B070E9413078FEE0E9419070E94130793
:1004A00080E00E941F070E9413070E942907D82F8F
:1004B0000E9413070E940F078C2F90E0982F882727
:1004C0008D0F911DDF91CF910895CF93DF93D82F9A
:1004D000C62F0E940B070E9413078EEE0E94190779
:1004E0000E9413078D2F0E9419070E9413078C2F5B
:1004F0000E9419070E9413070E940F07DF91CF91F6
:1005000008950F931F93CF93DF93D82F0E940B076B
:100510000E9413078EEE0E9419070E94130786EFB0
:100520000E9419070E9413070E940B070E941307DD
:100530008FEE0E9419070E94130780E00E941F0798
:100540000E9413070E942907C82F0E9413070E94C8
:100550000B070E9413078EEE0E9419070E941307D3
:1005600087EF0E9419070E9413070E940B070E9441
:1005700013078FEE0E9419070E94130780E00E9464
:100580001F070E9413070E942907082F0E941307C4
:100590000E940B070E9413078EEE0E9419070E940B
:1005A000130788EF0E9419070E9413070E940B0788
:1005B0000E9413078FEE0E9419070E94130780E024
:1005C0000E941F070E9413070E942907182F0E94EC
:1005D00013070E940F078C2F90E0A0E0B0E0DC0131
:1005E00099278827202F30E0322F2227820F931F50
:1005F000A11DB11D810F911DA11DB11D28E030E08D
:100600002D1B3109BC01CD0104C0959587957795C7
:1006100067952A95D2F7DF91CF911F910F91089599
:100620008AEA0E94120290931D0280931C028FECB2
:1006300097E00197F1F700C000008CEA0E941202D7
:1006400090932702809326028FEC97E00197F1F7B1
:1006500000C000008EEA0E9412029093290280934B
:1006600028028FEC97E00197F1F700C0000080EBC3
:100670000E94120290932302809322028FEC97E053
:100680000197F1F700C0000082EB0E9412029093E4
:100690002102809320028FEC97E00197F1F700C0D0
:1006A000000084EB0E94120290931F0280931E02AE
:1006B0008FEC97E00197F1F700C0000086EB0E94F5
:1006C000120290932D0280932C028FEC97E00197F9
:1006D000F1F700C0000088EB0E94120290932B02F9
:1006E00080932A028FEC97E00197F1F700C0000099
:1006F0008AEB0E94120290932502809324028FECD1
:1007000097E00197F1F700C000008CEB0E94120205
:1007100090932F0280932E028FEC97E00197F1F7D0
:1007200000C000008EEB0E94120290931B02809387
:100730001A028FEC97E00197F1F700C000000895CE
:100740006EE284EF0E94650287E197E40197F1F77A
:1007500000C0000086EF0E941202BC0180E090E021
:1007600008954F925F926F927F928F929F92AF9275
:10077000BF92CF92DF92EF92FF920F931F93CF938E
:10078000C82F0E94A0036B017C016C2F6295660F3D
:10079000660F607C6C5C84EF0E946502C11107C02B
:1007A0008FE496E40197F1F700C000001DC0C1304E
:1007B00039F48FE295E70197F1F700C0000014C00B
:1007C000C23039F48FEE92ED0197F1F700C00000CE
:1007D0000BC0C33049F49FEB2EE381E091502040E1
:1007E0008040E1F700C000008C2F0E9481024B0185
:1007F0005C0180911E0290911F02A7019601281BA7
:10080000390B41095109A0912002B09121020E94A7
:10081000D91D2B013C01992334F42FEF420E2FE711
:10082000521E611C711C032E3FE07594679457940F
:1008300047943A95D1F7302D80912E0260E070E018
:10084000782F770F770F770F072E000C880B990BF7
:1008500020911A0230911B028901330F220B330BB6
:10086000A9019801240D351D461D571D0E94B41D78
:10087000420E531E641E751E80EA481A8FE0580A05
:1008800061087108A3019201C301B2010E946E1DAB
:100890008B019C01992324F40150104F2F4F3F4F9F
:1008A000A9019801012E1CE055954795379527958C
:1008B0001A95D1F7102DA0912A02B0912B020E9417
:1008C000E41D6B017C01992334F42FEFC20E27E065
:1008D000D21EE11CF11C0B2EBBE0F594E794D794DB
:1008E000C794BA95D1F7B02DA0912602B0912702F6
:1008F000A30192010E94E41D8B019C01992324F421
:100900000150184F2F4F3F4FD901C801072E7BE0F0
:10091000B595A795979587957A95D1F7702DC80EBF
:10092000D91EEA1EFB1EA0912202B0912302A7014C
:10093000960130584F4F5F4F0E94D91D2B013C014B
:10094000032E3FE076946794579447943A95D1F7F5
:10095000302D80911C0290911D02880F991F880FE5
:10096000991F092E000CAA0BBB0BC80ED91EEA1E3C
:10097000FB1E0C2E04C0CC0CDD1CEE1CFF1C0A94CC
:10098000D2F782E0C80ED11CE11CF11CD701C601D0
:10099000FF201CF40396A11DB11DB595A795979551
:1009A0008795B595A79597958795A5019401281BDF
:1009B000390B4A0B5B0B80E593ECA0E0B0E0BC0187
:1009C000CD0104C09595879577956795CA95D2F71F
:1009D0000E946E1D99235CF0660F771F881F991F78
:1009E000A30192010E94921D69017A010AC0A3012C
:1009F00092010E94921D69017A01CC0CDD1CEE1C53
:100A0000FF1CD701C601FF2024F481509F4FAF4F38
:100A1000BF4F692F7A2F8B2F992787FD9A959B01BE
:100A2000AC010E946E1D9B01AC01AEEDBBE00E94CB
:100A3000D91D4B015C01A3E4B3EEA70196010E940E
:100A4000E71D8B019C01992324F4015011092F4FBC
:100A50003F4FA901772757FD7095672FD501C40136
:100A6000BB201CF40197AF4FBF4FCD01BB2797FDB3
:100A7000B095AB2F840F951FA61FB71F8153914FC1
:100A8000AF4FBF4FAC01BD0122F4415F5F4F6F4FCD
:100A90007F4F689413F87595679557954795169409
:100AA000D1F7CB01BA016C0D7D1D8E1D9F1DCF911D
:100AB0001F910F91FF90EF90DF90CF90BF90AF907C
:100AC0009F908F907F906F905F904F9008950E94BD
:100AD000C71A20E033E743ED57E40E941D1A21E0D6
:100AE0003EED42E45EE30E94E91B9B01AC0160E045
:100AF00070E080E89FE30E94AB1920E03AE24DE20B
:100B000057E40E947C1B08952FEF87EA91E621505D
:100B100080409040E1F700C000001092300208953C
:100B2000CF92DF92EF92FF92CF93DF9300D000D06D
:100B30001F92CDB7DEB7682F792FFE01319685E081
:100B4000DF011D928A95E9F7109230024198399A97
:100B5000BFEF29EF80E0B15020408040E1F700C0B6
:100B60000000419A39982FE10AC09AE09A95F1F76E
:100B700000C0215021F484E0809330028FC031996D
:100B8000F4CF80913002882359F088C0AAE0AA955A
:100B9000F1F700C0215029F484E0809330020EC0A8
:100BA00023E3319BF3CF0AC0BAE0BA95F1F700C056
:100BB000215029F484E08093300270C023E33199FE
:100BC000F3CF80913002882309F443C067C08AE0E4
:100BD0008A95F1F700C0215031F45093300245E07E
:100BE00034C0422F24E2319BF2CF209130022111F8
:100BF00029C09AEB9A95F1F700C0319B1EC0E1E045
:100C0000F0E0EC0FFD1FE40FF11D2081D701C601BC
:100C1000032E04C0880F991FAA1FBB1F0A94D2F786
:100C2000822B80830AC0AAE0AA95F1F700C0215068
:100C300029F450933002242F06C023E33199F3CFD7
:100C4000242F01C0242F315062F64F5F453038F019
:100C500008C040E0C12CD12C7601C39454E037E0A9
:100C6000C1CF80913002811119C099818A81980F7A
:100C70008B81980F8C81890F9D81891721F083E0EA
:100C8000809330020BC0DE011196E62FF72FCE01C4
:100C900005962D912193A817B907D9F70F900F90BA
:100CA0000F900F900F90DF91CF91FF90EF90DF901A
:100CB000CF9008958F929F92AF92BF92CF92DF9282
:100CC000EF92FF920F931F93CF93DF9300D000D04A
:100CD000CDB7DEB78C017B0119821A821B821C8280
:100CE000CE0101960E94900580913002811173C05F
:100CF0006C818B81882384F48F7770E0782B072EAA
:100D0000000C880B990B0E94C71A20E030E040E2EB
:100D100051EC0E941D1A0EC070E0782B072E000CBB
:100D2000880B990B0E94C71A20E030E040E251E4A2
:100D30000E941D1AF8016083718382839383698105
:100D400070E0762F66278A81682B072E000C880BAF
:100D5000990B0E94C71A20E030E040E251E40E9463
:100D60001D1A4B015C01F7016083718382839383B9
:100D7000F801C080D180E280F38020E030E040E2E2
:100D800052ECC701B6010E94181A882354F020E0E3
:100D900030E040EA52E4C701B6010E94771B181602
:100DA00024F482E08093300216C020E030E0A901F4
:100DB000C501B4010E94181A882354F020E030E0E5
:100DC00048EC52E4C501B4010E94771B18161CF4CC
:100DD00081E0809330020F900F900F900F90DF9181
:100DE000CF911F910F91FF90EF90DF90CF90BF9028
:100DF000AF909F908F9008958CE08093B800E9EBBE
:100E0000F0E080818C7F80838FEF8093BB0084E053
:100E10008093BC00089584EA8093BC00089584E91F
:100E20008093BC000895ECEBF0E080818823ECF720
:100E300008958093BB0084E88093BC0008958823C4
:100E400021F084EC8093BC00089584E88093BC007A
:100E500008958091BB000895CF93DF93EC010E9429
:100E60000B070E94130780ED0E9419070E941307C9
:100E700080E00E9419070E9413070E940F070E943A
:100E80000B070E94130781ED0E9419070E941307A8
:100E900081E00E941F070E9413070E942907888390
:100EA00081E00E941F070E9413070E94290789837F
:100EB00081E00E941F070E9413070E9429078A836E
:100EC00081E00E941F070E9413070E9429078B835D
:100ED00081E00E941F070E9413070E9429078C834C
:100EE00081E00E941F070E9413070E9429078D833B
:100EF00080E00E941F070E9413070E9429078E832B
:100F00000E9413070E940F07DF91CF910895ECE72D
:100F1000F0E0808180648083EEE7F0E08081816092
:100F20008083EAE7F0E08081876880838081806445
:100F300080830895EAE7F0E0808180648083808187
:100F400086FDFDCF8091780090917900089584B15D
:100F5000887F84B985B1876085B9EBE6F0E0808150
:100F600087608083E8E6F0E0808181608083089577
:100F70008F929F92AF92BF92CF92DF92EF92FF92A9
:100F800020E030E048EC52E4609157027091580242
:100F90008091590290915A020E941D1A20E030E07F
:100FA00040E05EE30E94E91B4B015C01C0905202ED
:100FB000D0905302E0905402F090550226E636E6B7
:100FC00046E65FE3C701B6010E947C1B20E030E0EB
:100FD00040EE52E40E94AC19A50194010E947C1BD2
:100FE0004B015C012DEC3CEC4CEC5DE3C701B60120
:100FF0000E947C1B9B01AC01C501B4010E94AC198D
:1010000020E030E04CED52E40E94AB19FF90EF90ED
:10101000DF90CF90BF90AF909F908F9008950097F2
:10102000F1F4EBE6F0E080818E7F80832FEF89EF93
:1010300090E0215080409040E1F700C000001899F6
:1010400006C080818160808381E090E00895EBE6B6
:10105000F0E080818160808380E090E008958130BD
:101060009105F1F4EBE6F0E080818D7F80832FEF36
:1010700089EF90E0215080409040E1F700C00000EF
:10108000199906C080818260808381E090E0089594
:10109000EBE6F0E080818260808380E090E008955C
:1010A0000297F1F4EBE6F0E080818B7F80832FEFF5
:1010B00089EF90E0215080409040E1F700C00000AF
:1010C0001A9906C080818460808381E090E0089551
:1010D000EBE6F0E080818460808380E090E008951A
:1010E00008951F920F920FB60F9211242F933F93E2
:1010F0004F935F936F937F938F939F93AF93BF9320
:10110000EF93FF93189915C080E090E00E940F08BC
:10111000892B41F081E08093560210927002109268
:10112000710234C010925602109270021092710235
:101130002DC0199915C081E090E00E940F08892BFD
:1011400041F0109256021092700281E08093710279
:101150001DC010925602109270021092710216C0B9
:101160001A9914C082E090E00E940F08892B41F088
:101170001092560281E0809370021092710206C0B4
:10118000109256021092700210927102FF91EF912C
:10119000BF91AF919F918F917F916F915F914F918F
:1011A0003F912F910F900FBE0F901F901895E1E87F
:1011B000F0E080818C60808381E19AE790938B00DE
:1011C00080938A0083E294EF909389008093880053
:1011D000EFE6F0E08081866080830895CF93DF930F
:1011E0000E940B070E94130780E90E9419070E94C2
:1011F000130780E00E9419070E9413070E940B0743
:101200000E94130781E90E9419070E94130781E0D9
:101210000E941F070E9413070E942907D82F0E94CF
:10122000130780E00E941F070E9413070E942907EE
:10123000C82F0E9413070E940F071092BC002C2F8A
:1012400030E03D2B35952795359527953595279594
:101250003595279533FD386FC90199230CF40F9606
:101260009595879595958795959587959595879566
:10127000DF91CF910895CF93DF93CDB7DEB7C454FC
:10128000D1090FB6F894DEBF0FBECDBF85E0E8E010
:10129000F1E0DE01A05CBF4F01900D928A95E1F76D
:1012A00021964FAD219722965FAD229723966FAD81
:1012B000239724967FAD249725968FAD25970E947E
:1012C0003B190E94A7070E94FC060E9400010E9491
:1012D00087070E9410030E94840589E692E00E941D
:1012E0002C0778948DE091E00E94F10080EC0E9440
:1012F000CE008BE191E00E94F1002FEF81E19AE7AF
:10130000215080409040E1F700C0000081E00E9441
:10131000CE008CE291E00E94F10080EC0E94CE00B1
:1013200089E391E00E94F1000E94D70810E00F2E9F
:10133000F8E8EF2EF12CF02D0F2EF3E2CF2EF4EF84
:10134000DF2EF02D02E00F2EF9E07F2EF02D0F2E74
:10135000FFE98F2EF1E09F2EF02D5E01EDE0AE0E45
:10136000B11C812F90E0FC018B309105E0F7EC5C23
:10137000FF4F0C94D31D80915602882391F381E096
:101380000E94CE0081E491E00E94F100FFEF27EA85
:1013900081E6F15020408040E1F700C0000081E08C
:1013A0000E94CE008CE491E00E94F10080EC0E944B
:1013B000CE008DE591E00E94F1001092560210924D
:1013C00071021092700211E0CCCF809156028823F6
:1013D00041F2F7011182108267E572E082E592E046
:1013E0000E945A060E94EE089093360280933502BE
:1013F0006091520270915302809154029091550273
:1014000060935B0270935C0280935D0290935E0236
:1014100021E030E0AE014F5F5F4F0E94A9014AE03A
:10142000BE01665D7F4F80913502909136020E9429
:101430000F1E81E00E94CE008CE691E00E94F10038
:10144000CE0101960E94F1008FED0E94DE0085E73B
:1014500091E00E94F10080EC0E94CE0087E791E0CD
:101460000E94F100CE018A960E94F1008FED0E9449
:10147000DE0085E791E00E94F100F701D182C08291
:1014800081E080931702109256021092710210921E
:101490007002102F66CF80917102882309F453C027
:1014A000F7011182108267E572E082E592E00E9406
:1014B0005A066091370270913802809139029091FA
:1014C0003A0221E030E0AE01495F5F4F0E94A9017E
:1014D00060910001709101018091020190910301DE
:1014E00021E030E0AE01465C5F4F0E94A90181E03F
:1014F0000E94CE0080E891E00E94F100CE010796A4
:101500000E94F10087E891E00E94F10080EC0E94C7
:10151000CE0089E891E00E94F100CE01CA960E94B7
:10152000F10087E891E00E94F100F701D182C082CA
:1015300081E080931702109256021092710210926D
:1015400070021AE00ECF80917002882309F43FC028
:1015500010921702F7011182108267E572E082E5AE
:1015600092E00E945A066091570270915802809151
:10157000590290915A0260936002709361028093C5
:1015800062029093630221E030E0AE01495F5F4F59
:101590000E94A90181E00E94CE0080E991E00E94B2
:1015A000F100CE0107960E94F10087E891E00E94C9
:1015B000F100F701D182C08281E080931502109280
:1015C0005602109271021092700213E0CACE8091FE
:1015D0001002882309F4C5CE609152027091530223
:1015E000809154029091550260935B0270935C026B
:1015F00080935D0290935E0221E030E0AE014F5F88
:101600005F4F0E94A90181E00E94CE0089E991E02C
:101610000E94F100CE0101960E94F1008FED0E9420
:10162000DE0085E791E00E94F1004AE0BE01665DC0
:101630007F4F80913502909136020E940F1E80EC00
:101640000E94CE0087E791E00E94F100CE018A96C9
:101650000E94F1008FED0E94DE0085E791E00E947C
:10166000F100109210027DCE80917102882309F45E
:1016700064C010921502F7011182108267E572E0D2
:1016800082E592E00E945A060E94EE08909336028C
:1016900080933502609152027091530280915402FE
:1016A0009091550260935B0270935C0280935D029F
:1016B00090935E0221E030E0AE014F5F5F4F0E94E9
:1016C000A9014AE0BE01665D7F4F8091350290918D
:1016D00036020E940F1E81E00E94CE008CE691E04F
:1016E0000E94F100CE0101960E94F1008FED0E9450
:1016F000DE0085E791E00E94F10080EC0E94CE00C0
:1017000087E791E00E94F100CE018A960E94F100E5
:101710008FED0E94DE0085E791E00E94F100F70165
:10172000D182C08281E080931702109256021092FB
:10173000710210927002102F14CE809170028823D3
:10174000D9F110921502F7011182108281E00E94F6
:10175000B10360937202709373028093740290934A
:1017600075029F938F937F936F939F928F92BF92F7
:10177000AF920E94341E81E00E94CE0083EA91E085
:101780000E94F100C5010E94F1008CEA91E00E94E4
:10179000F100F701D182C08281E08093160210929D
:1017A000560210927102109270020FB6F894DEBFCA
:1017B0000FBECDBF14E0D5CD80911002882309F46F
:1017C000D0CD60915702709158028091590290914A
:1017D0005A02609360027093610280936202909358
:1017E000630221E030E0AE01495F5F4F0E94A90132
:1017F00081E00E94CE0080E991E00E94F100CE01DC
:1018000007960E94F10087E891E00E94F100109293
:101810001002A7CD80917102882309F43FC0109275
:101820001602F7011182108267E572E082E592E00C
:101830000E945A0660915702709158028091590295
:1018400090915A02609360027093610280936202E9
:101850009093630221E030E0AE01495F5F4F0E9448
:10186000A90181E00E94CE0080E991E00E94F10090
:10187000CE0107960E94F10087E891E00E94F100F6
:10188000F701D182C08281E0809315021092560246
:10189000109271021092700213E063CD8091700279
:1018A000882309F441C010921602F70111821082B8
:1018B00081E00E94B103609372027093730280937F
:1018C0007402909375020E94670560934E027093B4
:1018D0004F02809350029093510221E030E0AE011C
:1018E0004B5E5F4F0E94A90181E00E94CE008FEA0B
:1018F00091E00E94F100CE0145960E94F10080EC3B
:101900000E94CE0088EB91E00E94F100F701D182A5
:10191000C08281E0809314021092560210927102EC
:101920001092700215E01DCD80911002882309F4F9
:1019300018CD809175028F93809174028F9380915E
:1019400073028F93809172028F939F928F92BF92B6
:10195000AF920E94341E81E00E94CE0083EA91E0A3
:101960000E94F100C5010E94F1008CEA91E00E9402
:10197000F100109210020FB6F894DEBF0FBECDBF7B
:10198000F0CC809171028823D9F110921402F701F2
:101990001182108281E00E94B10360937202709301
:1019A000730280937402909375029F938F937F9339
:1019B0006F939F928F92BF92AF920E94341E81E0EC
:1019C0000E94CE0083EA91E00E94F100C5010E94CE
:1019D000F1008CEA91E00E94F100F701D182C0820F
:1019E00081E08093160210925602109271021092BA
:1019F00070020FB6F894DEBF0FBECDBF14E0B1CCBD
:101A000080917002882309F456C010921402F701E5
:101A1000118210820E949A0790933D0280933C02AB
:101A20008C32F1E09F0754F487E0ECEBF1E0AEE399
:101A3000B2E001900D928A95E1F724C0843F21E045
:101A4000920754F486E0E3ECF1E0AEE3B2E00190FB
:101A50000D928A95E1F716C08032934054F485E0E8
:101A6000E9ECF1E0AEE3B2E001900D928A95E1F786
:101A700009C08AE0EEECF1E0AEE3B2E001900D9235
:101A80008A95E1F781E00E94CE0088ED91E00E9406
:101A9000F1008EE392E00E94F100F701D182C08252
:101AA00081E08093130210925602109271021092FC
:101AB000700216E056CC80911002882309F451CCB4
:101AC00060914E0270914F028091500290915102AC
:101AD00021E030E0AE014B5E5F4F0E94A90181E042
:101AE0000E94CE008FEA91E00E94F100CE0145965F
:101AF0000E94F10080EC0E94CE0088EB91E00E94F1
:101B0000F100109210022DCC80917102882309F40B
:101B100041C010921302F7011182108281E00E94ED
:101B2000B103609372027093730280937402909376
:101B300075020E94670560934E0270934F02809376
:101B400050029093510221E030E0AE014B5E5F4FB6
:101B50000E94A90181E00E94CE008FEA91E00E94DC
:101B6000F100CE0145960E94F10080EC0E94CE006B
:101B700088EB91E00E94F100F701D182C08281E000
:101B80008093140210925602109271021092700209
:101B900015E0E7CB80917002882309F444C01092CD
:101BA0001302F7011182108267E572E082E592E08C
:101BB0000E945A06209157023091580240915902D2
:101BC00050915A02609152027091530280915402D6
:101BD000909155020E94B80721E030E0AE014C5DC3
:101BE0005F4F0E94A90181E00E94CE0080EE91E04B
:101BF0000E94F100CE0184960E94F1008FED0E94B8
:101C0000DE0085E791E00E94F100F701D182C082F9
:101C100081E080931202109256021092710210928B
:101C2000700217E09ECB80911002882309F499CBB3
:101C300081E00E94CE0088ED91E00E94F1008EE3E9
:101C400092E00E94F100109210028BCB8091710201
:101C5000882309F456C010921202F70111821082F3
:101C60000E949A0790933D0280933C028C32F1E0EF
:101C70009F0754F487E0ECEBF1E0AEE3B2E00190B3
:101C80000D928A95E1F724C0843F21E0920754F435
:101C900086E0E3ECF1E0AEE3B2E001900D928A95CC
:101CA000E1F716C08032934054F485E0E9ECF1E0AE
:101CB000AEE3B2E001900D928A95E1F709C08AE0A7
:101CC000EEECF1E0AEE3B2E001900D928A95E1F71F
:101CD00081E00E94CE0088ED91E00E94F1008EE349
:101CE00092E00E94F100F701D182C08281E08093EE
:101CF000130210925602109271021092700216E0B6
:101D000030CB809170028823D1F010921202F7013B
:101D10001182108281E00E94CE008AEE91E00E9442
:101D2000F100F701D182C08281E08093110210920C
:101D30005602109271021092700218E012CB80913C
:101D40001002882309F40DCB2091570230915802DC
:101D50004091590250915A0260915202709153027F
:101D600080915402909155020E94B80721E030E022
:101D7000AE014C5D5F4F0E94A90181E00E94CE0040
:101D800080EE91E00E94F100CE0184960E94F10065
:101D90008FED0E94DE0085E791E00E94F100109235
:101DA0001002DFCA80917102882309F444C01092A6
:101DB0001102F7011182108267E572E082E592E07C
:101DC0000E945A06209157023091580240915902C0
:101DD00050915A02609152027091530280915402C4
:101DE000909155020E94B80721E030E0AE014C5DB1
:101DF0005F4F0E94A90181E00E94CE0080EE91E039
:101E00000E94F100CE0184960E94F1008FED0E94A5
:101E1000DE0085E791E00E94F100F701D182C082E7
:101E200081E0809312021092560210927102109279
:101E3000700217E096CA80917002882309F455C099
:101E400010921102F7011182108260916502709167
:101E50006602809167029091680221E030E0AE0155
:101E60004F5F5F4F0E94A9016091040170910501CD
:101E7000809106019091070121E030E0AE014C5CB9
:101E80005F4F0E94A90181E00E94CE0085EF91E0A2
:101E90000E94F100CE0101960E94F1008FED0E9498
:101EA000DE0085E791E00E94F10080EC0E94CE0008
:101EB0008CEF91E00E94F100CE01C4960E94F100E7
:101EC0008FED0E94DE0085E791E00E94F100F701AE
:101ED000D182C08281E08093170210925602109244
:101EE000710210927002172D3CCA80911002882353
:101EF00009F437CA81E00E94CE0083E092E00E949C
:101F0000F100109210022DCA80917102882309F409
:101F100055C010921702F70111821082609165027C
:101F200070916602809167029091680221E030E032
:101F3000AE014F5F5F4F0E94A90160910401709153
:101F40000501809106019091070121E030E0AE018A
:101F50004C5C5F4F0E94A90181E00E94CE0085EF9A
:101F600091E00E94F100CE0101960E94F1008FEDF8
:101F70000E94DE0085E791E00E94F10080EC0E9463
:101F8000CE008CEF91E00E94F100CE01C4960E9439
:101F9000F1008FED0E94DE0085E791E00E94F100E4
:101FA000F701D182C08281E0809311021092560223
:101FB000109271021092700218E0D3C980917002E1
:101FC000882309F453C0F7011182108267E572E09B
:101FD00082E592E00E945A066091370270913802C1
:101FE0008091390290913A0221E030E0AE01495FE0
:101FF0005F4F0E94A90160910001709101018091E1
:1020000002019091030121E030E0AE01465C5F4F98
:102010000E94A90181E00E94CE0080E891E00E9428
:10202000F100CE0107960E94F10087E891E00E943E
:10203000F10080EC0E94CE0089E891E00E94F1005E
:10204000CE01CA960E94F10087E891E00E94F1005B
:10205000F701D182C08281E080931702109256026C
:1020600010927102109270021AE07BC980911002E6
:10207000882309F476C960916502709166028091A7
:1020800067029091680221E030E0AE014F5F5F4F40
:102090000E94A901609104017091050180910601DF
:1020A0009091070121E030E0AE014C5C5F4F0E944F
:1020B000A90181E00E94CE0085EF91E00E94F1002D
:1020C000CE0101960E94F1008FED0E94DE0085E7AF
:1020D00091E00E94F10080EC0E94CE008CEF91E034
:1020E0000E94F100CE01C4960E94F1008FED0E9483
:1020F000DE0085E791E00E94F1001092100231C9E4
:1021000080917102882309F453C081E08093170203
:10211000F7011182108260916502709166028091D0
:1021200067029091680221E030E0AE014F5F5F4F9F
:102130000E94A9016091040170910501809106013E
:102140009091070121E030E0AE014C5C5F4F0E94AE
:10215000A90181E00E94CE0085EF91E00E94F1008C
:10216000CE0101960E94F1008FED0E94DE0085E70E
:1021700091E00E94F10080EC0E94CE008CEF91E093
:102180000E94F100CE01C4960E94F1008FED0E94E2
:10219000DE0085E791E00E94F100F701D182C08264
:1021A000109256021092710210927002172DD9C827
:1021B00080917002882309F462C0F70111821082B5
:1021C00067E572E082E592E00E945A060E94EE08FE
:1021D00090933602809335026091520270915302BF
:1021E000809154029091550260935B0270935C025F
:1021F00080935D0290935E0221E030E0AE014F5F7C
:102200005F4F0E94A9014AE0BE01665D7F4F809149
:102210003502909136020E940F1E81E00E94CE008E
:102220008CE691E00E94F100CE0101960E94F1003F
:102230008FED0E94DE0085E791E00E94F10080ECC6
:102240000E94CE0087E791E00E94F100CE018A96BD
:102250000E94F1008FED0E94DE0085E791E00E9470
:10226000F100F701D182C08281E0809317021092C1
:1022700056021092710210927002102F72C8809153
:102280001002882309F46DC86091370270913802FA
:102290008091390290913A0221E030E0AE01495F2D
:1022A0005F4F0E94A901609100017091010180912E
:1022B00002019091030121E030E0AE01465C5F4FE6
:1022C0000E94A90181E00E94CE0080E891E00E9476
:1022D000F100CE0107960E94F10087E891E00E948C
:1022E000F10080EC0E94CE0089E891E00E94F100AC
:1022F000CE01CA960E94F10087E891E00E94F100A9
:10230000109210022EC81F920F920FB60F92112436
:102310002F923F924F925F926F927F928F929F92F5
:10232000AF92BF92CF92DF92EF92FF920F931F93E3
:102330002F933F934F935F936F937F938F939F93CD
:10234000AF93BF93EF93FF93CF93DF93CDB7DEB7F8
:102350002897DEBFCDBF67E572E082E592E00E947C
:102360005A060E94EE08909336028093350281E06F
:102370000E94B1036093720270937302809374029F
:10238000909375020E94670560934E0270934F020E
:1023900080935002909351020E949A079A838983F6
:1023A00090933D0280933C02409057025090580217
:1023B0006090590270905A02C0905202D09053021D
:1023C000E0905402F0905502A3019201C701B601BA
:1023D0000E94B8076D837E838F83988729813A8115
:1023E0002C32314054F487E0ECEBF1E0AEE3B2E0A4
:1023F00001900D928A95E1F727C089819A81843FE7
:10240000914054F486E0E3ECF1E0AEE3B2E00190F9
:102410000D928A95E1F718C029813A812032334024
:1024200054F485E0E9ECF1E0AEE3B2E001900D9206
:102430008A95E1F709C08AE0EEECF1E0AEE3B2E0A4
:1024400001900D928A95E1F7C0925B02D0925C02F6
:10245000E0925D02F0925E02409260025092610250
:10246000609262027092630220E030E048EC52E435
:10247000C701B6010E947C1B2B013C016093310215
:1024800070933202809333029093340220E030E064
:102490004AE754E40E941D1A0E94961A609376023D
:1024A000E62EF12C20E030E048EC52E4C301B2010A
:1024B0000E941D1A4B015C01B701660F771FC7010F
:1024C000880F991F880F991F880F991F680F791F10
:1024D000072E000C880B990B0E94C71A9B01AC01B8
:1024E000C501B4010E94AB190E94961A6093640260
:1024F000C62ED12C20E030E040E251E4C301B2010D
:102500000E941D1A4B015C0154E65E9DB0015F9D67
:10251000700D1124072E000C880B990B0E94C71A0E
:102520009B01AC01C501B4010E94AB194B015C01D8
:10253000B601660F771FC601880F991F880F991F74
:10254000880F991F680F791F072E000C880B990BB5
:102550000E94C71A9B01AC01C501B4010E94AB19CE
:102560000E94961A698360934D0208EE13E0E09E84
:10257000B001E19E700DF09E700D1124072E000C2D
:10258000880B990B0E94C71A9B01AC01C301B201D1
:102590000E94AB192B013C0184E68C9DB0018D9DFE
:1025A000700D1124072E000C880B990B0E94C71A7E
:1025B0009B01AC01C301B2010E94AB196B017C010C
:1025C000E9818E2F90E0BC01660F771F880F991F5D
:1025D000880F991F880F991F680F791F072E000C0D
:1025E000880B990B0E94C71A9B01AC01C701B60169
:1025F0000E94AB190E94961A60935F028FEF0E94AF
:10260000A319809176020E94A319809164020E940E
:10261000A31980914D020E94A31980915F020E942C
:10262000A31920E030E048EC52E460915702709129
:1026300058028091590290915A020E947C1B6B01B2
:102640007C01609331027093320280933302909345
:10265000340220E030E04AE754E40E941D1A0E9450
:10266000961A698360937602262E312C20E030E0A2
:1026700048EC52E4C701B6010E941D1A2B013C012F
:10268000B101660F771FC101880F991F880F991F2D
:10269000880F991F680F791F072E000C880B990B64
:1026A0000E94C71A9B01AC01C301B2010E94AB1981
:1026B0000E94961A60936402A62EB12C20E030E0AE
:1026C00040E251E4C701B6010E941D1A2B013C01F2
:1026D00024E6229DB001239D700D1124072E000CCD
:1026E000880B990B0E94C71A9B01AC01C301B20170
:1026F0000E94AB192B013C01B501660F771FC50184
:10270000880F991F880F991F880F991F680F791FCD
:10271000072E000C880B990B0E94C71A9B01AC0175
:10272000C301B2010E94AB190E94961A762E6093E3
:102730004D02209EB001219E700D309E700D11241F
:10274000072E000C880B990B0E94C71A9B01AC0145
:10275000C701B6010E94AB196B017C0134E63A9DBA
:10276000B0013B9D700D1124072E000C880B990BB6
:102770000E94C71A9B01AC01C701B6010E94AB19A8
:102780006B017C01872D90E0BC01660F771F880FDD
:10279000991F880F991F880F991F680F791F072E9F
:1027A000000C880B990B0E94C71A9B01AC01C70152
:1027B000B6010E94AB190E94961A60935F0289814C
:1027C0000E94A319809164020E94A31980914D0276
:1027D0000E94A31980915F020E94A3194090720287
:1027E000509073026090740270907502C301B20140
:1027F00020EA36E841E050E00E94B41DD22E20933A
:102800007602C301B20120E137E240E050E00E94CD
:10281000B41D9D2D990F892F880F880F890F222EA7
:10282000281A20926402C301B20128EE33E040E08E
:1028300050E00E94B41D44E64D9D20191124922DB4
:10284000990F892F880F880F890F281B29832093C0
:102850004D02C301B20124E630E040E050E00E94A6
:10286000B41D822F58E1D59E800D112494E6299E37
:10287000801911242981220F922F990F990F920FFD
:10288000891B80935F02312CA82EB12CE9818E2EFA
:10289000912CC301B2012AE030E040E050E00E94F8
:1028A000B41D8D2D90E09C838B8360EF78EDFC014F
:1028B000E69FC001E79F900DF69F900D1124280F11
:1028C000391FE8E1FCEF2E9EC0012F9E900D3E9E29
:1028D000900D1124D901A80FB91F4CE994014203AE
:1028E000C001439F900D11247D01E80EF91EA6EF53
:1028F0004A2F95014203C001439F900D1124970177
:10290000280F391F3A83298380E699E74B815C8140
:10291000489F7001499FF00C589FF00C11244E0CF9
:102920005F1C269E7001279EF00C369EF00C112431
:102930004E0C5F1C8E9E70018F9EF00C9E9EF00CC4
:102940001124E40CF51C4CE995014203C001439F9E
:10295000900D11242701480E591E4A2F29813A81D2
:1029600042037001439FF00C1124E40CF51C8D2DE3
:102970000E94A319809164020E94A31980914D02C4
:102980000E94A31980915F020E94A31989810E946D
:10299000A3198E2D0E94A31920E030E040E251E4FB
:1029A00060914E0270914F028091500290915102BD
:1029B0000E947C1B6B017C01609331027093320298
:1029C000809333029093340220E030E04AE754E4ED
:1029D0000E941D1A0E94961A698360937602262E21
:1029E000312C20E030E048EC52E4C701B6010E94EF
:1029F0001D1A2B013C01B101660F771FC101880F21
:102A0000991F880F991F880F991F680F791F072E2C
:102A1000000C880B990B0E94C71A9B01AC01C301E3
:102A2000B2010E94AB190E94961A60936402862E2E
:102A3000912C20E030E040E251E4C701B6010E9451
:102A40001D1A2B013C0184E6829DB001839D700D0F
:102A50001124072E000C880B990B0E94C71A9B01AA
:102A6000AC01C301B2010E94AB192B013C01B401BE
:102A7000660F771FC401880F991F880F991F880F51
:102A8000991F680F791F072E000C880B990B0E9465
:102A9000C71A9B01AC01C301B2010E94AB190E948D
:102AA000961A762E60934D02209EB001219E700DE5
:102AB000309E700D1124072E000C880B990B0E947C
:102AC000C71A9B01AC01C701B6010E94AB196B018B
:102AD0007C0194E6989DB001999D700D1124072EFC
:102AE000000C880B990B0E94C71A9B01AC01C7010F
:102AF000B6010E94AB196B017C01872D90E09C010F
:102B0000220F331FBC01660F771F660F771F660FFA
:102B1000771F620F731F072E000C880B990B0E9402
:102B2000C71A9B01AC01C701B6010E94AB190E94F4
:102B3000961A60935F0289810E94A31980916402B2
:102B40000E94A31980914D020E94A31980915F02F7
:102B50000E94A31920913C02E0913D02822F9E2FFA
:102B6000B8010E947E1D362F60937602822F9E2F21
:102B700064E670E00E947E1D932F990F892F880FC5
:102B8000880F890F462F481B40936402822F9E2F87
:102B90006AE070E00E947E1DECE9E39F600D112465
:102BA000942F990F892F880F880F890F681B6093C6
:102BB0004D02F8E13F9F200D11244E9F200D11245E
:102BC000660F862F880F880F680F261B20935F02E1
:102BD000832F0E94A319809164020E94A3198091FF
:102BE0004D020E94A31980915F020E94A31920E068
:102BF00030E048EC52E46D817E818F8198850E949F
:102C00007C1B6B017C0160933102709332028093D4
:102C100033029093340220E030E04AE754E40E940B
:102C20001D1A0E94961A698360937602A62EB12C13
:102C300020E030E048EC52E4C701B6010E941D1AC2
:102C40002B013C01B501660F771FC501880F991F45
:102C5000880F991F880F991F680F791F072E000C86
:102C6000880B990B0E94C71A9B01AC01C301B201EA
:102C70000E94AB190E94961A60936402862E912CD2
:102C800020E030E040E251E4C701B6010E941D1A85
:102C90002B013C0134E63A9DB0013B9D700D11249F
:102CA000072E000C880B990B0E94C71A9B01AC01E0
:102CB000C301B2010E94AB192B013C01B401660FA4
:102CC000771FC401880F991F880F991F880F991FBC
:102CD000680F791F072E000C880B990B0E94C71AEA
:102CE0009B01AC01C301B2010E94AB190E94961A6C
:102CF000762E60934D02A09EB001A19E700DB09EF5
:102D0000700D1124072E000C880B990B0E94C71A16
:102D10009B01AC01C701B6010E94AB196B017C019C
:102D200044E6489DB001499D700D1124072E000C0A
:102D3000880B990B0E94C71A9B01AC01C701B60111
:102D40000E94AB196B017C01872D90E0BC01660FDE
:102D5000771F880F991F880F991F880F991F680F79
:102D6000791F072E000C880B990B0E94C71A9B0134
:102D7000AC01C701B6010E94AB190E94961A60937C
:102D80005F0289810E94A319809164020E94A319A5
:102D900080914D020E94A31980915F020E94A319A5
:102DA00080913B020E94A3198091350290913602D6
:102DB00054E6589FB001599F700D1124072E000C46
:102DC000880B990B0E94C71A6B017C01609331023A
:102DD00070933202809333029093340220E030E00B
:102DE0004AE754E40E941D1A0E94961A6983609370
:102DF0007602A62EB12C20E030E048EC52E4C70168
:102E0000B6010E941D1A2B013C01B501660F771F08
:102E1000C501880F991F880F991F880F991F680F88
:102E2000791F072E000C880B990B0E94C71A9B0173
:102E3000AC01C301B2010E94AB190E94961A6093C3
:102E40006402862E912C20E030E040E251E4C7017C
:102E5000B6010E941D1A2B013C0194E69A9DB00117
:102E60009B9D700D1124072E000C880B990B0E945E
:102E7000C71A9B01AC01C301B2010E94AB192B011F
:102E80003C01B401660F771FC401880F991F880F9A
:102E9000991F880F991F680F791F072E000C880B48
:102EA000990B0E94C71A9B01AC01C301B2010E9499
:102EB000AB190E94961A762E60934D02A09EB00127
:102EC000A19E700DB09E700D1124072E000C880B72
:102ED000990B0E94C71A9B01AC01C701B6010E9461
:102EE000AB196B017C01E4E6E89DB001E99D700D32
:102EF0001124072E000C880B990B0E94C71A9B0106
:102F0000AC01C701B6010E94AB196B017C01872D92
:102F100090E0BC01660F771F880F991F880F991FDB
:102F2000880F991F680F791F072E000C880B990BCB
:102F30000E94C71A9B01AC01C701B6010E94AB19E0
:102F40000E94961A60935F0289810E94A319809162
:102F500064020E94A31980914D020E94A3198091DE
:102F60005F020E94A31981E08093100228960FB699
:102F7000F894DEBF0FBECDBFDF91CF91FF91EF91EF
:102F8000BF91AF919F918F917F916F915F914F9181
:102F90003F912F911F910F91FF90EF90DF90CF9075
:102FA000BF90AF909F908F907F906F905F904F9069
:102FB0003F902F900F900FBE0F901F901895CF92BB
:102FC000DF92EF92FF92672BE1F0FC01C080D1808D
:102FD000E280F3802091370230913802409139022B
:102FE00050913A02C701B6010E94771B181624F5CA
:102FF000C0923702D0923802E0923902F0923A023F
:103000001BC0FC01C080D180E280F380209165026A
:10301000309166024091670250916802C701B60183
:103020000E94771B181644F4C0926502D092660283
:10303000E0926702F0926802FF90EF90DF90CF90ED
:103040000895CF92DF92EF92FF92672BE1F0FC019F
:10305000C080D180E280F380209100013091010195
:103060004091020150910301C701B6010E94181A54
:10307000882324F5C0920001D0920101E092020160
:10308000F09203011BC0FC01C080D180E280F3807C
:1030900020910401309105014091060150910701F2
:1030A000C701B6010E94181A882344F4C092040193
:1030B000D0920501E0920601F0920701FF90EF9097
:1030C000DF90CF9008951F920F920FB60F921124A8
:1030D0002F933F934F935F936F937F938F939F9320
:1030E000AF93BF93EF93FF939091170280911502D6
:1030F00020911202892B19F4222309F444C067E5B8
:1031000072E082E592E00E945A068091520290910C
:103110005302A0915402B091550280935B029093A8
:103120005C02A0935D02B0935E0280915702909181
:103130005802A0915902B0915A0280936002909374
:103140006102A0936202B093630260E070E08BE5DD
:1031500092E00E94DF1761E070E080E692E00E945A
:10316000DF1760E070E08BE592E00E94211861E0DB
:1031700070E080E692E00E9421180E94EE08909391
:1031800036028093350280911602882359F081E03F
:103190000E94B10360937202709373028093740271
:1031A00090937502809114028823A9F081E00E9417
:1031B000B1036093720270937302809374029093D0
:1031C00075020E94670560934E0270934F028093D0
:1031D000500290935102809113028823C1F10E9402
:1031E0009A0790933D0280933C028C3221E0920733
:1031F00054F487E0ECEBF1E0AEE3B2E001900D9225
:103200008A95E1F724C0843F21E0920754F486E0D8
:10321000E3ECF1E0AEE3B2E001900D928A95E1F7C4
:1032200016C08032934054F485E0E9ECF1E0AEE35F
:10323000B2E001900D928A95E1F709C08AE0EEECC8
:10324000F1E0AEE3B2E001900D928A95E1F781E002
:1032500080931002FF91EF91BF91AF919F918F9159
:103260007F916F915F914F913F912F910F900FBE82
:103270000F901F9018951F93CF93DF9300D000D02D
:103280001F92CDB7DEB749835A83162F6B837C8399
:103290008D8329813A8140E050E060E472E48FE060
:1032A00090E00E94921D2150310930937A022093C0
:1032B000790288E090E09093C5008093C40088E193
:1032C0008093C100193028F0612F70E062507109BD
:1032D00004C0612F70E06550710980917702909170
:1032E0007802682B792B7093780260937702E2EC76
:1032F000F0E08081660F771F682B608320819D81BD
:10330000892F90E00197880F991F880F991F880FC8
:10331000991F822B80838C81853431F08F3449F45E
:1033200080E38093C20005C0E2ECF0E0808180621F
:10333000808380E00F900F900F900F900F90DF919F
:10334000CF911F910895E0ECF0E0908195FFFDCFC3
:103350008093C60008955058BB27AA270E94C3191E
:103360000C943D1B0E942F1B38F00E94361B20F04E
:1033700039F49F3F19F426F40C942C1B0EF4E095BD
:10338000E7FB0C94261BE92F0E944E1B58F3BA173B
:10339000620773078407950720F079F4A6F50C946B
:1033A000701B0EF4E0950B2EBA2FA02D0B01B90166
:1033B00090010C01CA01A0011124FF27591B99F0AB
:1033C000593F50F4503E68F11A16F040A22F232FB7
:1033D000342F4427585FF3CF469537952795A79507
:1033E000F0405395C9F77EF41F16BA0B620B730BAE
:1033F000840BBAF09150A1F0FF0FBB1F661F771F1F
:10340000881FC2F70EC0BA0F621F731F841F48F4D3
:10341000879577956795B795F7959E3F08F0B0CF5C
:103420009395880F08F09927EE0F97958795089543
:103430000E94021B08F481E008950E94311A0C9446
:103440003D1B0E94361B58F00E942F1B40F029F4B0
:103450005F3F29F00C94261B51110C94711B0C94A6
:103460002C1B0E944E1B68F39923B1F3552391F353
:10347000951B550BBB27AA2762177307840738F0E3
:103480009F5F5F4F220F331F441FAA1FA9F335D040
:103490000E2E3AF0E0E832D091505040E695001CF4
:1034A000CAF72BD0FE2F29D0660F771F881FBB1FAE
:1034B000261737074807AB07B0E809F0BB0B802D8C
:1034C000BF01FF2793585F4F3AF09E3F510578F0B8
:1034D0000C94261B0C94711B5F3FE4F3983ED4F3CD
:1034E000869577956795B795F7959F5FC9F7880F8C
:1034F000911D9695879597F90895E1E0660F771FDE
:10350000881FBB1F621773078407BA0720F0621B6E
:10351000730B840BBA0BEE1F88F7E09508950E9499
:10352000961A6894B1110C94711B08950E94561B51
:1035300088F09F5798F0B92F9927B751B0F0E1F074
:10354000660F771F881F991F1AF0BA95C9F714C024
:10355000B13091F00E94701BB1E008950C94701B83
:10356000672F782F8827B85F39F0B93FCCF386955D
:1035700077956795B395D9F73EF4909580957095BA
:1035800061957F4F8F4F9F4F0895E89409C097FB37
:103590003EF490958095709561957F4F8F4F9F4F2A
:1035A0009923A9F0F92F96E9BB279395F69587956E
:1035B00077956795B795F111F8CFFAF4BB0F11F431
:1035C00060FF1BC06F5F7F4F8F4F9F4F16C08823D8
:1035D00011F096E911C0772321F09EE8872F762F0E
:1035E00005C0662371F096E8862F70E060E02AF04F
:1035F0009A95660F771F881FDAF7880F969587953B
:1036000097F90895990F0008550FAA0BE0E8FEEF0F
:1036100016161706E807F907C0F012161306E40796
:10362000F50798F0621B730B840B950B39F40A268F
:1036300061F0232B242B252B21F408950A2609F46D
:10364000A140A6958FEF811D811D089597F99F6771
:1036500080E870E060E008959FEF80EC089500241A
:103660000A941616170618060906089500240A94E7
:1036700012161306140605060895092E0394000C6D
:1036800011F4882352F0BB0F40F4BF2B11F460FFFC
:1036900004C06F5F7F4F8F4F9F4F089557FD905825
:1036A000440F551F59F05F3F71F04795880F97FB06
:1036B000991F61F09F3F79F08795089512161306C0
:1036C0001406551FF2CF4695F1DF08C016161706EF
:1036D0001806991FF1CF8695710561050894089524
:1036E000E894BB2766277727CB0197F908950E94B6
:1036F000021B08F48FEF08950E948F1B0C943D1B52
:103700000E942F1B38F00E94361B20F0952311F0E9
:103710000C94261B0C942C1B11240C94711B0E94DE
:103720004E1B70F3959FC1F3950F50E0551F629F9C
:10373000F001729FBB27F00DB11D639FAA27F00D0A
:10374000B11DAA1F649F6627B00DA11D661F829F31
:103750002227B00DA11D621F739FB00DA11D621F16
:10376000839FA00D611D221F749F3327A00D611D33
:10377000231F849F600D211D822F762F6A2F112415
:103780009F5750409AF0F1F088234AF0EE0FFF1F48
:10379000BB1F661F771F881F91505040A9F79E3F9F
:1037A000510580F00C94261B0C94711B5F3FE4F3D1
:1037B000983ED4F3869577956795B795F795E795F5
:1037C0009F5FC1F7FE2B880F911D9695879597F9FE
:1037D0000895FA01EE0FFF1F309621053105A1F182
:1037E0006115710561F48038BFE39B0749F1689466
:1037F0009038810561F08038BFEF9B0741F0992335
:103800004AF5FF3FE1053105210519F1E8940894D7
:10381000E795D901AA2329F4AB2FBE2FF85FD0F387
:1038200010C0FF5F70F4A695E0F7F73950F019F07B
:10383000FF3A38F49F779F930DD00F9007FC905874
:10384000089546F00C942C1B60E070E080E89FE344
:1038500008954FE79F775F934F933F932F930E9475
:10386000E41C2F913F914F915F910E947C1B0C941F
:10387000411C29F416F00C94261B0C94701B0C941C
:103880002C1B0E94561BA8F39638A0F707F80F923E
:10389000E8942BE33AEA48EB5FE70E94921B0F9211
:1038A0000F920F924DB75EB70F920E942C1DEEE75C
:1038B000F0E00E94731C4F915F91EF91FF91E595AD
:1038C000EE1FFF1F49F0FE57E0684427EE0F441F2C
:1038D000FA95E1F74195550B0E94A61C0F9007FE43
:1038E0000C949A1C0895DF93CF931F930F93FF922C
:1038F000EF92DF927B018C01689406C0DA2EEF0113
:103900000E948F1BFE01E894A59125913591459168
:103910005591A6F3EF010E94C319FE019701A8017A
:10392000DA9469F7DF90EF90FF900F911F91CF919C
:10393000DF9108959B01AC0160E070E080E89FE3B7
:103940000C941D1A0C94261B0C94601D0E94561B8F
:10395000D8F39923C9F3940F511DA3F3915050400C
:1039600094F059F0882332F0660F771F881F91502A
:103970005040C1F79E3F51052CF7880F911D969539
:10398000879597F908955F3FACF0983E9CF0BB2770
:10399000869577956795B79508F4B1609395C1F7CB
:1039A000BB0F58F711F460FFE8CF6F5F7F4F8F4F69
:1039B0009F4FE3CF0C94711B16F00C94601D0C9478
:1039C0002C1B68940C94261B0E94561BA8F3992369
:1039D000C1F3AEF3DF93CF931F930F93FF92C92FE1
:1039E000DD2788232AF02197660F771F881FDAF7D3
:1039F00020E030E040E85FEB9FE3883920F0803E34
:103A000038F021968F770E94AC19E6EAF0E004C006
:103A10000E94AC19E3EDF0E00E94731C8B01BE0123
:103A2000EC01FB2E6F5771097595771F880B990B69
:103A30000E94C71A28E132E741E35FE30E948F1B2F
:103A4000AF2D9801AE01FF900F911F91CF91DF91A3
:103A50000E94C3190C943D1BFA01DC01AA0FBB1F85
:103A60009B01AC01BF5728F4222733274427507805
:103A700020C0B75190F4AB2F002446953795279579
:103A8000011CA395D2F3002071F0220F331F441FB5
:103A9000B395DAF30ED00C94AB1961307105A0E840
:103AA0008A07B94630F49B01AC016627772788273F
:103AB0009078309621F02083318342835383089598
:103AC0009F3F31F0915020F4879577956795B79592
:103AD000880F911D9695879597F90895DB018F932F
:103AE0009F930E94D91DBF91AF91A29F800D911D00
:103AF000A39F900DB29F900D1124089597FB072E60
:103B000016F4009407D077FD09D00E94EC1D07FC45
:103B100005D03EF4909581959F4F089570956195DD
:103B20007F4F0895A1E21A2EAA1BBB1BFD010DC0F9
:103B3000AA1FBB1FEE1FFF1FA217B307E407F5075D
:103B400020F0A21BB30BE40BF50B661F771F881F39
:103B5000991F1A9469F760957095809590959B01CF
:103B6000AC01BD01CF010895052E97FB1EF4009412
:103B70000E94CB1D57FD07D00E94921D07FC03D069
:103B80004EF40C94CB1D50954095309521953F4FA8
:103B90004F4F5F4F089590958095709561957F4F39
:103BA0008F4F9F4F0895EE0FFF1F0590F491E02D6A
:103BB00009940E94001EA59F900DB49F900DA49F94
:103BC000800D911D11240895B7FF0C94D91D0E94FA
:103BD000D91D821B930B0895AA1BBB1B51E107C083
:103BE000AA1FBB1FA617B70710F0A61BB70B881F8D
:103BF000991F5A95A9F780959095BC01CD0108951C
:103C0000A29FB001B39FC001A39F700D811D11241D
:103C1000911DB29F700D811D1124911D0895BB2728
:103C20004A3031F4992322F4BDE2909581959F4F5B
:103C30000C941B1EBB27FB015527AA27880F991F31
:103C4000AA1FA41710F0A41B83955051B9F7A05DCB
:103C5000AA3308F0A95DA193009779F7B111B19348
:103C60001192CB010C944D20AEE0B0E0EAE3FEE10E
:103C70000C9405210D891E8986E08C831A830983A3
:103C80008FEF9FE79E838D83AE01475E5F4F6F8905
:103C9000788DCE0101960E94561EEF81F885E00FC7
:103CA000F11F10822E96E4E00C942121ABE0B0E0ED
:103CB000ECE5FEE10C94F7206C017B018A01FC012C
:103CC00017821682838181FFCCC1CE0101963C010F
:103CD000F6019381F70193FD859193FF81917F0117
:103CE000882309F4BAC1853239F493FD859193FF95
:103CF00081917F01853229F4B60190E00E945D2018
:103D0000E7CF912C212C312CFFE1F315D8F08B3229
:103D100079F038F4803279F08332A1F4232D2061D8
:103D20001DC08D3261F0803369F4232D216016C0EF
:103D3000832D8260382EE32DE4603E2E2AC0F32DC1
:103D4000F8601DC037FC2DC020ED280F2A3040F050
:103D50008E32B9F436FC81C1232D2064322E19C075
:103D600036FE06C08AE0989E200D1124922E11C0C6
:103D7000EAE02E9E200D1124222EF32DF0623F2E1C
:103D800008C08C3621F4832D8068382E02C0883616
:103D900041F4F70193FD859193FF81917F0181119A
:103DA000B3CF982F9F7D9554933028F40C5F1F4F0D
:103DB0009FE399830DC0833631F0833771F08335EB
:103DC00009F059C021C0F801808189830E5F1F4F1F
:103DD00088248394912C530113C02801F2E04F0EE4
:103DE000511CF801A080B18036FE03C0692D70E03F
:103DF00002C06FEF7FEFC5010E9442204C0182019B
:103E0000F32DFF773F2E16C0280122E0420E511CF1
:103E1000F801A080B18036FE03C0692D70E002C0B9
:103E20006FEF7FEFC5010E9437204C01F32DF06842
:103E30003F2E820133FC1BC0822D90E0881699062C
:103E4000B0F4B60180E290E00E945D202A94F4CFA5
:103E5000F50137FC859137FE81915F01B60190E055
:103E60000E945D2021102A9421E0821A9108811479
:103E7000910471F7E8C0843611F0893641F5F801F4
:103E800037FE07C060817181828193810C5F1F4F73
:103E900008C060817181072E000C880B990B0E5FA2
:103EA0001F4FF32DFF763F2E97FF09C09095809509
:103EB000709561957F4F8F4F9F4FF0683F2E2AE09E
:103EC00030E0A3010E949920882E861845C08537CE
:103ED00031F4232D2F7EB22E2AE030E025C0932D21
:103EE000997FB92E8F36C1F018F4883579F0B5C0B6
:103EF000803719F0883721F0B0C0E92FE061BE2E7D
:103F0000B4FE0DC0FB2DF460BF2E09C034FE0AC004
:103F1000292F2660B22E06C028E030E005C020E13F
:103F200030E002C020E132E0F801B7FE07C0608156
:103F30007181828193810C5F1F4F06C06081718106
:103F400080E090E00E5F1F4FA3010E949920882E11
:103F50008618FB2DFF773F2E36FE0DC0232D2E7FBA
:103F6000A22E891458F434FE0BC032FC09C0832DF4
:103F70008E7EA82E05C0B82CA32C03C0B82C01C07F
:103F8000B92CA4FE0FC0FE01E80DF11D8081803325
:103F900021F49A2D997EA92E09C0A2FE06C0B394E1
:103FA000B39404C08A2D867809F0B394A3FC11C0A1
:103FB000A0FE06C0B21488F4280C922C9B180EC0E8
:103FC000B21460F4B60180E290E00E945D20B394E8
:103FD000F7CFB21418F42B1802C0982C212CA4FE91
:103FE00010C0B60180E390E00E945D20A2FE17C0E1
:103FF000A1FC03C088E790E002C088E590E0B6012C
:104000000CC08A2D867859F0A1FE02C08BE201C057
:1040100080E2A7FC8DE2B60190E00E945D20891449
:1040200038F4B60180E390E00E945D209A94F7CFC7
:104030008A94F301E80DF11D8081B60190E00E94A1
:104040005D208110F5CF222009F442CEB60180E236
:1040500090E00E945D202A94F6CFF6018681978138
:1040600002C08FEF9FEF2B96E2E10C941321FC012D
:104070000590615070400110D8F7809590958E0F93
:104080009F1F0895FC016150704001900110D8F706
:10409000809590958E0F9F1F0895DC01FC01672F7E
:1040A00071917723E1F7329704C07C916D9370830F
:1040B0006291AE17BF07C8F308950F931F93CF9374
:1040C000DF93FB01238121FD03C08FEF9FEF2CC005
:1040D00022FF16C04681578124813581421753073C
:1040E00044F4A081B1819D012F5F3F4F3183208334
:1040F0008C93268137812F5F3F4F3783268314C0EF
:104100008B01EC01FB010084F185E02D0995892BE1
:10411000E1F6D80116968D919C9117970196179606
:104120009C938E931697CE01DF91CF911F910F91A3
:104130000895FA01AA27283051F1203181F1E8943D
:104140006F936E7F6E5F7F4F8F4F9F4FAF4FB1E08A
:104150003ED0B4E03CD0670F781F891F9A1FA11D85
:10416000680F791F8A1F911DA11D6A0F711D811D86
:10417000911DA11D20D009F468943F912AE0269F4B
:1041800011243019305D3193DEF6CF010895462FAA
:104190004770405D4193B3E00FD0C9F7F6CF462F8B
:1041A0004F70405D4A3318F0495D31FD40524193F4
:1041B00002D0A9F7EACFB4E0A695979587957795B1
:1041C0006795BA95C9F700976105710508959B0138
:1041D000AC010A2E06945795479537952795BA95C1
:1041E000C9F7620F731F841F951FA01D08952F929A
:1041F0003F924F925F926F927F928F929F92AF9277
:10420000BF92CF92DF92EF92FF920F931F93CF93C3
:10421000DF93CDB7DEB7CA1BDB0B0FB6F894DEBF5A
:104220000FBECDBF09942A88398848885F846E8480
:104230007D848C849B84AA84B984C884DF80EE80CA
:10424000FD800C811B81AA81B981CE0FD11D0FB6D3
:10425000F894DEBF0FBECDBFED010895F894FFCFF7
:104260000000C8420000484200E1084E0142696572
:104270006E76656E69646F20616C00536973746556
:104280006D6120646520436C696D610041707265E9
:10429000746520626F746F6E004163657074617243
:1042A00000436F6E74726F6C65733A00497A717572
:1042B00069657264613A2042746E2032004465720E
:1042C000656368613A2042746E203300546D702E2D
:1042D0004578743A004300546D702E496E743A006C
:1042E000482E4D61783A002500482E4D696E3A00FF
:1042F00048756D656461643A0054656D703A0025D7
:104300006C640050726573696F6E3A0050610041D1
:104310006C74697475643A00736E6D0046756572ED
:104320007465004D65646961004C6576650044659F
:104330007370656A61646F004C6C757669613A00F0
:1043400050746F526F63696F3A00507265646963AD
:1043500063696F6E00542E4D61783A00542E4D699A
:104360006E3A0050726564696363696F6E3A00006B
:00000001FF
